{
  "contractName": "Certificates",
  "abi": [
    {
      "inputs": [],
      "stateMutability": "nonpayable",
      "type": "constructor"
    },
    {
      "anonymous": false,
      "inputs": [
        {
          "indexed": true,
          "internalType": "address",
          "name": "owner",
          "type": "address"
        },
        {
          "indexed": true,
          "internalType": "address",
          "name": "approved",
          "type": "address"
        },
        {
          "indexed": true,
          "internalType": "uint256",
          "name": "tokenId",
          "type": "uint256"
        }
      ],
      "name": "Approval",
      "type": "event"
    },
    {
      "anonymous": false,
      "inputs": [
        {
          "indexed": true,
          "internalType": "address",
          "name": "owner",
          "type": "address"
        },
        {
          "indexed": true,
          "internalType": "address",
          "name": "operator",
          "type": "address"
        },
        {
          "indexed": false,
          "internalType": "bool",
          "name": "approved",
          "type": "bool"
        }
      ],
      "name": "ApprovalForAll",
      "type": "event"
    },
    {
      "anonymous": false,
      "inputs": [
        {
          "indexed": false,
          "internalType": "uint256",
          "name": "_fromTokenId",
          "type": "uint256"
        },
        {
          "indexed": false,
          "internalType": "uint256",
          "name": "_toTokenId",
          "type": "uint256"
        }
      ],
      "name": "BatchMetadataUpdate",
      "type": "event"
    },
    {
      "anonymous": false,
      "inputs": [
        {
          "indexed": true,
          "internalType": "uint256",
          "name": "certificateId",
          "type": "uint256"
        },
        {
          "indexed": true,
          "internalType": "bytes32",
          "name": "universityPublicKey",
          "type": "bytes32"
        },
        {
          "indexed": false,
          "internalType": "bytes32",
          "name": "studentPublicKey",
          "type": "bytes32"
        }
      ],
      "name": "CertificateIssued",
      "type": "event"
    },
    {
      "anonymous": false,
      "inputs": [
        {
          "indexed": false,
          "internalType": "uint256",
          "name": "_tokenId",
          "type": "uint256"
        }
      ],
      "name": "MetadataUpdate",
      "type": "event"
    },
    {
      "anonymous": false,
      "inputs": [
        {
          "indexed": true,
          "internalType": "address",
          "name": "previousOwner",
          "type": "address"
        },
        {
          "indexed": true,
          "internalType": "address",
          "name": "newOwner",
          "type": "address"
        }
      ],
      "name": "OwnershipTransferred",
      "type": "event"
    },
    {
      "anonymous": false,
      "inputs": [
        {
          "indexed": true,
          "internalType": "address",
          "name": "studentAddress",
          "type": "address"
        },
        {
          "indexed": false,
          "internalType": "uint256",
          "name": "approvalId",
          "type": "uint256"
        },
        {
          "indexed": false,
          "internalType": "bool",
          "name": "registered",
          "type": "bool"
        }
      ],
      "name": "StudentApproved",
      "type": "event"
    },
    {
      "anonymous": false,
      "inputs": [
        {
          "indexed": false,
          "internalType": "address",
          "name": "studentPublicKey",
          "type": "address"
        },
        {
          "indexed": false,
          "internalType": "string",
          "name": "name",
          "type": "string"
        },
        {
          "indexed": false,
          "internalType": "string",
          "name": "course",
          "type": "string"
        },
        {
          "indexed": false,
          "internalType": "uint256",
          "name": "approvalId",
          "type": "uint256"
        }
      ],
      "name": "StudentRegistered",
      "type": "event"
    },
    {
      "anonymous": false,
      "inputs": [
        {
          "indexed": true,
          "internalType": "address",
          "name": "from",
          "type": "address"
        },
        {
          "indexed": true,
          "internalType": "address",
          "name": "to",
          "type": "address"
        },
        {
          "indexed": true,
          "internalType": "uint256",
          "name": "tokenId",
          "type": "uint256"
        }
      ],
      "name": "Transfer",
      "type": "event"
    },
    {
      "anonymous": false,
      "inputs": [
        {
          "indexed": true,
          "internalType": "bytes32",
          "name": "publicKey",
          "type": "bytes32"
        },
        {
          "indexed": true,
          "internalType": "address",
          "name": "universityAddress",
          "type": "address"
        },
        {
          "indexed": false,
          "internalType": "string",
          "name": "name",
          "type": "string"
        }
      ],
      "name": "UniversityRegistered",
      "type": "event"
    },
    {
      "inputs": [
        {
          "internalType": "address",
          "name": "to",
          "type": "address"
        },
        {
          "internalType": "uint256",
          "name": "tokenId",
          "type": "uint256"
        }
      ],
      "name": "approve",
      "outputs": [],
      "stateMutability": "nonpayable",
      "type": "function"
    },
    {
      "inputs": [
        {
          "internalType": "address",
          "name": "studentAddress",
          "type": "address"
        },
        {
          "internalType": "uint256",
          "name": "approvalId",
          "type": "uint256"
        },
        {
          "internalType": "address",
          "name": "univadd",
          "type": "address"
        }
      ],
      "name": "approveStudentRegistration",
      "outputs": [],
      "stateMutability": "nonpayable",
      "type": "function"
    },
    {
      "inputs": [
        {
          "internalType": "address",
          "name": "owner",
          "type": "address"
        }
      ],
      "name": "balanceOf",
      "outputs": [
        {
          "internalType": "uint256",
          "name": "",
          "type": "uint256"
        }
      ],
      "stateMutability": "view",
      "type": "function"
    },
    {
      "inputs": [],
      "name": "certificateCounter",
      "outputs": [
        {
          "internalType": "uint256",
          "name": "",
          "type": "uint256"
        }
      ],
      "stateMutability": "view",
      "type": "function"
    },
    {
      "inputs": [
        {
          "internalType": "uint256",
          "name": "",
          "type": "uint256"
        }
      ],
      "name": "certificates",
      "outputs": [
        {
          "internalType": "string",
          "name": "studentName",
          "type": "string"
        },
        {
          "internalType": "address",
          "name": "studentAddress",
          "type": "address"
        },
        {
          "internalType": "address",
          "name": "universityAddress",
          "type": "address"
        },
        {
          "internalType": "string",
          "name": "certificateType",
          "type": "string"
        },
        {
          "internalType": "string",
          "name": "dateOfIssue",
          "type": "string"
        },
        {
          "internalType": "bytes32",
          "name": "studentPublicKey",
          "type": "bytes32"
        },
        {
          "internalType": "bytes32",
          "name": "universityPublicKey",
          "type": "bytes32"
        },
        {
          "internalType": "bytes",
          "name": "signature",
          "type": "bytes"
        },
        {
          "internalType": "string",
          "name": "issuedBy",
          "type": "string"
        },
        {
          "internalType": "string",
          "name": "eventName",
          "type": "string"
        },
        {
          "internalType": "uint256",
          "name": "rank",
          "type": "uint256"
        }
      ],
      "stateMutability": "view",
      "type": "function"
    },
    {
      "inputs": [
        {
          "internalType": "uint256",
          "name": "",
          "type": "uint256"
        },
        {
          "internalType": "uint256",
          "name": "",
          "type": "uint256"
        }
      ],
      "name": "certificatesByYear",
      "outputs": [
        {
          "internalType": "uint256",
          "name": "",
          "type": "uint256"
        }
      ],
      "stateMutability": "view",
      "type": "function"
    },
    {
      "inputs": [
        {
          "internalType": "address",
          "name": "_universityAddress",
          "type": "address"
        }
      ],
      "name": "getAllStudentsInUniversity",
      "outputs": [
        {
          "components": [
            {
              "internalType": "address",
              "name": "studentPublicKey",
              "type": "address"
            },
            {
              "internalType": "string",
              "name": "name",
              "type": "string"
            },
            {
              "internalType": "string",
              "name": "course",
              "type": "string"
            },
            {
              "internalType": "uint16",
              "name": "yearOfJoining",
              "type": "uint16"
            },
            {
              "internalType": "uint16",
              "name": "yearOfPassing",
              "type": "uint16"
            },
            {
              "internalType": "bool",
              "name": "registered",
              "type": "bool"
            }
          ],
          "internalType": "struct StudentRegistry.Student[]",
          "name": "",
          "type": "tuple[]"
        }
      ],
      "stateMutability": "view",
      "type": "function"
    },
    {
      "inputs": [],
      "name": "getAllUniversityAddrs",
      "outputs": [
        {
          "internalType": "address[]",
          "name": "",
          "type": "address[]"
        }
      ],
      "stateMutability": "view",
      "type": "function"
    },
    {
      "inputs": [
        {
          "internalType": "address",
          "name": "user",
          "type": "address"
        }
      ],
      "name": "getApprovalId",
      "outputs": [
        {
          "internalType": "uint256",
          "name": "",
          "type": "uint256"
        }
      ],
      "stateMutability": "view",
      "type": "function"
    },
    {
      "inputs": [
        {
          "internalType": "uint256",
          "name": "tokenId",
          "type": "uint256"
        }
      ],
      "name": "getApproved",
      "outputs": [
        {
          "internalType": "address",
          "name": "",
          "type": "address"
        }
      ],
      "stateMutability": "view",
      "type": "function"
    },
    {
      "inputs": [
        {
          "internalType": "address",
          "name": "_universityAddress",
          "type": "address"
        }
      ],
      "name": "getNotRegisteredStudents",
      "outputs": [
        {
          "internalType": "address[]",
          "name": "",
          "type": "address[]"
        }
      ],
      "stateMutability": "view",
      "type": "function"
    },
    {
      "inputs": [
        {
          "internalType": "address",
          "name": "user",
          "type": "address"
        }
      ],
      "name": "getStudent",
      "outputs": [
        {
          "components": [
            {
              "internalType": "address",
              "name": "studentPublicKey",
              "type": "address"
            },
            {
              "internalType": "string",
              "name": "name",
              "type": "string"
            },
            {
              "internalType": "string",
              "name": "course",
              "type": "string"
            },
            {
              "internalType": "uint16",
              "name": "yearOfJoining",
              "type": "uint16"
            },
            {
              "internalType": "uint16",
              "name": "yearOfPassing",
              "type": "uint16"
            },
            {
              "internalType": "bool",
              "name": "registered",
              "type": "bool"
            }
          ],
          "internalType": "struct StudentRegistry.Student",
          "name": "",
          "type": "tuple"
        }
      ],
      "stateMutability": "view",
      "type": "function"
    },
    {
      "inputs": [
        {
          "internalType": "address",
          "name": "_university",
          "type": "address"
        },
        {
          "internalType": "address",
          "name": "_student",
          "type": "address"
        }
      ],
      "name": "getStudentuni",
      "outputs": [
        {
          "internalType": "address",
          "name": "",
          "type": "address"
        }
      ],
      "stateMutability": "view",
      "type": "function"
    },
    {
      "inputs": [
        {
          "internalType": "address",
          "name": "user",
          "type": "address"
        }
      ],
      "name": "getUniversityByAdd",
      "outputs": [
        {
          "internalType": "address",
          "name": "universityAddress",
          "type": "address"
        },
        {
          "internalType": "string",
          "name": "name",
          "type": "string"
        },
        {
          "internalType": "string",
          "name": "country",
          "type": "string"
        },
        {
          "internalType": "string",
          "name": "state",
          "type": "string"
        },
        {
          "internalType": "string",
          "name": "city",
          "type": "string"
        },
        {
          "internalType": "string",
          "name": "pincode",
          "type": "string"
        },
        {
          "internalType": "string",
          "name": "studentDomain",
          "type": "string"
        }
      ],
      "stateMutability": "view",
      "type": "function"
    },
    {
      "inputs": [
        {
          "internalType": "address",
          "name": "user",
          "type": "address"
        }
      ],
      "name": "getUniversityNameByAdd",
      "outputs": [
        {
          "internalType": "string",
          "name": "name",
          "type": "string"
        }
      ],
      "stateMutability": "view",
      "type": "function"
    },
    {
      "inputs": [
        {
          "internalType": "address",
          "name": "owner",
          "type": "address"
        },
        {
          "internalType": "address",
          "name": "operator",
          "type": "address"
        }
      ],
      "name": "isApprovedForAll",
      "outputs": [
        {
          "internalType": "bool",
          "name": "",
          "type": "bool"
        }
      ],
      "stateMutability": "view",
      "type": "function"
    },
    {
      "inputs": [
        {
          "internalType": "address",
          "name": "user",
          "type": "address"
        }
      ],
      "name": "isregister",
      "outputs": [
        {
          "internalType": "bool",
          "name": "",
          "type": "bool"
        }
      ],
      "stateMutability": "view",
      "type": "function"
    },
    {
      "inputs": [],
      "name": "name",
      "outputs": [
        {
          "internalType": "string",
          "name": "",
          "type": "string"
        }
      ],
      "stateMutability": "view",
      "type": "function"
    },
    {
      "inputs": [],
      "name": "owner",
      "outputs": [
        {
          "internalType": "address",
          "name": "",
          "type": "address"
        }
      ],
      "stateMutability": "view",
      "type": "function"
    },
    {
      "inputs": [
        {
          "internalType": "uint256",
          "name": "tokenId",
          "type": "uint256"
        }
      ],
      "name": "ownerOf",
      "outputs": [
        {
          "internalType": "address",
          "name": "",
          "type": "address"
        }
      ],
      "stateMutability": "view",
      "type": "function"
    },
    {
      "inputs": [
        {
          "internalType": "address",
          "name": "user",
          "type": "address"
        },
        {
          "internalType": "address",
          "name": "univadd",
          "type": "address"
        },
        {
          "internalType": "bytes32",
          "name": "_publicKey",
          "type": "bytes32"
        },
        {
          "internalType": "string",
          "name": "_name",
          "type": "string"
        },
        {
          "internalType": "string",
          "name": "_course",
          "type": "string"
        },
        {
          "internalType": "uint16",
          "name": "_yearOfJoining",
          "type": "uint16"
        },
        {
          "internalType": "uint16",
          "name": "_yearOfPassing",
          "type": "uint16"
        }
      ],
      "name": "registerStudent",
      "outputs": [],
      "stateMutability": "nonpayable",
      "type": "function"
    },
    {
      "inputs": [
        {
          "internalType": "address",
          "name": "user",
          "type": "address"
        },
        {
          "internalType": "string",
          "name": "_name",
          "type": "string"
        },
        {
          "internalType": "string",
          "name": "_country",
          "type": "string"
        },
        {
          "internalType": "string",
          "name": "_state",
          "type": "string"
        },
        {
          "internalType": "string",
          "name": "_city",
          "type": "string"
        },
        {
          "internalType": "string",
          "name": "_pincode",
          "type": "string"
        },
        {
          "internalType": "string",
          "name": "_studentDomain",
          "type": "string"
        },
        {
          "internalType": "bytes32",
          "name": "_publicKey",
          "type": "bytes32"
        }
      ],
      "name": "registerUniversity",
      "outputs": [],
      "stateMutability": "nonpayable",
      "type": "function"
    },
    {
      "inputs": [],
      "name": "renounceOwnership",
      "outputs": [],
      "stateMutability": "nonpayable",
      "type": "function"
    },
    {
      "inputs": [
        {
          "internalType": "address",
          "name": "from",
          "type": "address"
        },
        {
          "internalType": "address",
          "name": "to",
          "type": "address"
        },
        {
          "internalType": "uint256",
          "name": "tokenId",
          "type": "uint256"
        }
      ],
      "name": "safeTransferFrom",
      "outputs": [],
      "stateMutability": "nonpayable",
      "type": "function"
    },
    {
      "inputs": [
        {
          "internalType": "address",
          "name": "from",
          "type": "address"
        },
        {
          "internalType": "address",
          "name": "to",
          "type": "address"
        },
        {
          "internalType": "uint256",
          "name": "tokenId",
          "type": "uint256"
        },
        {
          "internalType": "bytes",
          "name": "data",
          "type": "bytes"
        }
      ],
      "name": "safeTransferFrom",
      "outputs": [],
      "stateMutability": "nonpayable",
      "type": "function"
    },
    {
      "inputs": [
        {
          "internalType": "address",
          "name": "operator",
          "type": "address"
        },
        {
          "internalType": "bool",
          "name": "approved",
          "type": "bool"
        }
      ],
      "name": "setApprovalForAll",
      "outputs": [],
      "stateMutability": "nonpayable",
      "type": "function"
    },
    {
      "inputs": [
        {
          "internalType": "address",
          "name": "",
          "type": "address"
        }
      ],
      "name": "studentApprovalIds",
      "outputs": [
        {
          "internalType": "uint256",
          "name": "",
          "type": "uint256"
        }
      ],
      "stateMutability": "view",
      "type": "function"
    },
    {
      "inputs": [
        {
          "internalType": "address",
          "name": "",
          "type": "address"
        },
        {
          "internalType": "uint256",
          "name": "",
          "type": "uint256"
        }
      ],
      "name": "studentCertificates",
      "outputs": [
        {
          "internalType": "uint256",
          "name": "",
          "type": "uint256"
        }
      ],
      "stateMutability": "view",
      "type": "function"
    },
    {
      "inputs": [
        {
          "internalType": "address",
          "name": "",
          "type": "address"
        },
        {
          "internalType": "uint256",
          "name": "",
          "type": "uint256"
        }
      ],
      "name": "studentDegree",
      "outputs": [
        {
          "internalType": "uint256",
          "name": "",
          "type": "uint256"
        }
      ],
      "stateMutability": "view",
      "type": "function"
    },
    {
      "inputs": [
        {
          "internalType": "address",
          "name": "",
          "type": "address"
        }
      ],
      "name": "students",
      "outputs": [
        {
          "internalType": "address",
          "name": "studentPublicKey",
          "type": "address"
        },
        {
          "internalType": "string",
          "name": "name",
          "type": "string"
        },
        {
          "internalType": "string",
          "name": "course",
          "type": "string"
        },
        {
          "internalType": "uint16",
          "name": "yearOfJoining",
          "type": "uint16"
        },
        {
          "internalType": "uint16",
          "name": "yearOfPassing",
          "type": "uint16"
        },
        {
          "internalType": "bool",
          "name": "registered",
          "type": "bool"
        }
      ],
      "stateMutability": "view",
      "type": "function"
    },
    {
      "inputs": [
        {
          "internalType": "bytes4",
          "name": "interfaceId",
          "type": "bytes4"
        }
      ],
      "name": "supportsInterface",
      "outputs": [
        {
          "internalType": "bool",
          "name": "",
          "type": "bool"
        }
      ],
      "stateMutability": "view",
      "type": "function"
    },
    {
      "inputs": [],
      "name": "symbol",
      "outputs": [
        {
          "internalType": "string",
          "name": "",
          "type": "string"
        }
      ],
      "stateMutability": "view",
      "type": "function"
    },
    {
      "inputs": [
        {
          "internalType": "uint256",
          "name": "tokenId",
          "type": "uint256"
        }
      ],
      "name": "tokenURI",
      "outputs": [
        {
          "internalType": "string",
          "name": "",
          "type": "string"
        }
      ],
      "stateMutability": "view",
      "type": "function"
    },
    {
      "inputs": [
        {
          "internalType": "address",
          "name": "from",
          "type": "address"
        },
        {
          "internalType": "address",
          "name": "to",
          "type": "address"
        },
        {
          "internalType": "uint256",
          "name": "tokenId",
          "type": "uint256"
        }
      ],
      "name": "transferFrom",
      "outputs": [],
      "stateMutability": "nonpayable",
      "type": "function"
    },
    {
      "inputs": [
        {
          "internalType": "address",
          "name": "newOwner",
          "type": "address"
        }
      ],
      "name": "transferOwnership",
      "outputs": [],
      "stateMutability": "nonpayable",
      "type": "function"
    },
    {
      "inputs": [
        {
          "internalType": "address",
          "name": "",
          "type": "address"
        }
      ],
      "name": "universities",
      "outputs": [
        {
          "internalType": "address",
          "name": "universityAddress",
          "type": "address"
        },
        {
          "internalType": "string",
          "name": "name",
          "type": "string"
        },
        {
          "components": [
            {
              "internalType": "string",
              "name": "country",
              "type": "string"
            },
            {
              "internalType": "string",
              "name": "state",
              "type": "string"
            },
            {
              "internalType": "string",
              "name": "city",
              "type": "string"
            },
            {
              "internalType": "string",
              "name": "pincode",
              "type": "string"
            }
          ],
          "internalType": "struct UniversityRegistryy.Location",
          "name": "location",
          "type": "tuple"
        },
        {
          "internalType": "string",
          "name": "studentDomain",
          "type": "string"
        },
        {
          "internalType": "bytes32",
          "name": "publicKey",
          "type": "bytes32"
        },
        {
          "internalType": "bool",
          "name": "res",
          "type": "bool"
        }
      ],
      "stateMutability": "view",
      "type": "function"
    },
    {
      "inputs": [
        {
          "internalType": "bytes32",
          "name": "",
          "type": "bytes32"
        },
        {
          "internalType": "uint256",
          "name": "",
          "type": "uint256"
        }
      ],
      "name": "universityCertificates",
      "outputs": [
        {
          "internalType": "uint256",
          "name": "",
          "type": "uint256"
        }
      ],
      "stateMutability": "view",
      "type": "function"
    },
    {
      "inputs": [
        {
          "internalType": "bytes32",
          "name": "",
          "type": "bytes32"
        },
        {
          "internalType": "uint256",
          "name": "",
          "type": "uint256"
        }
      ],
      "name": "universityDegree",
      "outputs": [
        {
          "internalType": "uint256",
          "name": "",
          "type": "uint256"
        }
      ],
      "stateMutability": "view",
      "type": "function"
    },
    {
      "inputs": [
        {
          "internalType": "uint256",
          "name": "",
          "type": "uint256"
        }
      ],
      "name": "universityPublicKeys",
      "outputs": [
        {
          "internalType": "address",
          "name": "",
          "type": "address"
        }
      ],
      "stateMutability": "view",
      "type": "function"
    },
    {
      "inputs": [
        {
          "internalType": "address",
          "name": "",
          "type": "address"
        },
        {
          "internalType": "uint256",
          "name": "",
          "type": "uint256"
        }
      ],
      "name": "universityStudentList",
      "outputs": [
        {
          "internalType": "address",
          "name": "",
          "type": "address"
        }
      ],
      "stateMutability": "view",
      "type": "function"
    },
    {
      "inputs": [
        {
          "internalType": "address",
          "name": "",
          "type": "address"
        },
        {
          "internalType": "address",
          "name": "",
          "type": "address"
        }
      ],
      "name": "universityStudents",
      "outputs": [
        {
          "internalType": "address",
          "name": "studentPublicKey",
          "type": "address"
        },
        {
          "internalType": "string",
          "name": "name",
          "type": "string"
        },
        {
          "internalType": "string",
          "name": "course",
          "type": "string"
        },
        {
          "internalType": "uint16",
          "name": "yearOfJoining",
          "type": "uint16"
        },
        {
          "internalType": "uint16",
          "name": "yearOfPassing",
          "type": "uint16"
        },
        {
          "internalType": "bool",
          "name": "registered",
          "type": "bool"
        }
      ],
      "stateMutability": "view",
      "type": "function"
    },
    {
      "inputs": [
        {
          "internalType": "address",
          "name": "user",
          "type": "address"
        },
        {
          "internalType": "address",
          "name": "_studentAddress",
          "type": "address"
        },
        {
          "internalType": "string",
          "name": "_studentName",
          "type": "string"
        },
        {
          "internalType": "string",
          "name": "_certificateType",
          "type": "string"
        },
        {
          "internalType": "string",
          "name": "_dateOfIssue",
          "type": "string"
        },
        {
          "internalType": "bytes32",
          "name": "_studentPublicKey",
          "type": "bytes32"
        },
        {
          "internalType": "bytes32",
          "name": "_universityPublicKey",
          "type": "bytes32"
        },
        {
          "internalType": "string",
          "name": "_tokenURI",
          "type": "string"
        },
        {
          "internalType": "bytes",
          "name": "_signature",
          "type": "bytes"
        },
        {
          "internalType": "bytes32",
          "name": "messageHash",
          "type": "bytes32"
        },
        {
          "internalType": "string",
          "name": "_issuedBy",
          "type": "string"
        },
        {
          "internalType": "string",
          "name": "_eventName",
          "type": "string"
        },
        {
          "internalType": "uint256",
          "name": "_rank",
          "type": "uint256"
        }
      ],
      "name": "issueCertificate",
      "outputs": [
        {
          "internalType": "uint256",
          "name": "",
          "type": "uint256"
        }
      ],
      "stateMutability": "nonpayable",
      "type": "function"
    },
    {
      "inputs": [
        {
          "internalType": "address",
          "name": "_uniadd",
          "type": "address"
        },
        {
          "internalType": "uint256",
          "name": "_year",
          "type": "uint256"
        }
      ],
      "name": "getCertificatesByUniversityAndYear",
      "outputs": [
        {
          "internalType": "uint256[]",
          "name": "",
          "type": "uint256[]"
        }
      ],
      "stateMutability": "view",
      "type": "function"
    },
    {
      "inputs": [
        {
          "internalType": "uint256",
          "name": "year",
          "type": "uint256"
        }
      ],
      "name": "getCertificatesByYear",
      "outputs": [
        {
          "components": [
            {
              "internalType": "uint256",
              "name": "certificateId",
              "type": "uint256"
            },
            {
              "internalType": "string",
              "name": "studentName",
              "type": "string"
            },
            {
              "internalType": "address",
              "name": "studentAddress",
              "type": "address"
            },
            {
              "internalType": "address",
              "name": "universityAddress",
              "type": "address"
            },
            {
              "internalType": "string",
              "name": "certificateType",
              "type": "string"
            },
            {
              "internalType": "string",
              "name": "dateOfIssue",
              "type": "string"
            },
            {
              "internalType": "bytes32",
              "name": "studentPublicKey",
              "type": "bytes32"
            },
            {
              "internalType": "bytes32",
              "name": "universityPublicKey",
              "type": "bytes32"
            },
            {
              "internalType": "string",
              "name": "issuedBy",
              "type": "string"
            },
            {
              "internalType": "string",
              "name": "eventName",
              "type": "string"
            },
            {
              "internalType": "uint256",
              "name": "rank",
              "type": "uint256"
            }
          ],
          "internalType": "struct Certificates.CertificateInfo[]",
          "name": "",
          "type": "tuple[]"
        }
      ],
      "stateMutability": "view",
      "type": "function"
    },
    {
      "inputs": [
        {
          "internalType": "bytes",
          "name": "_signature",
          "type": "bytes"
        },
        {
          "internalType": "bytes32",
          "name": "messageHash",
          "type": "bytes32"
        },
        {
          "internalType": "uint256",
          "name": "_certificateId",
          "type": "uint256"
        },
        {
          "internalType": "address",
          "name": "user",
          "type": "address"
        }
      ],
      "name": "verifyCertificate",
      "outputs": [
        {
          "internalType": "bool",
          "name": "",
          "type": "bool"
        }
      ],
      "stateMutability": "view",
      "type": "function"
    },
    {
      "inputs": [
        {
          "internalType": "uint256",
          "name": "certificateId",
          "type": "uint256"
        }
      ],
      "name": "getCertificateById",
      "outputs": [
        {
          "internalType": "string",
          "name": "studentName",
          "type": "string"
        },
        {
          "internalType": "address",
          "name": "studentAddress",
          "type": "address"
        },
        {
          "internalType": "address",
          "name": "universityAddress",
          "type": "address"
        },
        {
          "internalType": "string",
          "name": "certificateType",
          "type": "string"
        },
        {
          "internalType": "string",
          "name": "dateOfIssue",
          "type": "string"
        },
        {
          "internalType": "bytes32",
          "name": "studentPublicKey",
          "type": "bytes32"
        },
        {
          "internalType": "bytes32",
          "name": "universityPublicKey",
          "type": "bytes32"
        },
        {
          "internalType": "bytes",
          "name": "signature",
          "type": "bytes"
        },
        {
          "internalType": "string",
          "name": "issuedBy",
          "type": "string"
        },
        {
          "internalType": "string",
          "name": "eventName",
          "type": "string"
        },
        {
          "internalType": "uint256",
          "name": "rank",
          "type": "uint256"
        }
      ],
      "stateMutability": "view",
      "type": "function"
    },
    {
      "inputs": [
        {
          "internalType": "address",
          "name": "studentAddress",
          "type": "address"
        }
      ],
      "name": "getCertificatesByStudent",
      "outputs": [
        {
          "components": [
            {
              "internalType": "uint256",
              "name": "certificateId",
              "type": "uint256"
            },
            {
              "internalType": "string",
              "name": "studentName",
              "type": "string"
            },
            {
              "internalType": "address",
              "name": "studentAddress",
              "type": "address"
            },
            {
              "internalType": "address",
              "name": "universityAddress",
              "type": "address"
            },
            {
              "internalType": "string",
              "name": "certificateType",
              "type": "string"
            },
            {
              "internalType": "string",
              "name": "dateOfIssue",
              "type": "string"
            },
            {
              "internalType": "bytes32",
              "name": "studentPublicKey",
              "type": "bytes32"
            },
            {
              "internalType": "bytes32",
              "name": "universityPublicKey",
              "type": "bytes32"
            },
            {
              "internalType": "string",
              "name": "issuedBy",
              "type": "string"
            },
            {
              "internalType": "string",
              "name": "eventName",
              "type": "string"
            },
            {
              "internalType": "uint256",
              "name": "rank",
              "type": "uint256"
            }
          ],
          "internalType": "struct Certificates.CertificateInfo[]",
          "name": "",
          "type": "tuple[]"
        }
      ],
      "stateMutability": "view",
      "type": "function"
    },
    {
      "inputs": [
        {
          "internalType": "address",
          "name": "user",
          "type": "address"
        }
      ],
      "name": "getTokenURIsByAddress",
      "outputs": [
        {
          "internalType": "string[]",
          "name": "",
          "type": "string[]"
        }
      ],
      "stateMutability": "view",
      "type": "function"
    },
    {
      "inputs": [
        {
          "internalType": "bytes32",
          "name": "_universityPublicKey",
          "type": "bytes32"
        }
      ],
      "name": "getCertificatesByUniversity",
      "outputs": [
        {
          "components": [
            {
              "internalType": "uint256",
              "name": "certificateId",
              "type": "uint256"
            },
            {
              "internalType": "string",
              "name": "studentName",
              "type": "string"
            },
            {
              "internalType": "address",
              "name": "studentAddress",
              "type": "address"
            },
            {
              "internalType": "address",
              "name": "universityAddress",
              "type": "address"
            },
            {
              "internalType": "string",
              "name": "certificateType",
              "type": "string"
            },
            {
              "internalType": "string",
              "name": "dateOfIssue",
              "type": "string"
            },
            {
              "internalType": "bytes32",
              "name": "studentPublicKey",
              "type": "bytes32"
            },
            {
              "internalType": "bytes32",
              "name": "universityPublicKey",
              "type": "bytes32"
            },
            {
              "internalType": "string",
              "name": "issuedBy",
              "type": "string"
            },
            {
              "internalType": "string",
              "name": "eventName",
              "type": "string"
            },
            {
              "internalType": "uint256",
              "name": "rank",
              "type": "uint256"
            }
          ],
          "internalType": "struct Certificates.CertificateInfo[]",
          "name": "",
          "type": "tuple[]"
        }
      ],
      "stateMutability": "view",
      "type": "function"
    }
  ],
  "bytecode": "0x6080346200036c576001600160401b039060408181018381118382101762000356578152601582526020917f556e69766572736974794365727469666963617465000000000000000000000083820152815193828501858110828211176200035657835260058552641550d1549560da1b84860152815181811162000356576000948554916001948584811c941680156200034b575b8385101462000337578190601f94858111620002e4575b5083908583116001146200028057899262000274575b5050600019600383901b1c191690851b1786555b8651928311620002605783548481811c9116801562000255575b828210146200024157828111620001f9575b50809183116001146200019257508495829394959262000186575b5050600019600383901b1c191690821b1790555b60078054336001600160a01b03198216811790925591519290916001600160a01b0316907f8be0079c531659141344cd1fd0a4f28419497f9722a3daafe3b4186f6b6457e09080a3614d299081620003728239f35b0151905038806200011d565b90601f198316968487528287209287905b898210620001e1575050838596979810620001c7575b505050811b01905562000131565b015160001960f88460031b161c19169055388080620001b9565b808785968294968601518155019501930190620001a3565b8487528187208380860160051c82019284871062000237575b0160051c019085905b8281106200022b57505062000102565b8881550185906200021b565b9250819262000212565b634e487b7160e01b87526022600452602487fd5b90607f1690620000f0565b634e487b7160e01b86526041600452602486fd5b015190503880620000c2565b898052848a208894509190601f1984168b5b87828210620002cd5750508411620002b3575b505050811b018655620000d6565b015160001960f88460031b161c19169055388080620002a5565b8385015186558b9790950194938401930162000292565b9091508880528389208580850160051c8201928686106200032d575b918991869594930160051c01915b8281106200031e575050620000ac565b8b81558594508991016200030e565b9250819262000300565b634e487b7160e01b88526022600452602488fd5b93607f169362000095565b634e487b7160e01b600052604160045260246000fd5b600080fdfe608080604052600436101561001357600080fd5b60003560e01c90816301ffc9a714613c855750806306fdde0314613be2578063081812fc14613bc4578063095ea7b314613a4a5780630c74c3881461398f578063148dcd3014610fbf5780631b964a9b146138415780631bb2f1111461381057806323b872dd146137ec57806325a1b558146137575780633c96d385146136c257806342842e0e1461368f57806349393ba7146135ca57806351766af9146135685780636352211e14613538578063663b3e221461346257806367764b26146134445780636b7b44d71461338e57806370a08231146132f7578063715018a61461329a5780637ddddd1a14612a635780638248079c14612a085780638a789f3f14611e685780638da5cb5b14611e3f57806395d89b4114611d745780639861a3e214611d435780639d735caf14611bc35780639e5d744d14611a7d578063a22cb465146119a2578063a51e2dbe14611949578063a6c807a9146118bc578063ae0f820d14611883578063b88d4fde1461180d578063b926dc3e146116c7578063ba606dae14610ff9578063c033c6bf14610fbf578063c3934f0e14610f75578063c87b56dd14610f42578063d01cd50414610d03578063d545973314610a85578063de764634146109cc578063e509d6cf1461093c578063e6955bb8146108e4578063e985e9c51461088e578063ea0925181461064e578063f099556014610530578063f2fde38b1461046c578063f563f33f1461040c5763feff68121461023a57600080fd5b3461040757606036600319011261040757610253613d4a565b6001600160a01b036044358181169260243592909184900361040757836000526020916008835260ff60086040600020015416156103b457169283600052600a825282604060002054036103795783600052600e825260ff600360406000200154831c16610334579160016040927fd287853cda8eb90f3697f47f8948414b47fe30f1f1bb0b37a46e9431fc536cf89486600052600e825260038560002001906401000000009064ff0000000019928284825416179055600052601183528560002088600052835260038660002001918254161790558351928352820152a2005b60405162461bcd60e51b815260048101839052601d60248201527f53747564656e7420697320616c726561647920726567697374657265640000006044820152606490fd5b60405162461bcd60e51b8152600481018390526013602482015272125b9d985b1a5908185c1c1c9bdd985b081251606a1b6044820152606490fd5b60405162461bcd60e51b815260048101849052602560248201527f43616c6c6572206973206e6f742061207265676973746572656420756e697665604482015264727369747960d81b6064820152608490fd5b600080fd5b34610407576020366003190112610407576001600160a01b0361044a81610431613d4a565b169182600052600e602052604060002054161515614c7d565b600052600e602052602060ff600360406000200154821c166040519015158152f35b3461040757602036600319011261040757610485613d4a565b61048d6142a8565b6001600160a01b039081169081156104dc57600754826001600160601b0360a01b821617600755167f8be0079c531659141344cd1fd0a4f28419497f9722a3daafe3b4186f6b6457e0600080a3005b60405162461bcd60e51b815260206004820152602660248201527f4f776e61626c653a206e6577206f776e657220697320746865207a65726f206160448201526564647265737360d01b6064820152608490fd5b34610407576020366003190112610407576001600160a01b0380610552613d4a565b16600052600860205260406000209081541660405191610580836105798160018501614011565b0384613de3565b61058c6002820161423c565b61063d6040516105aa816105a38160068801614011565b0382613de3565b61062f60ff6008600787015496015416936105d7604051988998895260c060208a015260c0890190613d0a565b8781036040890152606061061e61060c6105fa8551608086526080860190613d0a565b60208601518582036020870152613d0a565b60408501518482036040860152613d0a565b920151906060818403910152613d0a565b908582036060870152613d0a565b916080840152151560a08301520390f35b34610407576020366003190112610407576001600160a01b0361066f613d4a565b16600052600f60205260406000206040518082602082945493848152019060005260206000209260005b8181106108755750506106ae92500382613de3565b6106b88151614b94565b9060005b815181101561086357806106d361085e9284614b6f565b518060005260136020526040600020604051906106ef82613d76565b604051610700816105a38185614011565b825260018101546001600160a01b03908116602084015260028201541660408084019190915251610738816105a38160038601614011565b6060830152604051610751816105a38160048601614011565b6080830152600581015460a0830152600681015460c083015260405161077e816105a38160078601614011565b60e0830152604051610797816105a38160088601614011565b610100830152600a604051916107b4836105798160098501614011565b826101208501520154918261014082015280519060018060a01b0360208201511660018060a01b03604083015116606083015160808401519160a08501519361010060c0870151960151966040519a61080c8c613d76565b8b5260208b015260408a01526060890152608088015260a087015260c086015260e085015261010084015261012083015261014082015261084d8286614b6f565b526108588185614b6f565b50614861565b6106bc565b604051806108718582613ec9565b0390f35b8454835260019485019486945060209093019201610699565b34610407576040366003190112610407576108a7613d4a565b6108af613d60565b9060018060a01b03809116600052600560205260406000209116600052602052602060ff604060002054166040519015158152f35b34610407576040366003190112610407576108fd613d4a565b6001600160a01b03166000908152601060205260409020805460243591908210156104075760209161092e91613e7c565b90546040519160031b1c8152f35b3461040757600036600319011261040757604051806009549182815260208091019260096000527f6e1540171b6c0c960b71a7020d9f60077f6af931a8bbf590da0223dacf75c7af916000905b8282106109ac57610871856109a081890382613de3565b604051918291826141f8565b83546001600160a01b031686529485019460019384019390910190610989565b346104075760403660031901126104075760206109e7613d4a565b6109ef613d60565b60018060a01b038092166000526011835281604060002091166000528252604060002060ff600360405192610a2384613d92565b848154168452604051610a3d816105a38160018601614011565b86850152604051610a55816105a38160028601614011565b6040850152015461ffff80821660608501528160101c166080840152841c16151560a08201525116604051908152f35b3461040757602080600319360112610407576001600160a01b0380610aa8613d4a565b168060005260088352610ac382604060002054161515614c7d565b600052600b8252604060002091604051808483829654938481520190600052836000209260005b85828210610ceb57505050610b0192500384613de3565b60009060005b8451811015610b5a5783610b1b8287614b6f565b5116600052600e825260ff600360406000200154831c16610b45575b610b4090614861565b610b07565b91610b52610b4091614861565b929050610b37565b5090610b6581614b26565b90610b736040519283613de3565b808252610b82601f1991614b26565b018260005b828110610cd55750505060009060005b8551811015610c775784610bab8288614b6f565b5116600052600e80855260ff600391818360406000200154881c16610bdc575b505050610bd790614861565b610b97565b91839591610c6e9389610bf2610bd7978d614b6f565b5116600052885260406000209160405192610c0c84613d92565b8a8154168452604051610c26816105a38160018601614011565b8a850152604051610c3e816105a38160028601614011565b6040850152015461ffff80821660608501528160101c166080840152881c16151560a082015261084d8286614b6f565b92908780610bcb565b604080518581528351818701819052600092600582901b830181019186890191899085015b828710610ca95785850386f35b909192938280610cc5600193603f198a82030186528851614195565b9601920196019592919092610c9c565b610cdd614cc0565b828286010152018390610b87565b85548816845260019586019589955093019201610aea565b3461040757604036600319011261040757610d1c613d4a565b60243560005260209060148252604060002091604051808483829654938481520190600052836000209260005b85828210610f2c57505050610d6092500384613de3565b610d6a8351614b3d565b6001600160a01b039290916000918416825b8651811015610eac57610d8f8188614b6f565b51806000526013845282876040600020604051610dab81613d76565b604051610dbc816105a38186614011565b81528260018301541688820152610140600a846002850154169360408401948552604051610df1816105a38160038601614011565b6060850152604051610e0a816105a38160048601614011565b6080850152600581015460a0850152600681015460c0850152604051610e37816105a38160078601614011565b60e0850152604051610e50816105a38160088601614011565b610100850152604051610e6a816105a38160098601614011565b6101208501520154910152511614610e8c575b50610e8790614861565b610d7c565b84610ea591610e9f610e87949789614b6f565b52614861565b9390610e7d565b50509091610eb983614b3d565b9260005b818110610f09575050506040519181839283018184528251809152816040850193019160005b828110610ef257505050500390f35b835185528695509381019392810192600101610ee3565b80610f19610f2492859795614b6f565b51610e9f8286614b6f565b939193610ebd565b8554845260019586019589955093019201610d49565b3461040757602036600319011261040757610871610f6160043561480d565b604051918291602083526020830190613d0a565b3461040757604036600319011261040757610f8e613d4a565b6001600160a01b03166000908152600f60205260409020805460243591908210156104075760209161092e91613e7c565b34610407576020366003190112610407576001600160a01b03610fe0613d4a565b16600052600a6020526020604060002054604051908152f35b346104075760e036600319011261040757611012613d4a565b61101a613d60565b906064356001600160401b0381116104075761103a903690600401613e1f565b906084356001600160401b0381116104075761105a903690600401613e1f565b9260a43561ffff811681036104075760c43561ffff811681036104075760018060a01b038316600052600860205261109c60ff60086040600020015416614c7d565b6040516110a881613d92565b6001600160a01b03858116808352602080840189815260408086018c905261ffff888116606088015287166080870152600060a08701819052938452600e9092529120835181546001600160a01b0319169316929092178255518051919291906001600160401b0382116114ad578190611132826111296001880154613fd7565b60018801614870565b602090601f83116001146116555760009261164a575b50508160011b916000199060031b1c19161760018301555b60408101518051906001600160401b0382116114ad57611190826111876002870154613fd7565b60028701614870565b602090601f83116001146115ce5761121a938361ffff97969460039460a0946000926115c3575b50508160011b9160001990861b1c19161760028501555b86606082015116838501549063ffff0000608084015160101b169163ffffffff19161717838501550151151591019064ff00000000825491151560201b169064ff000000001916179055565b816040519361122885613d92565b6001600160a01b0387811680875260208088018b81526040808a018e9052959094166060890152959094166080870152600060a08701819052878216815260118652838120948152939094529120835181546001600160a01b0319169316929092178255518051906001600160401b0382116114ad5781906112ba826112b16001870154613fd7565b60018701614870565b602090601f831160011461155157600092611546575b50508160011b916000199060031b1c19161760018201555b60408201518051906001600160401b0382116114ad576113188261130f6002860154613fd7565b60028601614870565b602090601f83116001146114ce57928260a09360039361139b97966000926114c3575b50508160011b9160001990851b1c19161760028201555b019161ffff60608201511683549063ffff0000608084015160101b169163ffffffff1916171783550151151564ff00000000825491151560201b169064ff000000001916179055565b6001600160a01b03166000908152600b6020526040902080549390600160401b8510156114ad57846113f39160017f67857a7e83f99a32bd4dba6bed796c2a6a07c0de06ef7ef5985ab49ad56e77bd97018155613e7c565b81549060031b9060018060a01b038516821b9160018060a01b03901b19161790556114a2670de0b6b3a764000060405160208101906001600160601b03198660601b16825242603482015260443560548201526054815261145381613dad565b519020069160018060a01b038416600052600a6020528260406000205561149460405195869560018060a01b03168652608060208701526080860190613d0a565b908482036040860152613d0a565b9060608301520390a1005b634e487b7160e01b600052604160045260246000fd5b015190508b8061133b565b906002840160005260206000209160005b601f198516811061152e57508360039361139b97969360019360a097601f19811610611516575b505050811b016002820155611352565b015160001983871b60f8161c191690558b8080611506565b919260206001819286850151815501940192016114df565b0151905088806112d0565b9250600184016000526020600020906000935b601f19841685106115a8576001945083601f1981161061158f575b505050811b0160018201556112e8565b015160001960f88460031b161c1916905588808061157f565b81810151835560209485019460019093019290910190611564565b015190508e806111b7565b906002850160005260206000209160005b601f198516811061163257509360018460039460a09461121a9861ffff9b9a98601f1981161061161a575b505050811b0160028501556111ce565b015160001983881b60f8161c191690558e808061160a565b919260206001819286850151815501940192016115df565b015190508a80611148565b9250600185016000526020600020906000935b601f19841685106116ac576001945083601f19811610611693575b505050811b016001830155611160565b015160001960f88460031b161c191690558a8080611683565b81810151835560209485019460019093019290910190611668565b3461040757602080600319360112610407576001600160a01b0390816116eb613d4a565b16806000526008825261170683604060002054161515614c7d565b600052600b8152604060002090604051808383829554938481520190600052836000209260005b858282106117f55750505061174492500383613de3565b61174e8251614b3d565b9060009060005b84518110156117b057856117698287614b6f565b511680600052600e835260ff600360406000200154841c1615611796575b5061179190614861565b611755565b836117a991610e9f611791949688614b6f565b9290611787565b5050836117bc82614b3d565b9260005b8381106117d5576040518061087187826141f8565b80836117e46117f09385614b6f565b5116610e9f8288614b6f565b6117c0565b8554891684526001958601958895509301920161172d565b3461040757608036600319011261040757611826613d4a565b61182e613d60565b90606435906044356001600160401b038311610407576118819361185961187c943690600401613e1f565b9261186c6118678433614489565b6143b0565b611877838383614551565b614782565b614465565b005b34610407576040366003190112610407576024356004356000526014602052604060002080548210156104075760209161092e91613e7c565b34610407576020366003190112610407576001600160a01b03806118de613d4a565b16600052600e60205260406000209081541690610871604051611908816105a38160018701614011565b6003604051936119268561191f8160028501614011565b0386613de3565b015460405194859461ffff9360ff8460201c1694808560101c16941692876140a7565b3461040757604036600319011261040757611962613d4a565b6024359060018060a01b03809116600052600b602052604060002080548310156104075760209261199291613e7c565b9190546040519260031b1c168152f35b34610407576040366003190112610407576119bb613d4a565b6024359081151590818303610407576001600160a01b031691338314611a3857611a0a9033600052600560205260406000208460005260205260406000209060ff801983541691151516179055565b6040519081527f17307eab39ab6107e8899845ad3d59bd9653f200f220920489ca2b5937696c3160203392a3005b60405162461bcd60e51b815260206004820152601960248201527f4552433732313a20617070726f766520746f2063616c6c6572000000000000006044820152606490fd5b346104075760203660031901126104075760206001600160a01b0380611aa1613d4a565b16600052600882526108716040600020611bb560405191611ac183613d92565b848154168352611ba760405195611ae687611adf8160018701614011565b0388613de3565b878501968752611af86002840161423c565b946040810195865260ff600860405195611b1987611adf8160068501614011565b6060840196875260078101546080850152015416151560a0820152611b42828251161515614c7d565b511695519351611b998151611b8b8a84015191611b7d6060604087015196015197519960e06040519e8f9e8f908152015260e08d0190613d0a565b908b820360408d0152613d0a565b9089820360608b0152613d0a565b908782036080890152613d0a565b9085820360a0870152613d0a565b9083820360c0850152613d0a565b3461040757602036600319011261040757600435600081815260026020526040902054611bff906001600160a01b03161515614c31565b614c31565b6000526013602052604060002060405190611c1982613d76565b604051611c2a816105a38185614011565b825261087160018060a01b039283600184015416926020820193845284600282015416946040830195865260405190611c7182611c6a8160038701614011565b0383613de3565b60608401918252604051611c8c816105a38160048801614011565b60808501908152600584015460a0860190815260068501549060c0870191825260405192611cc884611cc18160078b01614011565b0385613de3565b60e0880193845260405194611ceb86611ce48160088c01614011565b0387613de3565b610100890195865280600a60405199611d128b611d0b8160098501614011565b038c613de3565b8a6101208d01520154998a610140820152519b51169b5116955190519151925193519451956040519b8c9b8c6140f7565b3461040757611d5136613e66565b90600052600d602052604060002080548210156104075760209161092e91613e7c565b346104075760003660031901126104075760405160006001805490611d9882613fd7565b80855291818116908115611e185750600114611dbf575b61087184610f6181860382613de3565b600081815292507fb10e2d527612073b26eecdfd717e6a320cf44b4afac2b0732d9fcbe2b7fa0cf65b828410611e00575050508101602001610f6182611daf565b80546020858701810191909152909301928101611de8565b60ff191660208087019190915292151560051b85019092019250610f619150839050611daf565b34610407576000366003190112610407576007546040516001600160a01b039091168152602090f35b34610407576101a036600319011261040757611e82613d4a565b611e8a613d60565b6044356001600160401b03811161040757611ea9903690600401613e1f565b916064356001600160401b03811161040757611ec9903690600401613e1f565b916084356001600160401b03811161040757611ee9903690600401613e1f565b9360e4356001600160401b03811161040757611f09903690600401613e1f565b94610104356001600160401b03811161040757611f2a903690600401613e1f565b610144356001600160401b03811161040757611f4a903690600401613e1f565b90610164356001600160401b03811161040757611f6b903690600401613e1f565b92611f77601254614861565b97886012557f19457468657265756d205369676e6564204d6573736167653a0a33320000000060005261012435601c52611fc0611fb884603c600020614a5f565b919091614945565b6001600160a01b038981169116036129cf57600482511061299457604051978860408101106001600160401b0360408b0111176114ad576040890160405260048952602036818b013760005b6004811061296357506000986000905b600482106129035750506040519661203388613d76565b875260018060a01b038816602088015260018060a01b031660408701526060860152608085015260a43560a085015260c43560c085015260e08401526101008301526101208201526101843561014082015283600052601360205260406000209080518051906001600160401b0382116114ad5781906120bd826120b78754613fd7565b87614870565b602090601f83116001146128975760009261288c575b50508160011b916000199060031b1c19161782555b60208101516001830180546001600160a01b039283166001600160a01b031991821617909155604083015160028501805491909316911617905560608101518051906001600160401b0382116114ad5781906121548261214b6003880154613fd7565b60038801614870565b602090601f831160011461281a5760009261280f575b50508160011b916000199060031b1c19161760038301555b60808101518051906001600160401b0382116114ad5781906121b4826121ab6004880154613fd7565b60048801614870565b602090601f831160011461279d57600092612792575b50508160011b916000199060031b1c19161760048301555b60a0810151600583015560c0810151600683015560e08101518051906001600160401b0382116114ad5781906122288261221f6007880154613fd7565b60078801614870565b602090601f831160011461272057600092612715575b50508160011b916000199060031b1c19161760078301555b61010081015180516001600160401b0381116114ad57806008850192612286826122808654613fd7565b86614870565b602090601f83116001146126af576000926126a4575b50508160011b916000199060031b1c19161790555b61012081015180516001600160401b0381116114ad5760098401916122e0826122da8554613fd7565b85614870565b602090601f83116001146126355791806101409492600a969460009261262a575b50508160011b916000199060031b1c19161790555b015191015560405161232781613dc8565b600081526001600160a01b038216156125e6576000848152600260205260409020546123f49161187c91612367906001600160a01b031615155b156148f9565b60008681526002602052604090205461238a906001600160a01b03161515612361565b6001600160a01b0384166000818152600360209081526040808320805460010190558983526002909152812080546001600160a01b031916831790558791907fddf252ad1be2c89b69c2b068fc378daa952ba7f163c4a11628f55a4df523b3ef8180a48584614662565b6000838152600260205260409020546001600160a01b03161561258a57826000526006602052604060002084516001600160401b0381116114ad5780602096612441826122808654613fd7565b8790601f831160011461252157600092612516575b50508160011b916000199060031b1c19161790555b7ff8e1a15aba9398e019f0b49df1a4fde98ee17ae345cb5f6b5e2c27f5033e8ce784604051858152a160c435600052600c84526124ac8360406000206148c4565b60018060a01b0316600052600f83526124c98260406000206148c4565b600052601482526124de8160406000206148c4565b60405160a4358152817fe85dae35a93015f8e29d8ebd0315959bd4bbdf2117de59ee91250c0c681a1f9d8460c43593a3604051908152f35b015190508780612456565b92508360005287600020906000935b601f1984168510612571576001945083601f19811610612558575b505050811b01905561246b565b015160001960f88460031b161c1916905587808061254b565b8181015183559389019360019092019190890190612530565b60405162461bcd60e51b815260206004820152602e60248201527f45524337323155524953746f726167653a2055524920736574206f66206e6f6e60448201526d32bc34b9ba32b73a103a37b5b2b760911b6064820152608490fd5b606460405162461bcd60e51b815260206004820152602060248201527f4552433732313a206d696e7420746f20746865207a65726f20616464726573736044820152fd5b015190508b80612301565b90601f198316918460005260206000209260005b81811061268c5750926001928592600a9896610140989610612673575b505050811b019055612316565b015160001960f88460031b161c191690558b8080612666565b92936020600181928786015181550195019301612649565b01519050898061229c565b6000858152602081209350601f198516905b8181106126fd57509084600195949392106126e4575b505050811b0190556122b1565b015160001960f88460031b161c191690558980806126d7565b929360206001819287860151815501950193016126c1565b01519050888061223e565b9250600785016000526020600020906000935b601f1984168510612777576001945083601f1981161061275e575b505050811b016007830155612256565b015160001960f88460031b161c1916905588808061274e565b81810151835560209485019460019093019290910190612733565b0151905088806121ca565b9250600485016000526020600020906000935b601f19841685106127f4576001945083601f198116106127db575b505050811b0160048301556121e2565b015160001960f88460031b161c191690558880806127cb565b818101518355602094850194600190930192909101906127b0565b01519050888061216a565b9250600385016000526020600020906000935b601f1984168510612871576001945083601f19811610612858575b505050811b016003830155612182565b015160001960f88460031b161c19169055888080612848565b8181015183556020948501946001909301929091019061282d565b0151905088806120d3565b9250846000526020600020906000935b601f19841685106128e8576001945083601f198116106128cf575b505050811b0182556120e8565b015160001960f88460031b161c191690558880806128c2565b818101518355602094850194600190930192909101906128a7565b9099600a9081810291818304149015171561294d576129228b83614b83565b5160f81c602f1990808281011161294d5782010180911161294d57612947909a614861565b9061201c565b634e487b7160e01b600052601160045260246000fd5b61298f906001600160f81b031961297a8287614b83565b511660001a612989828d614b83565b53614861565b61200c565b60405162461bcd60e51b8152602060048201526013602482015272125b9d985b1a590819185d1948199bdc9b585d606a1b6044820152606490fd5b60405162461bcd60e51b8152602060048201526011602482015270496e76616c6964207369676e617475726560781b6044820152606490fd5b34610407576020366003190112610407576004356009548110156104075760096000527f6e1540171b6c0c960b71a7020d9f60077f6af931a8bbf590da0223dacf75c7af01546040516001600160a01b039091168152602090f35b346104075761010036600319011261040757612a7d613d4a565b6024356001600160401b03811161040757612a9c903690600401613e1f565b6044356001600160401b03811161040757612abb903690600401613e1f565b6064356001600160401b03811161040757612ada903690600401613e1f565b906084356001600160401b03811161040757612afa903690600401613e1f565b60a4356001600160401b03811161040757612b19903690600401613e1f565b60c4356001600160401b03811161040757612b38903690600401613e1f565b9160018060a01b039485881660005260086020528560406000205416613255578651156132195760648751116131e15760405194612b7586613dad565b855260208501526040840152606083015260405190612b9382613d92565b838616825260208201928584526040830152606082015260e4356080820152600160a08201528285166000526008602052604060002091838251166001600160601b0360a01b845416178355518051906001600160401b0382116114ad578190612c04826111296001880154613fd7565b602090601f831160011461316f57600092613164575b50508160011b916000199060031b1c19161760018301555b604081015180518051906001600160401b0382116114ad578190612c6682612c5d6002890154613fd7565b60028901614870565b602090601f83116001146130f2576000926130e7575b50508160011b916000199060031b1c19161760028401555b60208101518051906001600160401b0382116114ad578190612cc682612cbd6003890154613fd7565b60038901614870565b602090601f83116001146130755760009261306a575b50508160011b916000199060031b1c19161760038401555b60408101518051906001600160401b0382116114ad57612d1b826121ab6004880154613fd7565b602090601f8311600114612ff757606093929160009183612fec575b50508160011b916000199060031b1c19161760048501555b01518051906001600160401b0382116114ad578190612d7e82612d756005880154613fd7565b60058801614870565b602090601f8311600114612f7a57600092612f6f575b50508160011b916000199060031b1c19161760058301555b60608101518051906001600160401b0382116114ad57612ddc82612dd36006870154613fd7565b60068701614870565b602090601f8311600114612ef657928260089360a093612e389796600092612eeb575b50508160011b916000199060031b1c19161760068501555b608081015160078501550151151591019060ff801983541691151516179055565b60095490600160401b8210156114ad576001820180600955821015612ed5577f1878b98cdd20035dbb8cf5ab01bd1154cacee2b10b7852e62d60c69be1c89aa39160096000527f6e1540171b6c0c960b71a7020d9f60077f6af931a8bbf590da0223dacf75c7af018185166001600160601b0360a01b8254161790556040519360208552169280612ed060e435946020830190613d0a565b0390a3005b634e487b7160e01b600052603260045260246000fd5b015190508a80612dff565b906006850160005260206000209160005b601f1985168110612f5757508360a093612e38979693600193600897601f19811610612f3e575b505050811b016006850155612e17565b015160001960f88460031b161c191690558a8080612f2e565b91926020600181928685015181550194019201612f07565b015190508780612d94565b9250600585016000526020600020906000935b601f1984168510612fd1576001945083601f19811610612fb8575b505050811b016005830155612dac565b015160001960f88460031b161c19169055878080612fa8565b81810151835560209485019460019093019290910190612f8d565b015190508980612d37565b906004860160005260206000209160005b601f1985168110613052575091839160019360609695601f19811610613039575b505050811b016004850155612d4f565b015160001960f88460031b161c19169055898080613029565b91926020600181928685015181550194019201613008565b015190508880612cdc565b9250600386016000526020600020906000935b601f19841685106130cc576001945083601f198116106130b3575b505050811b016003840155612cf4565b015160001960f88460031b161c191690558880806130a3565b81810151835560209485019460019093019290910190613088565b015190508880612c7c565b9250600286016000526020600020906000935b601f1984168510613149576001945083601f19811610613130575b505050811b016002840155612c94565b015160001960f88460031b161c19169055888080613120565b81810151835560209485019460019093019290910190613105565b015190508780612c1a565b9250600185016000526020600020906000935b601f19841685106131c6576001945083601f198116106131ad575b505050811b016001830155612c32565b015160001960f88460031b161c1916905587808061319d565b81810151835560209485019460019093019290910190613182565b60405162461bcd60e51b815260206004820152601060248201526f4e616d6520697320746f6f206c6f6e6760801b6044820152606490fd5b60405162461bcd60e51b81526020600482015260146024820152734e616d652063616e6e6f7420626520656d70747960601b6044820152606490fd5b60405162461bcd60e51b815260206004820152601d60248201527f556e697665727369747920616c726561647920726567697374657265640000006044820152606490fd5b34610407576000366003190112610407576132b36142a8565b600780546001600160a01b031981169091556000906001600160a01b03167f8be0079c531659141344cd1fd0a4f28419497f9722a3daafe3b4186f6b6457e08280a3005b34610407576020366003190112610407576001600160a01b03613318613d4a565b1680156133375760005260036020526020604060002054604051908152f35b60405162461bcd60e51b815260206004820152602960248201527f4552433732313a2061646472657373207a65726f206973206e6f7420612076616044820152683634b21037bbb732b960b91b6064820152608490fd5b3461040757602080600319360112610407576133a8613d4a565b906133b1614cc0565b5060018060a01b03809216600052600e815260ff60036040600020604051946133d986613d92565b81541685526040516133f2816105a38160018601614011565b8486015260405161340a816105a38160028601614011565b6040860152015461ffff80821660608601528160101c166080850152821c16151560a0830152610871604051928284938452830190614195565b34610407576000366003190112610407576020601254604051908152f35b346104075760203660031901126104075760043560005260136020526040600020604051613494816105a38185614011565b61087160018060a01b03928360018201541693600282015416906040516134c2816105a38160038601614011565b6040516134d6816105a38160048701614011565b6005830154600684015490604051926134f684611cc18160078a01614011565b6040519461350b86611ce48160088b01614011565b600a60405197613529896135228160098501614011565b038a613de3565b0154976040519b8c9b8c6140f7565b3461040757602036600319011261040757602061355660043561434c565b6040516001600160a01b039091168152f35b3461040757604036600319011261040757613581613d4a565b613589613d60565b60018060a01b038092166000526011602052816040600020911660005260205260406000209081541690610871604051611908816105a38160018701614011565b34610407576020366003190112610407576108716001600160a01b03806135ef613d4a565b16600052600860205261367a60406000209160405161360d81613d92565b81845416815260ff60086040519561362c87611adf8160018501614011565b6020840196875261363f6002820161423c565b6040850152604051613658816105a38160068601614011565b606085015260078101546080850152015416151560a082015251161515614c7d565b51604051918291602083526020830190613d0a565b346104075761188161187c6136a336613e94565b90604051926136b184613dc8565b6000845261186c6118678433614489565b3461040757602036600319011261040757600435600052600c60205260406000206040518082602082945493848152019060005260206000209260005b81811061373e57505061371492500382613de3565b61371e8151614b94565b9060005b815181101561086357806106d36137399284614b6f565b613722565b84548352600194850194869450602090930192016136ff565b3461040757602036600319011261040757600435600052601460205260406000206040518082602082945493848152019060005260206000209260005b8181106137d35750506137a992500382613de3565b6137b38151614b94565b9060005b815181101561086357806106d36137ce9284614b6f565b6137b7565b8454835260019485019486945060209093019201613794565b34610407576118816137fd36613e94565b9161380b6118678433614489565b614551565b346104075761381e36613e66565b90600052600c602052604060002080548210156104075760209161092e91613e7c565b3461040757602080600319360112610407576001600160a01b03613863613d4a565b16600052600f81526040600020604051808284829454938481520190600052846000209260005b86828210613979578461389f81860382613de3565b8051906138ab82614b26565b916138b96040519384613de3565b8083526138c8601f1991614b26565b018360005b82811061396a5750505060005b815181101561390957806138fa6138f46139049385614b6f565b5161480d565b61084d8286614b6f565b6138da565b50506040519082820192808352815180945260408301938160408260051b8601019301916000955b82871061393e5785850386f35b90919293828061395a600193603f198a82030186528851613d0a565b9601920196019592919092613931565b606085820183015281016138cd565b855484526001958601958795509301920161388a565b34610407576080366003190112610407576004356001600160401b038111610407576139bf903690600401613e1f565b6001600160a01b03906064358281169081900361040757602092613a38613a4093613a04611bfa604435600052600260205260018060a01b0360406000205416151590565b7f19457468657265756d205369676e6564204d6573736167653a0a333200000000600052602435601c52603c600020614a5f565b939093614945565b6040519216148152f35b3461040757604036600319011261040757613a63613d4a565b602435906001600160a01b038080613a7a8561434c565b16921691808314613b7557803314908115613b50575b5015613ae557600083815260046020526040902080546001600160a01b03191683179055613abd8361434c565b167f8c5be1e5ebec7d5bd14f71427d1e84f3dd0314c0f7b2291e5b200ac8c7c3b925600080a4005b60405162461bcd60e51b815260206004820152603d60248201527f4552433732313a20617070726f76652063616c6c6572206973206e6f7420746f60448201527f6b656e206f776e6572206f7220617070726f76656420666f7220616c6c0000006064820152608490fd5b9050600052600560205260406000203360005260205260ff6040600020541684613a90565b60405162461bcd60e51b815260206004820152602160248201527f4552433732313a20617070726f76616c20746f2063757272656e74206f776e656044820152603960f91b6064820152608490fd5b34610407576020366003190112610407576020613556600435614372565b346104075760003660031901126104075760405160008054613c0381613fd7565b80845290600190818116908115611e185750600114613c2c5761087184610f6181860382613de3565b600080805292507f290decd9548b62a8d60345a988386fc84ba6bc95484008f6362f93160ef3e5635b828410613c6d575050508101602001610f6182611daf565b80546020858701810191909152909301928101613c55565b34610407576020366003190112610407576004359063ffffffff60e01b821680920361040757602091632483248360e11b8114908115613cc7575b5015158152f35b6380ac58cd60e01b811491508115613cf9575b8115613ce8575b5083613cc0565b6301ffc9a760e01b14905083613ce1565b635b5e139f60e01b81149150613cda565b919082519283825260005b848110613d36575050826000602080949584010152601f8019910116010190565b602081830181015184830182015201613d15565b600435906001600160a01b038216820361040757565b602435906001600160a01b038216820361040757565b61016081019081106001600160401b038211176114ad57604052565b60c081019081106001600160401b038211176114ad57604052565b608081019081106001600160401b038211176114ad57604052565b602081019081106001600160401b038211176114ad57604052565b90601f801991011681019081106001600160401b038211176114ad57604052565b6001600160401b0381116114ad57601f01601f191660200190565b81601f8201121561040757803590613e3682613e04565b92613e446040519485613de3565b8284526020838301011161040757816000926020809301838601378301015290565b6040906003190112610407576004359060243590565b8054821015612ed55760005260206000200190600090565b6060906003190112610407576001600160a01b0390600435828116810361040757916024359081168103610407579060443590565b602080820190808352835180925260409283810182858560051b8401019601946000925b858410613efe575050505050505090565b909192939495968580600192603f198582030187528a519081518152613fbb613fa7613f7f613f6c613f3d87870151610160808a890152870190613d0a565b898060a01b03808d890151168d8801526060908189015116908701526080808801519087830390880152613d0a565b60a0808701519086830390870152613d0a565b60c0808601519085015260e08086015190850152610100808601519085830390860152613d0a565b610120808501519084830390850152613d0a565b9161014080910151910152990194019401929594939190613eed565b90600182811c92168015614007575b6020831014613ff157565b634e487b7160e01b600052602260045260246000fd5b91607f1691613fe6565b906000929180549161402283613fd7565b9182825260019384811690816000146140845750600114614044575b50505050565b90919394506000526020928360002092846000945b83861061407057505050500101903880808061403e565b805485870183015294019385908201614059565b9294505050602093945060ff191683830152151560051b0101903880808061403e565b949695926140d060a095936140de93600180891b0316885260c0602089015260c0880190613d0a565b908682036040880152613d0a565b9561ffff80921660608601521660808401521515910152565b9b9a9996908c6101409a9661414c6141819996614172986141909d9761412861415a97610160808952880190613d0a565b6001600160a01b039182166020880152921660408601528482036060860152613d0a565b916080818403910152613d0a565b9260a08d015260c08c01528a820360e08c0152613d0a565b908882036101008a0152613d0a565b90868203610120880152613d0a565b930152565b9060018060a01b03825116815260a0806141d36141c1602086015160c0602087015260c0860190613d0a565b60408601518582036040870152613d0a565b9361ffff80606083015116606086015260808201511660808501520151151591015290565b6020908160408183019282815285518094520193019160005b82811061421f575050505090565b83516001600160a01b031685529381019392810192600101614211565b90600360606040936142a485519161425383613dad565b61057983978051614268816105a38187614011565b8552805161427d816105a38160018801614011565b60208601528051614295816105a38160028801614011565b81860152518096819301614011565b0152565b6007546001600160a01b031633036142bc57565b606460405162461bcd60e51b815260206004820152602060248201527f4f776e61626c653a2063616c6c6572206973206e6f7420746865206f776e65726044820152fd5b1561430757565b60405162461bcd60e51b815260206004820152601860248201527f4552433732313a20696e76616c696420746f6b656e20494400000000000000006044820152606490fd5b6000908152600260205260409020546001600160a01b031661436f811515614300565b90565b600081815260026020526040902054614395906001600160a01b03161515614300565b6000908152600460205260409020546001600160a01b031690565b156143b757565b60405162461bcd60e51b815260206004820152602d60248201527f4552433732313a2063616c6c6572206973206e6f7420746f6b656e206f776e6560448201526c1c881bdc88185c1c1c9bdd9959609a1b6064820152608490fd5b60809060208152603260208201527f4552433732313a207472616e7366657220746f206e6f6e20455243373231526560408201527131b2b4bb32b91034b6b83632b6b2b73a32b960711b60608201520190565b1561446c57565b60405162461bcd60e51b81528061448560048201614412565b0390fd5b906001600160a01b03808061449d8461434c565b169316918383149384156144d0575b5083156144ba575b50505090565b6144c691929350614372565b16143880806144b4565b909350600052600560205260406000208260005260205260ff6040600020541692386144ac565b156144fe57565b60405162461bcd60e51b815260206004820152602560248201527f4552433732313a207472616e736665722066726f6d20696e636f72726563742060448201526437bbb732b960d91b6064820152608490fd5b906145799161455f8461434c565b6001600160a01b03939184169284929091831684146144f7565b1691821561461157816145969161458f8661434c565b16146144f7565b7fddf252ad1be2c89b69c2b068fc378daa952ba7f163c4a11628f55a4df523b3ef60008481526004602052604081206001600160601b0360a01b9081815416905583825260036020526040822060001981540190558482526040822060018154019055858252600260205284604083209182541617905580a4565b60405162461bcd60e51b8152602060048201526024808201527f4552433732313a207472616e7366657220746f20746865207a65726f206164646044820152637265737360e01b6064820152608490fd5b9192600092909190803b15614778576146b0946040518092630a85bd0160e11b9485835233600484015287602484015260448301526080606483015281878160209a8b966084830190613d0a565b03926001600160a01b03165af1849181614734575b50614723575050503d60001461471b573d6146df81613e04565b906146ed6040519283613de3565b81528091833d92013e5b805191826147185760405162461bcd60e51b81528061448560048201614412565b01fd5b5060606146f7565b6001600160e01b0319161492509050565b9091508581813d8311614771575b61474c8183613de3565b8101031261476d57516001600160e01b03198116810361476d5790386146c5565b8480fd5b503d614742565b5050915050600190565b9293600093909291803b15614802579484916147dc9660405180948193630a85bd0160e11b9788845233600485015260018060a01b0380921660248501526044840152608060648401528260209b8c976084830190613d0a565b0393165af18491816147345750614723575050503d60001461471b573d6146df81613e04565b505050915050600190565b600081815260026020526040902054614830906001600160a01b03161515614300565b60005260066020526105a361484f604060002060405192838092614011565b600060405161485d81613dc8565b5290565b600019811461294d5760010190565b90601f811161487e57505050565b600091825260208220906020601f850160051c830194106148ba575b601f0160051c01915b8281106148af57505050565b8181556001016148a3565b909250829061489a565b8054600160401b8110156114ad576148e191600182018155613e7c565b819291549060031b91821b91600019901b1916179055565b1561490057565b60405162461bcd60e51b815260206004820152601c60248201527f4552433732313a20746f6b656e20616c7265616479206d696e746564000000006044820152606490fd5b6005811015614a4957806149565750565b600181036149a35760405162461bcd60e51b815260206004820152601860248201527f45434453413a20696e76616c6964207369676e617475726500000000000000006044820152606490fd5b600281036149f05760405162461bcd60e51b815260206004820152601f60248201527f45434453413a20696e76616c6964207369676e6174757265206c656e677468006044820152606490fd5b6003146149f957565b60405162461bcd60e51b815260206004820152602260248201527f45434453413a20696e76616c6964207369676e6174757265202773272076616c604482015261756560f01b6064820152608490fd5b634e487b7160e01b600052602160045260246000fd5b906041815114600014614a8d57614a89916020820151906060604084015193015160001a90614a97565b9091565b5050600090600290565b9291907f7fffffffffffffffffffffffffffffff5d576e7357a4501ddfe92f46681b20a08311614b1a5791608094939160ff602094604051948552168484015260408301526060820152600093849182805260015afa15614b0d5781516001600160a01b03811615614b07579190565b50600190565b50604051903d90823e3d90fd5b50505050600090600390565b6001600160401b0381116114ad5760051b60200190565b90614b4782614b26565b614b546040519182613de3565b8281528092614b65601f1991614b26565b0190602036910137565b8051821015612ed55760209160051b010190565b908151811015612ed5570160200190565b90614b9e82614b26565b604090614bad82519182613de3565b8381528093614bbe601f1991614b26565b019160005b838110614bd05750505050565b6020908251614bde81613d76565b600081526060839080828401526000868401526000818401528060808401528060a0840152600060c0840152600060e0840152806101008401526101208301526000610140830152828601015201614bc3565b15614c3857565b60405162461bcd60e51b815260206004820152601a60248201527f436572746966696361746520646f6573206e6f742065786973740000000000006044820152606490fd5b15614c8457565b60405162461bcd60e51b8152602060048201526014602482015273155b9a5d995c9cda5d1e481b9bdd08199bdd5b9960621b6044820152606490fd5b60405190614ccd82613d92565b600060a0838281526060602082015260606040820152826060820152826080820152015256fea264697066735822122084602588f0ef35142055c70efe76af0aad87d10aed674d410e1e6293eba7ab6764736f6c63430008130033",
  "immutableReferences": {},
  "source": "// SPDX-License-Identifier: MIT\r\npragma solidity ^0.8.19;\r\n\r\nimport \"@openzeppelin/contracts/token/ERC721/extensions/ERC721URIStorage.sol\";\r\nimport \"@openzeppelin/contracts/access/Ownable.sol\";\r\nimport \"@openzeppelin/contracts/utils/cryptography/ECDSA.sol\"; // For cryptographic functions\r\nimport \"./Studentregs.sol\";\r\nimport \"./Universityy.sol\";\r\n\r\ncontract Certificates is ERC721URIStorage, Ownable,StudentRegistry {\r\n    using ECDSA for bytes32; // Helper library for cryptographic functions\r\n\r\n    struct Certificate {\r\n        string studentName;\r\n        address studentAddress; // Added\r\n        address universityAddress; // Added\r\n        string certificateType;\r\n        string dateOfIssue;\r\n        bytes32 studentPublicKey;\r\n        bytes32 universityPublicKey;\r\n        bytes signature;\r\n        string issuedBy; // Added\r\n        string eventName; // Added\r\n        uint256 rank; // Added (only for ACHIEVEMENT certificates)\r\n    }\r\n\r\n    struct CertificateInfo {\r\n        uint256 certificateId;\r\n        string studentName;\r\n        address studentAddress; // Added\r\n        address universityAddress; // Added\r\n        string certificateType;\r\n        string dateOfIssue;\r\n        bytes32 studentPublicKey;\r\n        bytes32 universityPublicKey;\r\n        string issuedBy; // Added\r\n        string eventName; // Added\r\n        uint256 rank; // Added\r\n    }\r\n\r\n    uint256 public certificateCounter;\r\n    mapping(uint256 => Certificate) public certificates; \r\n    mapping(uint256 => uint256[]) public certificatesByYear; // Year -> Certificate IDs\r\n    \r\n    \r\n    event CertificateIssued(uint256 indexed certificateId, bytes32 indexed universityPublicKey, bytes32 studentPublicKey);\r\n\r\n    constructor() ERC721(\"UniversityCertificate\", \"UCERT\") {}\r\n\r\n    function issueCertificate(\r\n        address user,\r\n        address _studentAddress,\r\n        string memory _studentName,\r\n        string memory _certificateType,\r\n        string memory _dateOfIssue,\r\n        bytes32 _studentPublicKey,\r\n        bytes32 _universityPublicKey,\r\n        string memory _tokenURI,\r\n        bytes memory _signature,\r\n        bytes32 messageHash,\r\n        string memory _issuedBy,\r\n        string memory _eventName,\r\n        uint256 _rank\r\n    ) public returns (uint256) {\r\n        certificateCounter++;\r\n        uint256 certificateId = certificateCounter;\r\n    \r\n        // Recreate the message hash\r\n        bytes32 ethHash = messageHash.toEthSignedMessageHash();\r\n    \r\n        // Verify the signature\r\n        address signer = ethHash.recover(_signature);\r\n        \r\n        require(signer == user, \"Invalid signature\");\r\n    \r\n        // Extract the year from the date of issue\r\n        uint256 year = extractYear(_dateOfIssue);\r\n    \r\n        // Create the certificate\r\n        certificates[certificateId] = Certificate({\r\n            studentName: _studentName,\r\n            studentAddress: _studentAddress,\r\n            universityAddress: user,\r\n            certificateType: _certificateType,\r\n            dateOfIssue: _dateOfIssue,\r\n            studentPublicKey: _studentPublicKey,\r\n            universityPublicKey: _universityPublicKey,\r\n            signature: _signature,\r\n            issuedBy: _issuedBy,\r\n            eventName: _eventName,\r\n            rank: _rank\r\n        });\r\n    \r\n        _safeMint(_studentAddress, certificateId);\r\n        _setTokenURI(certificateId, _tokenURI);\r\n    \r\n        universityCertificates[_universityPublicKey].push(certificateId);\r\n        studentCertificates[_studentAddress].push(certificateId);\r\n        certificatesByYear[year].push(certificateId);\r\n\r\n        // Emit the CertificateIssued event\r\n        emit CertificateIssued(certificateId, _universityPublicKey, _studentPublicKey);\r\n        return certificateId;\r\n    }\r\n\r\n\r\n    function getCertificatesByUniversityAndYear(\r\n        address _uniadd,\r\n        uint256 _year\r\n    ) public view returns (uint256[] memory) {\r\n        // Get all certificate IDs for the specified year\r\n        uint256[] memory certificateIdsForYear = certificatesByYear[_year];\r\n    \r\n        // Filter certificates issued by the specified university\r\n        uint256[] memory universityCertificatesForYear = new uint256[](certificateIdsForYear.length);\r\n        uint256 count = 0;\r\n    \r\n        for (uint256 i = 0; i < certificateIdsForYear.length; i++) {\r\n            uint256 certificateId = certificateIdsForYear[i];\r\n            Certificate memory certificate = certificates[certificateId];\r\n    \r\n            if (certificate.universityAddress == _uniadd) {\r\n                universityCertificatesForYear[count] = certificateId;\r\n                count++;\r\n            }\r\n        }\r\n    \r\n        // Resize the array to remove unused slots\r\n        uint256[] memory result = new uint256[](count);\r\n        for (uint256 i = 0; i < count; i++) {\r\n            result[i] = universityCertificatesForYear[i];\r\n        }\r\n    \r\n        return result;\r\n    }\r\n\r\n    function extractYear(string memory date) internal pure returns (uint256) {\r\n        bytes memory dateBytes = bytes(date);\r\n        require(dateBytes.length >= 4, \"Invalid date format\");\r\n    \r\n        // Extract the first 4 characters (YYYY)\r\n        bytes memory yearBytes = new bytes(4);\r\n        for (uint256 i = 0; i < 4; i++) {\r\n            yearBytes[i] = dateBytes[i];\r\n        }\r\n    \r\n        // Convert bytes to uint256\r\n        uint256 year = 0;\r\n        for (uint256 i = 0; i < 4; i++) {\r\n            year = year * 10 + (uint256(uint8(yearBytes[i])) - 48); // Convert ASCII to number\r\n        }\r\n    \r\n        return year;\r\n    }\r\n\r\n    function getCertificatesByYear(uint256 year) public view returns (CertificateInfo[] memory) {\r\n        uint256[] memory certificateIds = certificatesByYear[year];\r\n        CertificateInfo[] memory certificateDetails = new CertificateInfo[](certificateIds.length);\r\n    \r\n        for (uint256 i = 0; i < certificateIds.length; i++) {\r\n            uint256 certificateId = certificateIds[i];\r\n            Certificate memory cert = certificates[certificateId];\r\n    \r\n            certificateDetails[i] = CertificateInfo({\r\n                certificateId: certificateId,\r\n                studentName: cert.studentName,\r\n                studentAddress: cert.studentAddress,\r\n                universityAddress: cert.universityAddress,\r\n                certificateType: cert.certificateType,\r\n                dateOfIssue: cert.dateOfIssue,\r\n                studentPublicKey: cert.studentPublicKey,\r\n                universityPublicKey: cert.universityPublicKey,\r\n                issuedBy: cert.issuedBy,\r\n                eventName: cert.eventName,\r\n                rank: cert.rank\r\n            });\r\n        }\r\n    \r\n        return certificateDetails;\r\n    }\r\n\r\n    function verifyCertificate(\r\n        bytes memory _signature,\r\n        bytes32 messageHash,\r\n        uint256 _certificateId,\r\n        address user\r\n    ) public view returns (bool) {\r\n        require(_exists(_certificateId), \"Certificate does not exist\");\r\n        bytes32 ethHash = messageHash.toEthSignedMessageHash();\r\n        address signer = ethHash.recover(_signature);\r\n        return signer == user;\r\n    }\r\n\r\n    function getCertificateById(uint256 certificateId) public view returns (\r\n        string memory studentName,\r\n        address studentAddress, // Added\r\n        address universityAddress, // Added\r\n        string memory certificateType,\r\n        string memory dateOfIssue,\r\n        bytes32 studentPublicKey,\r\n        bytes32 universityPublicKey,\r\n        bytes memory signature,\r\n        string memory issuedBy, // Added\r\n        string memory eventName, // Added\r\n        uint256 rank // Added\r\n    ) {\r\n        require(_exists(certificateId), \"Certificate does not exist\");\r\n    \r\n        Certificate memory cert = certificates[certificateId];\r\n    \r\n        return (\r\n            cert.studentName,\r\n            cert.studentAddress, // Added\r\n            cert.universityAddress, // Added\r\n            cert.certificateType,\r\n            cert.dateOfIssue,\r\n            cert.studentPublicKey,\r\n            cert.universityPublicKey,\r\n            cert.signature,\r\n            cert.issuedBy, // Added\r\n            cert.eventName, // Added\r\n            cert.rank // Added\r\n        );\r\n    }\r\n\r\n\r\n    function getCertificatesByStudent(address studentAddress) public view returns (CertificateInfo[] memory) {\r\n        uint256[] memory certificateIds = studentCertificates[studentAddress];\r\n        CertificateInfo[] memory certificateDetails = new CertificateInfo[](certificateIds.length);\r\n    \r\n        for (uint256 i = 0; i < certificateIds.length; i++) {\r\n            uint256 certificateId = certificateIds[i];\r\n            Certificate memory cert = certificates[certificateId];\r\n    \r\n            certificateDetails[i] = CertificateInfo({\r\n                certificateId: certificateId,\r\n                studentName: cert.studentName,\r\n                studentAddress: cert.studentAddress, // Added\r\n                universityAddress: cert.universityAddress, // Added\r\n                certificateType: cert.certificateType,\r\n                dateOfIssue: cert.dateOfIssue,\r\n                studentPublicKey: cert.studentPublicKey,\r\n                universityPublicKey: cert.universityPublicKey,\r\n                issuedBy: cert.issuedBy, // Added\r\n                eventName: cert.eventName, // Added\r\n                rank: cert.rank // Added\r\n            });\r\n        }\r\n    \r\n        return certificateDetails;\r\n    }\r\n\r\n    function getTokenURIsByAddress(address user) public view returns (string[] memory) {\r\n       uint256[] memory certificateIds = studentCertificates[user];\r\n       string[] memory tokenURIs = new string[](certificateIds.length);\r\n   \r\n       for (uint256 i = 0; i < certificateIds.length; i++) {\r\n           tokenURIs[i] = tokenURI(certificateIds[i]);\r\n       }\r\n   \r\n       return tokenURIs;\r\n    }\r\n\r\n    function getCertificatesByUniversity(bytes32 _universityPublicKey) public view returns (CertificateInfo[] memory) {\r\n        uint256[] memory certificateIds = universityCertificates[_universityPublicKey];\r\n        CertificateInfo[] memory certificateDetails = new CertificateInfo[](certificateIds.length);\r\n    \r\n        for (uint256 i = 0; i < certificateIds.length; i++) {\r\n            uint256 certificateId = certificateIds[i];\r\n            Certificate memory cert = certificates[certificateId];\r\n    \r\n            certificateDetails[i] = CertificateInfo({\r\n                certificateId: certificateId,\r\n                studentName: cert.studentName,\r\n                studentAddress: cert.studentAddress, // Added\r\n                universityAddress: cert.universityAddress, // Added\r\n                certificateType: cert.certificateType,\r\n                dateOfIssue: cert.dateOfIssue,\r\n                studentPublicKey: cert.studentPublicKey,\r\n                universityPublicKey: cert.universityPublicKey,\r\n                issuedBy: cert.issuedBy, // Added\r\n                eventName: cert.eventName, // Added\r\n                rank: cert.rank // Added\r\n            });\r\n        }\r\n    \r\n        return certificateDetails;\r\n    }\r\n\r\n}\r\n",
  "sourcePath": "D:\\coding\\Hackathon\\c\\contracts\\Certificates.sol",
  "compiler": {
    "name": "solc",
    "version": "0.8.19+commit.7dd6d404.Emscripten.clang"
  },
  "schemaVersion": "3.4.10",
  "updatedAt": "2025-09-11T18:20:05.096Z",
  "devdoc": {
    "events": {
      "Approval(address,address,uint256)": {
        "details": "Emitted when `owner` enables `approved` to manage the `tokenId` token."
      },
      "ApprovalForAll(address,address,bool)": {
        "details": "Emitted when `owner` enables or disables (`approved`) `operator` to manage all of its assets."
      },
      "BatchMetadataUpdate(uint256,uint256)": {
        "details": "This event emits when the metadata of a range of tokens is changed. So that the third-party platforms such as NFT market could timely update the images and related attributes of the NFTs."
      },
      "MetadataUpdate(uint256)": {
        "details": "This event emits when the metadata of a token is changed. So that the third-party platforms such as NFT market could timely update the images and related attributes of the NFT."
      },
      "Transfer(address,address,uint256)": {
        "details": "Emitted when `tokenId` token is transferred from `from` to `to`."
      }
    },
    "kind": "dev",
    "methods": {
      "approve(address,uint256)": {
        "details": "See {IERC721-approve}."
      },
      "balanceOf(address)": {
        "details": "See {IERC721-balanceOf}."
      },
      "getApproved(uint256)": {
        "details": "See {IERC721-getApproved}."
      },
      "isApprovedForAll(address,address)": {
        "details": "See {IERC721-isApprovedForAll}."
      },
      "name()": {
        "details": "See {IERC721Metadata-name}."
      },
      "owner()": {
        "details": "Returns the address of the current owner."
      },
      "ownerOf(uint256)": {
        "details": "See {IERC721-ownerOf}."
      },
      "renounceOwnership()": {
        "details": "Leaves the contract without owner. It will not be possible to call `onlyOwner` functions. Can only be called by the current owner. NOTE: Renouncing ownership will leave the contract without an owner, thereby disabling any functionality that is only available to the owner."
      },
      "safeTransferFrom(address,address,uint256)": {
        "details": "See {IERC721-safeTransferFrom}."
      },
      "safeTransferFrom(address,address,uint256,bytes)": {
        "details": "See {IERC721-safeTransferFrom}."
      },
      "setApprovalForAll(address,bool)": {
        "details": "See {IERC721-setApprovalForAll}."
      },
      "supportsInterface(bytes4)": {
        "details": "See {IERC165-supportsInterface}"
      },
      "symbol()": {
        "details": "See {IERC721Metadata-symbol}."
      },
      "tokenURI(uint256)": {
        "details": "See {IERC721Metadata-tokenURI}."
      },
      "transferFrom(address,address,uint256)": {
        "details": "See {IERC721-transferFrom}."
      },
      "transferOwnership(address)": {
        "details": "Transfers ownership of the contract to a new account (`newOwner`). Can only be called by the current owner."
      }
    },
    "version": 1
  },
  "userdoc": {
    "kind": "user",
    "methods": {},
    "version": 1
  }
}