{
  "contractName": "Degrees",
  "abi": [
    {
      "anonymous": false,
      "inputs": [
        {
          "indexed": true,
          "internalType": "address",
          "name": "owner",
          "type": "address"
        },
        {
          "indexed": true,
          "internalType": "address",
          "name": "approved",
          "type": "address"
        },
        {
          "indexed": true,
          "internalType": "uint256",
          "name": "tokenId",
          "type": "uint256"
        }
      ],
      "name": "Approval",
      "type": "event"
    },
    {
      "anonymous": false,
      "inputs": [
        {
          "indexed": true,
          "internalType": "address",
          "name": "owner",
          "type": "address"
        },
        {
          "indexed": true,
          "internalType": "address",
          "name": "operator",
          "type": "address"
        },
        {
          "indexed": false,
          "internalType": "bool",
          "name": "approved",
          "type": "bool"
        }
      ],
      "name": "ApprovalForAll",
      "type": "event"
    },
    {
      "anonymous": false,
      "inputs": [
        {
          "indexed": false,
          "internalType": "uint256",
          "name": "_fromTokenId",
          "type": "uint256"
        },
        {
          "indexed": false,
          "internalType": "uint256",
          "name": "_toTokenId",
          "type": "uint256"
        }
      ],
      "name": "BatchMetadataUpdate",
      "type": "event"
    },
    {
      "anonymous": false,
      "inputs": [
        {
          "indexed": true,
          "internalType": "uint256",
          "name": "certificateId",
          "type": "uint256"
        },
        {
          "indexed": true,
          "internalType": "bytes32",
          "name": "universityPublicKey",
          "type": "bytes32"
        },
        {
          "indexed": false,
          "internalType": "bytes32",
          "name": "studentPublicKey",
          "type": "bytes32"
        }
      ],
      "name": "CertificateIssued",
      "type": "event"
    },
    {
      "anonymous": false,
      "inputs": [
        {
          "indexed": true,
          "internalType": "uint256",
          "name": "degreeId",
          "type": "uint256"
        },
        {
          "indexed": true,
          "internalType": "bytes32",
          "name": "universityPublicKey",
          "type": "bytes32"
        },
        {
          "indexed": false,
          "internalType": "bytes32",
          "name": "studentPublicKey",
          "type": "bytes32"
        }
      ],
      "name": "DegreeIssued",
      "type": "event"
    },
    {
      "anonymous": false,
      "inputs": [
        {
          "indexed": false,
          "internalType": "uint256",
          "name": "_tokenId",
          "type": "uint256"
        }
      ],
      "name": "MetadataUpdate",
      "type": "event"
    },
    {
      "anonymous": false,
      "inputs": [
        {
          "indexed": true,
          "internalType": "address",
          "name": "previousOwner",
          "type": "address"
        },
        {
          "indexed": true,
          "internalType": "address",
          "name": "newOwner",
          "type": "address"
        }
      ],
      "name": "OwnershipTransferred",
      "type": "event"
    },
    {
      "anonymous": false,
      "inputs": [
        {
          "indexed": true,
          "internalType": "address",
          "name": "studentAddress",
          "type": "address"
        },
        {
          "indexed": false,
          "internalType": "uint256",
          "name": "approvalId",
          "type": "uint256"
        },
        {
          "indexed": false,
          "internalType": "bool",
          "name": "registered",
          "type": "bool"
        }
      ],
      "name": "StudentApproved",
      "type": "event"
    },
    {
      "anonymous": false,
      "inputs": [
        {
          "indexed": false,
          "internalType": "address",
          "name": "studentPublicKey",
          "type": "address"
        },
        {
          "indexed": false,
          "internalType": "string",
          "name": "name",
          "type": "string"
        },
        {
          "indexed": false,
          "internalType": "string",
          "name": "course",
          "type": "string"
        },
        {
          "indexed": false,
          "internalType": "uint256",
          "name": "approvalId",
          "type": "uint256"
        }
      ],
      "name": "StudentRegistered",
      "type": "event"
    },
    {
      "anonymous": false,
      "inputs": [
        {
          "indexed": true,
          "internalType": "address",
          "name": "from",
          "type": "address"
        },
        {
          "indexed": true,
          "internalType": "address",
          "name": "to",
          "type": "address"
        },
        {
          "indexed": true,
          "internalType": "uint256",
          "name": "tokenId",
          "type": "uint256"
        }
      ],
      "name": "Transfer",
      "type": "event"
    },
    {
      "anonymous": false,
      "inputs": [
        {
          "indexed": true,
          "internalType": "bytes32",
          "name": "publicKey",
          "type": "bytes32"
        },
        {
          "indexed": true,
          "internalType": "address",
          "name": "universityAddress",
          "type": "address"
        },
        {
          "indexed": false,
          "internalType": "string",
          "name": "name",
          "type": "string"
        }
      ],
      "name": "UniversityRegistered",
      "type": "event"
    },
    {
      "inputs": [
        {
          "internalType": "address",
          "name": "to",
          "type": "address"
        },
        {
          "internalType": "uint256",
          "name": "tokenId",
          "type": "uint256"
        }
      ],
      "name": "approve",
      "outputs": [],
      "stateMutability": "nonpayable",
      "type": "function"
    },
    {
      "inputs": [
        {
          "internalType": "address",
          "name": "studentAddress",
          "type": "address"
        },
        {
          "internalType": "uint256",
          "name": "approvalId",
          "type": "uint256"
        },
        {
          "internalType": "address",
          "name": "univadd",
          "type": "address"
        }
      ],
      "name": "approveStudentRegistration",
      "outputs": [],
      "stateMutability": "nonpayable",
      "type": "function"
    },
    {
      "inputs": [
        {
          "internalType": "address",
          "name": "owner",
          "type": "address"
        }
      ],
      "name": "balanceOf",
      "outputs": [
        {
          "internalType": "uint256",
          "name": "",
          "type": "uint256"
        }
      ],
      "stateMutability": "view",
      "type": "function",
      "constant": true
    },
    {
      "inputs": [],
      "name": "certificateCounter",
      "outputs": [
        {
          "internalType": "uint256",
          "name": "",
          "type": "uint256"
        }
      ],
      "stateMutability": "view",
      "type": "function",
      "constant": true
    },
    {
      "inputs": [
        {
          "internalType": "uint256",
          "name": "",
          "type": "uint256"
        }
      ],
      "name": "certificates",
      "outputs": [
        {
          "internalType": "string",
          "name": "studentName",
          "type": "string"
        },
        {
          "internalType": "address",
          "name": "studentAddress",
          "type": "address"
        },
        {
          "internalType": "address",
          "name": "universityAddress",
          "type": "address"
        },
        {
          "internalType": "string",
          "name": "certificateType",
          "type": "string"
        },
        {
          "internalType": "string",
          "name": "dateOfIssue",
          "type": "string"
        },
        {
          "internalType": "bytes32",
          "name": "studentPublicKey",
          "type": "bytes32"
        },
        {
          "internalType": "bytes32",
          "name": "universityPublicKey",
          "type": "bytes32"
        },
        {
          "internalType": "bytes",
          "name": "signature",
          "type": "bytes"
        },
        {
          "internalType": "string",
          "name": "issuedBy",
          "type": "string"
        },
        {
          "internalType": "string",
          "name": "eventName",
          "type": "string"
        },
        {
          "internalType": "uint256",
          "name": "rank",
          "type": "uint256"
        }
      ],
      "stateMutability": "view",
      "type": "function",
      "constant": true
    },
    {
      "inputs": [
        {
          "internalType": "uint256",
          "name": "",
          "type": "uint256"
        },
        {
          "internalType": "uint256",
          "name": "",
          "type": "uint256"
        }
      ],
      "name": "certificatesByYear",
      "outputs": [
        {
          "internalType": "uint256",
          "name": "",
          "type": "uint256"
        }
      ],
      "stateMutability": "view",
      "type": "function",
      "constant": true
    },
    {
      "inputs": [
        {
          "internalType": "uint256",
          "name": "",
          "type": "uint256"
        },
        {
          "internalType": "uint256",
          "name": "",
          "type": "uint256"
        }
      ],
      "name": "degreesByYear",
      "outputs": [
        {
          "internalType": "uint256",
          "name": "",
          "type": "uint256"
        }
      ],
      "stateMutability": "view",
      "type": "function",
      "constant": true
    },
    {
      "inputs": [
        {
          "internalType": "uint256",
          "name": "",
          "type": "uint256"
        }
      ],
      "name": "degres",
      "outputs": [
        {
          "internalType": "string",
          "name": "studentName",
          "type": "string"
        },
        {
          "internalType": "address",
          "name": "studentAddress",
          "type": "address"
        },
        {
          "internalType": "address",
          "name": "universityAddress",
          "type": "address"
        },
        {
          "internalType": "string",
          "name": "specialization",
          "type": "string"
        },
        {
          "internalType": "string",
          "name": "dateOfIssue",
          "type": "string"
        },
        {
          "internalType": "bytes32",
          "name": "studentPublicKey",
          "type": "bytes32"
        },
        {
          "internalType": "bytes32",
          "name": "universityPublicKey",
          "type": "bytes32"
        },
        {
          "internalType": "bytes",
          "name": "signature",
          "type": "bytes"
        },
        {
          "internalType": "string",
          "name": "issuedBy",
          "type": "string"
        }
      ],
      "stateMutability": "view",
      "type": "function",
      "constant": true
    },
    {
      "inputs": [
        {
          "internalType": "address",
          "name": "_universityAddress",
          "type": "address"
        }
      ],
      "name": "getAllStudentsInUniversity",
      "outputs": [
        {
          "components": [
            {
              "internalType": "address",
              "name": "studentPublicKey",
              "type": "address"
            },
            {
              "internalType": "string",
              "name": "name",
              "type": "string"
            },
            {
              "internalType": "string",
              "name": "course",
              "type": "string"
            },
            {
              "internalType": "uint16",
              "name": "yearOfJoining",
              "type": "uint16"
            },
            {
              "internalType": "uint16",
              "name": "yearOfPassing",
              "type": "uint16"
            },
            {
              "internalType": "bool",
              "name": "registered",
              "type": "bool"
            }
          ],
          "internalType": "struct StudentRegistry.Student[]",
          "name": "",
          "type": "tuple[]"
        }
      ],
      "stateMutability": "view",
      "type": "function",
      "constant": true
    },
    {
      "inputs": [],
      "name": "getAllUniversityAddrs",
      "outputs": [
        {
          "internalType": "address[]",
          "name": "",
          "type": "address[]"
        }
      ],
      "stateMutability": "view",
      "type": "function",
      "constant": true
    },
    {
      "inputs": [
        {
          "internalType": "address",
          "name": "user",
          "type": "address"
        }
      ],
      "name": "getApprovalId",
      "outputs": [
        {
          "internalType": "uint256",
          "name": "",
          "type": "uint256"
        }
      ],
      "stateMutability": "view",
      "type": "function",
      "constant": true
    },
    {
      "inputs": [
        {
          "internalType": "uint256",
          "name": "tokenId",
          "type": "uint256"
        }
      ],
      "name": "getApproved",
      "outputs": [
        {
          "internalType": "address",
          "name": "",
          "type": "address"
        }
      ],
      "stateMutability": "view",
      "type": "function",
      "constant": true
    },
    {
      "inputs": [
        {
          "internalType": "uint256",
          "name": "certificateId",
          "type": "uint256"
        }
      ],
      "name": "getCertificateById",
      "outputs": [
        {
          "internalType": "string",
          "name": "studentName",
          "type": "string"
        },
        {
          "internalType": "address",
          "name": "studentAddress",
          "type": "address"
        },
        {
          "internalType": "address",
          "name": "universityAddress",
          "type": "address"
        },
        {
          "internalType": "string",
          "name": "certificateType",
          "type": "string"
        },
        {
          "internalType": "string",
          "name": "dateOfIssue",
          "type": "string"
        },
        {
          "internalType": "bytes32",
          "name": "studentPublicKey",
          "type": "bytes32"
        },
        {
          "internalType": "bytes32",
          "name": "universityPublicKey",
          "type": "bytes32"
        },
        {
          "internalType": "bytes",
          "name": "signature",
          "type": "bytes"
        },
        {
          "internalType": "string",
          "name": "issuedBy",
          "type": "string"
        },
        {
          "internalType": "string",
          "name": "eventName",
          "type": "string"
        },
        {
          "internalType": "uint256",
          "name": "rank",
          "type": "uint256"
        }
      ],
      "stateMutability": "view",
      "type": "function",
      "constant": true
    },
    {
      "inputs": [
        {
          "internalType": "address",
          "name": "studentAddress",
          "type": "address"
        }
      ],
      "name": "getCertificatesByStudent",
      "outputs": [
        {
          "components": [
            {
              "internalType": "uint256",
              "name": "certificateId",
              "type": "uint256"
            },
            {
              "internalType": "string",
              "name": "studentName",
              "type": "string"
            },
            {
              "internalType": "address",
              "name": "studentAddress",
              "type": "address"
            },
            {
              "internalType": "address",
              "name": "universityAddress",
              "type": "address"
            },
            {
              "internalType": "string",
              "name": "certificateType",
              "type": "string"
            },
            {
              "internalType": "string",
              "name": "dateOfIssue",
              "type": "string"
            },
            {
              "internalType": "bytes32",
              "name": "studentPublicKey",
              "type": "bytes32"
            },
            {
              "internalType": "bytes32",
              "name": "universityPublicKey",
              "type": "bytes32"
            },
            {
              "internalType": "string",
              "name": "issuedBy",
              "type": "string"
            },
            {
              "internalType": "string",
              "name": "eventName",
              "type": "string"
            },
            {
              "internalType": "uint256",
              "name": "rank",
              "type": "uint256"
            }
          ],
          "internalType": "struct Certificates.CertificateInfo[]",
          "name": "",
          "type": "tuple[]"
        }
      ],
      "stateMutability": "view",
      "type": "function",
      "constant": true
    },
    {
      "inputs": [
        {
          "internalType": "bytes32",
          "name": "_universityPublicKey",
          "type": "bytes32"
        }
      ],
      "name": "getCertificatesByUniversity",
      "outputs": [
        {
          "components": [
            {
              "internalType": "uint256",
              "name": "certificateId",
              "type": "uint256"
            },
            {
              "internalType": "string",
              "name": "studentName",
              "type": "string"
            },
            {
              "internalType": "address",
              "name": "studentAddress",
              "type": "address"
            },
            {
              "internalType": "address",
              "name": "universityAddress",
              "type": "address"
            },
            {
              "internalType": "string",
              "name": "certificateType",
              "type": "string"
            },
            {
              "internalType": "string",
              "name": "dateOfIssue",
              "type": "string"
            },
            {
              "internalType": "bytes32",
              "name": "studentPublicKey",
              "type": "bytes32"
            },
            {
              "internalType": "bytes32",
              "name": "universityPublicKey",
              "type": "bytes32"
            },
            {
              "internalType": "string",
              "name": "issuedBy",
              "type": "string"
            },
            {
              "internalType": "string",
              "name": "eventName",
              "type": "string"
            },
            {
              "internalType": "uint256",
              "name": "rank",
              "type": "uint256"
            }
          ],
          "internalType": "struct Certificates.CertificateInfo[]",
          "name": "",
          "type": "tuple[]"
        }
      ],
      "stateMutability": "view",
      "type": "function",
      "constant": true
    },
    {
      "inputs": [
        {
          "internalType": "address",
          "name": "_uniadd",
          "type": "address"
        },
        {
          "internalType": "uint256",
          "name": "_year",
          "type": "uint256"
        }
      ],
      "name": "getCertificatesByUniversityAndYear",
      "outputs": [
        {
          "internalType": "uint256[]",
          "name": "",
          "type": "uint256[]"
        }
      ],
      "stateMutability": "view",
      "type": "function",
      "constant": true
    },
    {
      "inputs": [
        {
          "internalType": "uint256",
          "name": "year",
          "type": "uint256"
        }
      ],
      "name": "getCertificatesByYear",
      "outputs": [
        {
          "components": [
            {
              "internalType": "uint256",
              "name": "certificateId",
              "type": "uint256"
            },
            {
              "internalType": "string",
              "name": "studentName",
              "type": "string"
            },
            {
              "internalType": "address",
              "name": "studentAddress",
              "type": "address"
            },
            {
              "internalType": "address",
              "name": "universityAddress",
              "type": "address"
            },
            {
              "internalType": "string",
              "name": "certificateType",
              "type": "string"
            },
            {
              "internalType": "string",
              "name": "dateOfIssue",
              "type": "string"
            },
            {
              "internalType": "bytes32",
              "name": "studentPublicKey",
              "type": "bytes32"
            },
            {
              "internalType": "bytes32",
              "name": "universityPublicKey",
              "type": "bytes32"
            },
            {
              "internalType": "string",
              "name": "issuedBy",
              "type": "string"
            },
            {
              "internalType": "string",
              "name": "eventName",
              "type": "string"
            },
            {
              "internalType": "uint256",
              "name": "rank",
              "type": "uint256"
            }
          ],
          "internalType": "struct Certificates.CertificateInfo[]",
          "name": "",
          "type": "tuple[]"
        }
      ],
      "stateMutability": "view",
      "type": "function",
      "constant": true
    },
    {
      "inputs": [
        {
          "internalType": "address",
          "name": "_universityAddress",
          "type": "address"
        }
      ],
      "name": "getNotRegisteredStudents",
      "outputs": [
        {
          "internalType": "address[]",
          "name": "",
          "type": "address[]"
        }
      ],
      "stateMutability": "view",
      "type": "function",
      "constant": true
    },
    {
      "inputs": [
        {
          "internalType": "address",
          "name": "user",
          "type": "address"
        }
      ],
      "name": "getStudent",
      "outputs": [
        {
          "components": [
            {
              "internalType": "address",
              "name": "studentPublicKey",
              "type": "address"
            },
            {
              "internalType": "string",
              "name": "name",
              "type": "string"
            },
            {
              "internalType": "string",
              "name": "course",
              "type": "string"
            },
            {
              "internalType": "uint16",
              "name": "yearOfJoining",
              "type": "uint16"
            },
            {
              "internalType": "uint16",
              "name": "yearOfPassing",
              "type": "uint16"
            },
            {
              "internalType": "bool",
              "name": "registered",
              "type": "bool"
            }
          ],
          "internalType": "struct StudentRegistry.Student",
          "name": "",
          "type": "tuple"
        }
      ],
      "stateMutability": "view",
      "type": "function",
      "constant": true
    },
    {
      "inputs": [
        {
          "internalType": "address",
          "name": "_university",
          "type": "address"
        },
        {
          "internalType": "address",
          "name": "_student",
          "type": "address"
        }
      ],
      "name": "getStudentuni",
      "outputs": [
        {
          "internalType": "address",
          "name": "",
          "type": "address"
        }
      ],
      "stateMutability": "view",
      "type": "function",
      "constant": true
    },
    {
      "inputs": [
        {
          "internalType": "address",
          "name": "user",
          "type": "address"
        }
      ],
      "name": "getTokenURIsByAddress",
      "outputs": [
        {
          "internalType": "string[]",
          "name": "",
          "type": "string[]"
        }
      ],
      "stateMutability": "view",
      "type": "function",
      "constant": true
    },
    {
      "inputs": [
        {
          "internalType": "address",
          "name": "user",
          "type": "address"
        }
      ],
      "name": "getUniversityByAdd",
      "outputs": [
        {
          "internalType": "address",
          "name": "universityAddress",
          "type": "address"
        },
        {
          "internalType": "string",
          "name": "name",
          "type": "string"
        },
        {
          "internalType": "string",
          "name": "country",
          "type": "string"
        },
        {
          "internalType": "string",
          "name": "state",
          "type": "string"
        },
        {
          "internalType": "string",
          "name": "city",
          "type": "string"
        },
        {
          "internalType": "string",
          "name": "pincode",
          "type": "string"
        },
        {
          "internalType": "string",
          "name": "studentDomain",
          "type": "string"
        }
      ],
      "stateMutability": "view",
      "type": "function",
      "constant": true
    },
    {
      "inputs": [
        {
          "internalType": "address",
          "name": "user",
          "type": "address"
        }
      ],
      "name": "getUniversityNameByAdd",
      "outputs": [
        {
          "internalType": "string",
          "name": "name",
          "type": "string"
        }
      ],
      "stateMutability": "view",
      "type": "function",
      "constant": true
    },
    {
      "inputs": [
        {
          "internalType": "address",
          "name": "owner",
          "type": "address"
        },
        {
          "internalType": "address",
          "name": "operator",
          "type": "address"
        }
      ],
      "name": "isApprovedForAll",
      "outputs": [
        {
          "internalType": "bool",
          "name": "",
          "type": "bool"
        }
      ],
      "stateMutability": "view",
      "type": "function",
      "constant": true
    },
    {
      "inputs": [
        {
          "internalType": "address",
          "name": "user",
          "type": "address"
        }
      ],
      "name": "isregister",
      "outputs": [
        {
          "internalType": "bool",
          "name": "",
          "type": "bool"
        }
      ],
      "stateMutability": "view",
      "type": "function",
      "constant": true
    },
    {
      "inputs": [],
      "name": "name",
      "outputs": [
        {
          "internalType": "string",
          "name": "",
          "type": "string"
        }
      ],
      "stateMutability": "view",
      "type": "function",
      "constant": true
    },
    {
      "inputs": [],
      "name": "owner",
      "outputs": [
        {
          "internalType": "address",
          "name": "",
          "type": "address"
        }
      ],
      "stateMutability": "view",
      "type": "function",
      "constant": true
    },
    {
      "inputs": [
        {
          "internalType": "uint256",
          "name": "tokenId",
          "type": "uint256"
        }
      ],
      "name": "ownerOf",
      "outputs": [
        {
          "internalType": "address",
          "name": "",
          "type": "address"
        }
      ],
      "stateMutability": "view",
      "type": "function",
      "constant": true
    },
    {
      "inputs": [
        {
          "internalType": "address",
          "name": "user",
          "type": "address"
        },
        {
          "internalType": "address",
          "name": "univadd",
          "type": "address"
        },
        {
          "internalType": "bytes32",
          "name": "_publicKey",
          "type": "bytes32"
        },
        {
          "internalType": "string",
          "name": "_name",
          "type": "string"
        },
        {
          "internalType": "string",
          "name": "_course",
          "type": "string"
        },
        {
          "internalType": "uint16",
          "name": "_yearOfJoining",
          "type": "uint16"
        },
        {
          "internalType": "uint16",
          "name": "_yearOfPassing",
          "type": "uint16"
        }
      ],
      "name": "registerStudent",
      "outputs": [],
      "stateMutability": "nonpayable",
      "type": "function"
    },
    {
      "inputs": [
        {
          "internalType": "address",
          "name": "user",
          "type": "address"
        },
        {
          "internalType": "string",
          "name": "_name",
          "type": "string"
        },
        {
          "internalType": "string",
          "name": "_country",
          "type": "string"
        },
        {
          "internalType": "string",
          "name": "_state",
          "type": "string"
        },
        {
          "internalType": "string",
          "name": "_city",
          "type": "string"
        },
        {
          "internalType": "string",
          "name": "_pincode",
          "type": "string"
        },
        {
          "internalType": "string",
          "name": "_studentDomain",
          "type": "string"
        },
        {
          "internalType": "bytes32",
          "name": "_publicKey",
          "type": "bytes32"
        }
      ],
      "name": "registerUniversity",
      "outputs": [],
      "stateMutability": "nonpayable",
      "type": "function"
    },
    {
      "inputs": [],
      "name": "renounceOwnership",
      "outputs": [],
      "stateMutability": "nonpayable",
      "type": "function"
    },
    {
      "inputs": [
        {
          "internalType": "address",
          "name": "from",
          "type": "address"
        },
        {
          "internalType": "address",
          "name": "to",
          "type": "address"
        },
        {
          "internalType": "uint256",
          "name": "tokenId",
          "type": "uint256"
        }
      ],
      "name": "safeTransferFrom",
      "outputs": [],
      "stateMutability": "nonpayable",
      "type": "function"
    },
    {
      "inputs": [
        {
          "internalType": "address",
          "name": "from",
          "type": "address"
        },
        {
          "internalType": "address",
          "name": "to",
          "type": "address"
        },
        {
          "internalType": "uint256",
          "name": "tokenId",
          "type": "uint256"
        },
        {
          "internalType": "bytes",
          "name": "data",
          "type": "bytes"
        }
      ],
      "name": "safeTransferFrom",
      "outputs": [],
      "stateMutability": "nonpayable",
      "type": "function"
    },
    {
      "inputs": [
        {
          "internalType": "address",
          "name": "operator",
          "type": "address"
        },
        {
          "internalType": "bool",
          "name": "approved",
          "type": "bool"
        }
      ],
      "name": "setApprovalForAll",
      "outputs": [],
      "stateMutability": "nonpayable",
      "type": "function"
    },
    {
      "inputs": [
        {
          "internalType": "address",
          "name": "",
          "type": "address"
        }
      ],
      "name": "studentApprovalIds",
      "outputs": [
        {
          "internalType": "uint256",
          "name": "",
          "type": "uint256"
        }
      ],
      "stateMutability": "view",
      "type": "function",
      "constant": true
    },
    {
      "inputs": [
        {
          "internalType": "address",
          "name": "",
          "type": "address"
        },
        {
          "internalType": "uint256",
          "name": "",
          "type": "uint256"
        }
      ],
      "name": "studentCertificates",
      "outputs": [
        {
          "internalType": "uint256",
          "name": "",
          "type": "uint256"
        }
      ],
      "stateMutability": "view",
      "type": "function",
      "constant": true
    },
    {
      "inputs": [
        {
          "internalType": "address",
          "name": "",
          "type": "address"
        },
        {
          "internalType": "uint256",
          "name": "",
          "type": "uint256"
        }
      ],
      "name": "studentDegree",
      "outputs": [
        {
          "internalType": "uint256",
          "name": "",
          "type": "uint256"
        }
      ],
      "stateMutability": "view",
      "type": "function",
      "constant": true
    },
    {
      "inputs": [
        {
          "internalType": "address",
          "name": "",
          "type": "address"
        }
      ],
      "name": "students",
      "outputs": [
        {
          "internalType": "address",
          "name": "studentPublicKey",
          "type": "address"
        },
        {
          "internalType": "string",
          "name": "name",
          "type": "string"
        },
        {
          "internalType": "string",
          "name": "course",
          "type": "string"
        },
        {
          "internalType": "uint16",
          "name": "yearOfJoining",
          "type": "uint16"
        },
        {
          "internalType": "uint16",
          "name": "yearOfPassing",
          "type": "uint16"
        },
        {
          "internalType": "bool",
          "name": "registered",
          "type": "bool"
        }
      ],
      "stateMutability": "view",
      "type": "function",
      "constant": true
    },
    {
      "inputs": [
        {
          "internalType": "bytes4",
          "name": "interfaceId",
          "type": "bytes4"
        }
      ],
      "name": "supportsInterface",
      "outputs": [
        {
          "internalType": "bool",
          "name": "",
          "type": "bool"
        }
      ],
      "stateMutability": "view",
      "type": "function",
      "constant": true
    },
    {
      "inputs": [],
      "name": "symbol",
      "outputs": [
        {
          "internalType": "string",
          "name": "",
          "type": "string"
        }
      ],
      "stateMutability": "view",
      "type": "function",
      "constant": true
    },
    {
      "inputs": [
        {
          "internalType": "uint256",
          "name": "tokenId",
          "type": "uint256"
        }
      ],
      "name": "tokenURI",
      "outputs": [
        {
          "internalType": "string",
          "name": "",
          "type": "string"
        }
      ],
      "stateMutability": "view",
      "type": "function",
      "constant": true
    },
    {
      "inputs": [
        {
          "internalType": "address",
          "name": "from",
          "type": "address"
        },
        {
          "internalType": "address",
          "name": "to",
          "type": "address"
        },
        {
          "internalType": "uint256",
          "name": "tokenId",
          "type": "uint256"
        }
      ],
      "name": "transferFrom",
      "outputs": [],
      "stateMutability": "nonpayable",
      "type": "function"
    },
    {
      "inputs": [
        {
          "internalType": "address",
          "name": "newOwner",
          "type": "address"
        }
      ],
      "name": "transferOwnership",
      "outputs": [],
      "stateMutability": "nonpayable",
      "type": "function"
    },
    {
      "inputs": [
        {
          "internalType": "address",
          "name": "",
          "type": "address"
        }
      ],
      "name": "universities",
      "outputs": [
        {
          "internalType": "address",
          "name": "universityAddress",
          "type": "address"
        },
        {
          "internalType": "string",
          "name": "name",
          "type": "string"
        },
        {
          "components": [
            {
              "internalType": "string",
              "name": "country",
              "type": "string"
            },
            {
              "internalType": "string",
              "name": "state",
              "type": "string"
            },
            {
              "internalType": "string",
              "name": "city",
              "type": "string"
            },
            {
              "internalType": "string",
              "name": "pincode",
              "type": "string"
            }
          ],
          "internalType": "struct UniversityRegistryy.Location",
          "name": "location",
          "type": "tuple"
        },
        {
          "internalType": "string",
          "name": "studentDomain",
          "type": "string"
        },
        {
          "internalType": "bytes32",
          "name": "publicKey",
          "type": "bytes32"
        },
        {
          "internalType": "bool",
          "name": "res",
          "type": "bool"
        }
      ],
      "stateMutability": "view",
      "type": "function",
      "constant": true
    },
    {
      "inputs": [
        {
          "internalType": "bytes32",
          "name": "",
          "type": "bytes32"
        },
        {
          "internalType": "uint256",
          "name": "",
          "type": "uint256"
        }
      ],
      "name": "universityCertificates",
      "outputs": [
        {
          "internalType": "uint256",
          "name": "",
          "type": "uint256"
        }
      ],
      "stateMutability": "view",
      "type": "function",
      "constant": true
    },
    {
      "inputs": [
        {
          "internalType": "bytes32",
          "name": "",
          "type": "bytes32"
        },
        {
          "internalType": "uint256",
          "name": "",
          "type": "uint256"
        }
      ],
      "name": "universityDegree",
      "outputs": [
        {
          "internalType": "uint256",
          "name": "",
          "type": "uint256"
        }
      ],
      "stateMutability": "view",
      "type": "function",
      "constant": true
    },
    {
      "inputs": [
        {
          "internalType": "uint256",
          "name": "",
          "type": "uint256"
        }
      ],
      "name": "universityPublicKeys",
      "outputs": [
        {
          "internalType": "address",
          "name": "",
          "type": "address"
        }
      ],
      "stateMutability": "view",
      "type": "function",
      "constant": true
    },
    {
      "inputs": [
        {
          "internalType": "address",
          "name": "",
          "type": "address"
        },
        {
          "internalType": "uint256",
          "name": "",
          "type": "uint256"
        }
      ],
      "name": "universityStudentList",
      "outputs": [
        {
          "internalType": "address",
          "name": "",
          "type": "address"
        }
      ],
      "stateMutability": "view",
      "type": "function",
      "constant": true
    },
    {
      "inputs": [
        {
          "internalType": "address",
          "name": "",
          "type": "address"
        },
        {
          "internalType": "address",
          "name": "",
          "type": "address"
        }
      ],
      "name": "universityStudents",
      "outputs": [
        {
          "internalType": "address",
          "name": "studentPublicKey",
          "type": "address"
        },
        {
          "internalType": "string",
          "name": "name",
          "type": "string"
        },
        {
          "internalType": "string",
          "name": "course",
          "type": "string"
        },
        {
          "internalType": "uint16",
          "name": "yearOfJoining",
          "type": "uint16"
        },
        {
          "internalType": "uint16",
          "name": "yearOfPassing",
          "type": "uint16"
        },
        {
          "internalType": "bool",
          "name": "registered",
          "type": "bool"
        }
      ],
      "stateMutability": "view",
      "type": "function",
      "constant": true
    },
    {
      "inputs": [
        {
          "internalType": "bytes",
          "name": "_signature",
          "type": "bytes"
        },
        {
          "internalType": "bytes32",
          "name": "messageHash",
          "type": "bytes32"
        },
        {
          "internalType": "uint256",
          "name": "_certificateId",
          "type": "uint256"
        },
        {
          "internalType": "address",
          "name": "user",
          "type": "address"
        }
      ],
      "name": "verifyCertificate",
      "outputs": [
        {
          "internalType": "bool",
          "name": "",
          "type": "bool"
        }
      ],
      "stateMutability": "view",
      "type": "function",
      "constant": true
    },
    {
      "inputs": [
        {
          "internalType": "address",
          "name": "user",
          "type": "address"
        },
        {
          "internalType": "address",
          "name": "_studentAddress",
          "type": "address"
        },
        {
          "internalType": "string",
          "name": "_studentName",
          "type": "string"
        },
        {
          "internalType": "string",
          "name": "_specialization",
          "type": "string"
        },
        {
          "internalType": "string",
          "name": "_dateOfIssue",
          "type": "string"
        },
        {
          "internalType": "bytes32",
          "name": "_studentPublicKey",
          "type": "bytes32"
        },
        {
          "internalType": "bytes32",
          "name": "_universityPublicKey",
          "type": "bytes32"
        },
        {
          "internalType": "string",
          "name": "_tokenURI",
          "type": "string"
        },
        {
          "internalType": "bytes",
          "name": "_signature",
          "type": "bytes"
        },
        {
          "internalType": "bytes32",
          "name": "messageHash",
          "type": "bytes32"
        },
        {
          "internalType": "string",
          "name": "_issuedBy",
          "type": "string"
        }
      ],
      "name": "issueCertificate",
      "outputs": [
        {
          "internalType": "uint256",
          "name": "",
          "type": "uint256"
        }
      ],
      "stateMutability": "nonpayable",
      "type": "function"
    },
    {
      "inputs": [
        {
          "internalType": "address",
          "name": "user",
          "type": "address"
        },
        {
          "internalType": "address",
          "name": "_studentAddress",
          "type": "address"
        },
        {
          "internalType": "string",
          "name": "_studentName",
          "type": "string"
        },
        {
          "internalType": "string",
          "name": "_certificateType",
          "type": "string"
        },
        {
          "internalType": "string",
          "name": "_dateOfIssue",
          "type": "string"
        },
        {
          "internalType": "bytes32",
          "name": "_studentPublicKey",
          "type": "bytes32"
        },
        {
          "internalType": "bytes32",
          "name": "_universityPublicKey",
          "type": "bytes32"
        },
        {
          "internalType": "string",
          "name": "_tokenURI",
          "type": "string"
        },
        {
          "internalType": "bytes",
          "name": "_signature",
          "type": "bytes"
        },
        {
          "internalType": "bytes32",
          "name": "messageHash",
          "type": "bytes32"
        },
        {
          "internalType": "string",
          "name": "_issuedBy",
          "type": "string"
        },
        {
          "internalType": "string",
          "name": "_eventName",
          "type": "string"
        },
        {
          "internalType": "uint256",
          "name": "_rank",
          "type": "uint256"
        }
      ],
      "name": "issueCertificate",
      "outputs": [
        {
          "internalType": "uint256",
          "name": "",
          "type": "uint256"
        }
      ],
      "stateMutability": "nonpayable",
      "type": "function"
    },
    {
      "inputs": [
        {
          "internalType": "address",
          "name": "_uniadd",
          "type": "address"
        },
        {
          "internalType": "uint256",
          "name": "_year",
          "type": "uint256"
        }
      ],
      "name": "getDegreeByUniversityAndYear",
      "outputs": [
        {
          "internalType": "uint256[]",
          "name": "",
          "type": "uint256[]"
        }
      ],
      "stateMutability": "view",
      "type": "function",
      "constant": true
    },
    {
      "inputs": [
        {
          "internalType": "uint256",
          "name": "year",
          "type": "uint256"
        }
      ],
      "name": "getDegreesByYear",
      "outputs": [
        {
          "components": [
            {
              "internalType": "uint256",
              "name": "degreeId",
              "type": "uint256"
            },
            {
              "internalType": "string",
              "name": "studentName",
              "type": "string"
            },
            {
              "internalType": "address",
              "name": "studentAddress",
              "type": "address"
            },
            {
              "internalType": "address",
              "name": "universityAddress",
              "type": "address"
            },
            {
              "internalType": "string",
              "name": "specialization",
              "type": "string"
            },
            {
              "internalType": "string",
              "name": "dateOfIssue",
              "type": "string"
            },
            {
              "internalType": "bytes32",
              "name": "studentPublicKey",
              "type": "bytes32"
            },
            {
              "internalType": "bytes32",
              "name": "universityPublicKey",
              "type": "bytes32"
            },
            {
              "internalType": "string",
              "name": "issuedBy",
              "type": "string"
            }
          ],
          "internalType": "struct Degrees.DegreeInfo[]",
          "name": "",
          "type": "tuple[]"
        }
      ],
      "stateMutability": "view",
      "type": "function",
      "constant": true
    },
    {
      "inputs": [
        {
          "internalType": "bytes",
          "name": "_signature",
          "type": "bytes"
        },
        {
          "internalType": "bytes32",
          "name": "messageHash",
          "type": "bytes32"
        },
        {
          "internalType": "uint256",
          "name": "_degreeId",
          "type": "uint256"
        },
        {
          "internalType": "address",
          "name": "user",
          "type": "address"
        }
      ],
      "name": "verifyDegree",
      "outputs": [
        {
          "internalType": "bool",
          "name": "",
          "type": "bool"
        }
      ],
      "stateMutability": "view",
      "type": "function",
      "constant": true
    },
    {
      "inputs": [
        {
          "internalType": "uint256",
          "name": "degreeId",
          "type": "uint256"
        }
      ],
      "name": "getDegreeById",
      "outputs": [
        {
          "internalType": "string",
          "name": "studentName",
          "type": "string"
        },
        {
          "internalType": "address",
          "name": "studentAddress",
          "type": "address"
        },
        {
          "internalType": "address",
          "name": "universityAddress",
          "type": "address"
        },
        {
          "internalType": "string",
          "name": "specialization",
          "type": "string"
        },
        {
          "internalType": "string",
          "name": "dateOfIssue",
          "type": "string"
        },
        {
          "internalType": "bytes32",
          "name": "studentPublicKey",
          "type": "bytes32"
        },
        {
          "internalType": "bytes32",
          "name": "universityPublicKey",
          "type": "bytes32"
        },
        {
          "internalType": "bytes",
          "name": "signature",
          "type": "bytes"
        },
        {
          "internalType": "string",
          "name": "issuedBys",
          "type": "string"
        }
      ],
      "stateMutability": "view",
      "type": "function",
      "constant": true
    },
    {
      "inputs": [
        {
          "internalType": "address",
          "name": "studentAddress",
          "type": "address"
        }
      ],
      "name": "getDegreeByStudent",
      "outputs": [
        {
          "components": [
            {
              "internalType": "uint256",
              "name": "degreeId",
              "type": "uint256"
            },
            {
              "internalType": "string",
              "name": "studentName",
              "type": "string"
            },
            {
              "internalType": "address",
              "name": "studentAddress",
              "type": "address"
            },
            {
              "internalType": "address",
              "name": "universityAddress",
              "type": "address"
            },
            {
              "internalType": "string",
              "name": "specialization",
              "type": "string"
            },
            {
              "internalType": "string",
              "name": "dateOfIssue",
              "type": "string"
            },
            {
              "internalType": "bytes32",
              "name": "studentPublicKey",
              "type": "bytes32"
            },
            {
              "internalType": "bytes32",
              "name": "universityPublicKey",
              "type": "bytes32"
            },
            {
              "internalType": "string",
              "name": "issuedBy",
              "type": "string"
            }
          ],
          "internalType": "struct Degrees.DegreeInfo[]",
          "name": "",
          "type": "tuple[]"
        }
      ],
      "stateMutability": "view",
      "type": "function",
      "constant": true
    },
    {
      "inputs": [
        {
          "internalType": "address",
          "name": "user",
          "type": "address"
        }
      ],
      "name": "getdegreeTokenURIsByAddress",
      "outputs": [
        {
          "internalType": "string[]",
          "name": "",
          "type": "string[]"
        }
      ],
      "stateMutability": "view",
      "type": "function",
      "constant": true
    },
    {
      "inputs": [
        {
          "internalType": "bytes32",
          "name": "_universityPublicKey",
          "type": "bytes32"
        }
      ],
      "name": "getDegreesByUniversity",
      "outputs": [
        {
          "components": [
            {
              "internalType": "uint256",
              "name": "degreeId",
              "type": "uint256"
            },
            {
              "internalType": "string",
              "name": "studentName",
              "type": "string"
            },
            {
              "internalType": "address",
              "name": "studentAddress",
              "type": "address"
            },
            {
              "internalType": "address",
              "name": "universityAddress",
              "type": "address"
            },
            {
              "internalType": "string",
              "name": "specialization",
              "type": "string"
            },
            {
              "internalType": "string",
              "name": "dateOfIssue",
              "type": "string"
            },
            {
              "internalType": "bytes32",
              "name": "studentPublicKey",
              "type": "bytes32"
            },
            {
              "internalType": "bytes32",
              "name": "universityPublicKey",
              "type": "bytes32"
            },
            {
              "internalType": "string",
              "name": "issuedBy",
              "type": "string"
            }
          ],
          "internalType": "struct Degrees.DegreeInfo[]",
          "name": "",
          "type": "tuple[]"
        }
      ],
      "stateMutability": "view",
      "type": "function",
      "constant": true
    }
  ],
  "bytecode": "0x6080346200036c576001600160401b039060408181018381118382101762000356578152601582526020917f556e69766572736974794365727469666963617465000000000000000000000083820152815193828501858110828211176200035657835260058552641550d1549560da1b84860152815181811162000356576000948554916001948584811c941680156200034b575b8385101462000337578190601f94858111620002e4575b5083908583116001146200028057899262000274575b5050600019600383901b1c191690851b1786555b8651928311620002605783548481811c9116801562000255575b828210146200024157828111620001f9575b50809183116001146200019257508495829394959262000186575b5050600019600383901b1c191690821b1790555b60078054336001600160a01b03198216811790925591519290916001600160a01b0316907f8be0079c531659141344cd1fd0a4f28419497f9722a3daafe3b4186f6b6457e09080a3615ea49081620003728239f35b0151905038806200011d565b90601f198316968487528287209287905b898210620001e1575050838596979810620001c7575b505050811b01905562000131565b015160001960f88460031b161c19169055388080620001b9565b808785968294968601518155019501930190620001a3565b8487528187208380860160051c82019284871062000237575b0160051c019085905b8281106200022b57505062000102565b8881550185906200021b565b9250819262000212565b634e487b7160e01b87526022600452602487fd5b90607f1690620000f0565b634e487b7160e01b86526041600452602486fd5b015190503880620000c2565b898052848a208894509190601f1984168b5b87828210620002cd5750508411620002b3575b505050811b018655620000d6565b015160001960f88460031b161c19169055388080620002a5565b8385015186558b9790950194938401930162000292565b9091508880528389208580850160051c8201928686106200032d575b918991869594930160051c01915b8281106200031e575050620000ac565b8b81558594508991016200030e565b9250819262000300565b634e487b7160e01b88526022600452602488fd5b93607f169362000095565b634e487b7160e01b600052604160045260246000fd5b600080fdfe608080604052600436101561001357600080fd5b60003560e01c90816301ffc9a7146145ef5750806306fdde031461454c578063081812fc1461452e578063095ea7b3146143b45780630bf665c614613d045780630c74c3881461201a578063148dcd30146111a957806316f43f4c14613c6f5780631b964a9b14613bc85780631bb2f11114613b9757806323b872dd14613b7357806325a1b55814613ade5780633c96d38514613a4957806342842e0e14613a1657806349393ba71461395157806351766af9146138ef5780636352211e146138bf57806364b3cb64146136f2578063663b3e221461362357806367764b2614613605578063677b1917146135705780636b7b44d7146134ba5780636ca27ca01461337f57806370a08231146132e8578063715018a61461328b5780637ddddd1a14612a4b5780638248079c146129f05780638a789f3f1461223b5780638da5cb5b1461221257806391d2bff81461201f57806395933b151461201a57806395d89b4114611f4f5780639861a3e214611f1e5780639d735caf14611d9e5780639e5d744d14611c5f578063a22cb46514611b84578063a51e2dbe14611b2b578063a6c807a914611a9e578063ae0f820d14611a6d578063b88d4fde146119f7578063b926dc3e146118b1578063ba606dae146111e3578063c033c6bf146111a9578063c3934f0e1461115f578063c87b56dd1461112c578063cdaab17e14611067578063d01cd50414610e65578063d545973314610be7578063de76463414610b2e578063e509d6cf14610a9e578063e6955bb814610a54578063e83a7b0814610991578063e985e9c51461093b578063ea092518146106fb578063f0995560146105dd578063f2fde38b14610519578063f563f33f146104b9578063f83a09bc1461047a5763feff6812146102a857600080fd5b34610475576060366003190112610475576102c16146b4565b6001600160a01b036044358181169260243592909184900361047557836000526020916008835260ff600860406000200154161561042257169283600052600a825282604060002054036103e75783600052600e825260ff600360406000200154831c166103a2579160016040927fd287853cda8eb90f3697f47f8948414b47fe30f1f1bb0b37a46e9431fc536cf89486600052600e825260038560002001906401000000009064ff0000000019928284825416179055600052601183528560002088600052835260038660002001918254161790558351928352820152a2005b60405162461bcd60e51b815260048101839052601d60248201527f53747564656e7420697320616c726561647920726567697374657265640000006044820152606490fd5b60405162461bcd60e51b8152600481018390526013602482015272125b9d985b1a5908185c1c1c9bdd985b081251606a1b6044820152606490fd5b60405162461bcd60e51b815260048101849052602560248201527f43616c6c6572206973206e6f742061207265676973746572656420756e697665604482015264727369747960d81b6064820152608490fd5b600080fd5b3461047557610488366149f4565b90600052601660205260406000208054821015610475576020916104ab91614a0a565b90546040519160031b1c8152f35b34610475576020366003190112610475576001600160a01b036104f7816104de6146b4565b169182600052600e602052604060002054161515615df8565b600052600e602052602060ff600360406000200154821c166040519015158152f35b34610475576020366003190112610475576105326146b4565b61053a614ef5565b6001600160a01b0390811690811561058957600754826001600160601b0360a01b821617600755167f8be0079c531659141344cd1fd0a4f28419497f9722a3daafe3b4186f6b6457e0600080a3005b60405162461bcd60e51b815260206004820152602660248201527f4f776e61626c653a206e6577206f776e657220697320746865207a65726f206160448201526564647265737360d01b6064820152608490fd5b34610475576020366003190112610475576001600160a01b03806105ff6146b4565b1660005260086020526040600020908154166040519161062d836106268160018501614b9f565b0384614769565b61063960028201614e89565b6106ea604051610657816106508160068801614b9f565b0382614769565b6106dc60ff600860078701549601541693610684604051988998895260c060208a015260c0890190614674565b878103604089015260606106cb6106b96106a78551608086526080860190614674565b60208601518582036020870152614674565b60408501518482036040860152614674565b920151906060818403910152614674565b908582036060870152614674565b916080840152151560a08301520390f35b34610475576020366003190112610475576001600160a01b0361071c6146b4565b16600052600f60205260406000206040518082602082945493848152019060005260206000209260005b81811061092257505061075b92500382614769565b6107658151615c37565b9060005b8151811015610910578061078061090b9284615acb565b5180600052601360205260406000206040519061079c826146fc565b6040516107ad816106508185614b9f565b825260018101546001600160a01b039081166020840152600282015416604080840191909152516107e5816106508160038601614b9f565b60608301526040516107fe816106508160048601614b9f565b6080830152600581015460a0830152600681015460c083015260405161082b816106508160078601614b9f565b60e0830152604051610844816106508160088601614b9f565b610100830152600a60405191610861836106268160098501614b9f565b826101208501520154918261014082015280519060018060a01b0360208201511660018060a01b03604083015116606083015160808401519160a08501519361010060c0870151960151966040519a6108b98c6146fc565b8b5260208b015260408a01526060890152608088015260a087015260c086015260e08501526101008401526101208301526101408201526108fa8286615acb565b526109058185615acb565b506154ab565b610769565b6040518061091e8582614a57565b0390f35b8454835260019485019486945060209093019201610746565b34610475576040366003190112610475576109546146b4565b61095c6146ca565b9060018060a01b03809116600052600560205260406000209116600052602052602060ff604060002054166040519015158152f35b3461047557602036600319011261047557600435600052601560205260406000206040516109c3816106508185614b9f565b61091e600860018060a01b039384600182015416946002820154166040516109f2816106508160038701614b9f565b604051610a06816106508160048801614b9f565b600584015491600685015493610a4860405196610a3188610a2a8160078501614b9f565b0389614769565b610a41604051809a819301614b9f565b0388614769565b604051998a998a614dc1565b3461047557604036600319011261047557610a6d6146b4565b6001600160a01b0316600090815260106020526040902080546024359190821015610475576020916104ab91614a0a565b3461047557600036600319011261047557604051806009549182815260208091019260096000527f6e1540171b6c0c960b71a7020d9f60077f6af931a8bbf590da0223dacf75c7af916000905b828210610b0e5761091e85610b0281890382614769565b60405191829182614e45565b83546001600160a01b031686529485019460019384019390910190610aeb565b34610475576040366003190112610475576020610b496146b4565b610b516146ca565b60018060a01b038092166000526011835281604060002091166000528252604060002060ff600360405192610b8584614718565b848154168452604051610b9f816106508160018601614b9f565b86850152604051610bb7816106508160028601614b9f565b6040850152015461ffff80821660608501528160101c166080840152841c16151560a08201525116604051908152f35b3461047557602080600319360112610475576001600160a01b0380610c0a6146b4565b168060005260088352610c2582604060002054161515615df8565b600052600b8252604060002091604051808483829654938481520190600052836000209260005b85828210610e4d57505050610c6392500384614769565b60009060005b8451811015610cbc5783610c7d8287615acb565b5116600052600e825260ff600360406000200154831c16610ca7575b610ca2906154ab565b610c69565b91610cb4610ca2916154ab565b929050610c99565b5090610cc781615a82565b90610cd56040519283614769565b808252610ce4601f1991615a82565b018260005b828110610e375750505060009060005b8551811015610dd95784610d0d8288615acb565b5116600052600e80855260ff600391818360406000200154881c16610d3e575b505050610d39906154ab565b610cf9565b91839591610dd09389610d54610d39978d615acb565b5116600052885260406000209160405192610d6e84614718565b8a8154168452604051610d88816106508160018601614b9f565b8a850152604051610da0816106508160028601614b9f565b6040850152015461ffff80821660608501528160101c166080840152881c16151560a08201526108fa8286615acb565b92908780610d2d565b604080518581528351818701819052600092600582901b830181019186890191899085015b828710610e0b5785850386f35b909192938280610e27600193603f198a82030186528851614d5e565b9601920196019592919092610dfe565b610e3f615e3b565b828286010152018390610ce9565b85548816845260019586019589955093019201610c4c565b3461047557604036600319011261047557610e7e6146b4565b60243560005260209060148252604060002091604051808483829654938481520190600052836000209260005b8582821061105157505050610ec292500384614769565b610ecc8351615a99565b6001600160a01b039290916000918416825b865181101561100e57610ef18188615acb565b51806000526013845282876040600020604051610f0d816146fc565b604051610f1e816106508186614b9f565b81528260018301541688820152610140600a846002850154169360408401948552604051610f53816106508160038601614b9f565b6060850152604051610f6c816106508160048601614b9f565b6080850152600581015460a0850152600681015460c0850152604051610f99816106508160078601614b9f565b60e0850152604051610fb2816106508160088601614b9f565b610100850152604051610fcc816106508160098601614b9f565b6101208501520154910152511614610fee575b50610fe9906154ab565b610ede565b8461100791611001610fe9949789615acb565b526154ab565b9390610fdf565b50505061101a81615a99565b9160005b828110611033576040518061091e8682614c85565b8061104161104c9284615acb565b516110018287615acb565b61101e565b8554845260019586019589955093019201610eab565b3461047557602080600319360112610475576001600160a01b036110896146b4565b16600052601081526040600020906040518092839183825491828152019160005283600020936000905b82821061111257846110c781860382614769565b6110d18151615d20565b9060005b815181101561110457806110f56110ef6110ff9385615acb565b51615457565b6108fa8286615acb565b6110d5565b6040518061091e8582614992565b8554845260019586019587955093810193909101906110b3565b346104755760203660031901126104755761091e61114b600435615457565b604051918291602083526020830190614674565b34610475576040366003190112610475576111786146b4565b6001600160a01b03166000908152600f6020526040902080546024359190821015610475576020916104ab91614a0a565b34610475576020366003190112610475576001600160a01b036111ca6146b4565b16600052600a6020526020604060002054604051908152f35b346104755760e0366003190112610475576111fc6146b4565b6112046146ca565b906064356001600160401b038111610475576112249036906004016147a5565b906084356001600160401b038111610475576112449036906004016147a5565b9260a43561ffff811681036104755760c43561ffff811681036104755760018060a01b038316600052600860205261128660ff60086040600020015416615df8565b60405161129281614718565b6001600160a01b03858116808352602080840189815260408086018c905261ffff888116606088015287166080870152600060a08701819052938452600e9092529120835181546001600160a01b0319169316929092178255518051919291906001600160401b03821161169757819061131c826113136001880154614b65565b60018801615510565b602090601f831160011461183f57600092611834575b50508160011b916000199060031b1c19161760018301555b60408101518051906001600160401b0382116116975761137a826113716002870154614b65565b60028701615510565b602090601f83116001146117b857611404938361ffff97969460039460a0946000926117ad575b50508160011b9160001990861b1c19161760028501555b86606082015116838501549063ffff0000608084015160101b169163ffffffff19161717838501550151151591019064ff00000000825491151560201b169064ff000000001916179055565b816040519361141285614718565b6001600160a01b0387811680875260208088018b81526040808a018e9052959094166060890152959094166080870152600060a08701819052878216815260118652838120948152939094529120835181546001600160a01b0319169316929092178255518051906001600160401b0382116116975781906114a48261149b6001870154614b65565b60018701615510565b602090601f831160011461173b57600092611730575b50508160011b916000199060031b1c19161760018201555b60408201518051906001600160401b03821161169757611502826114f96002860154614b65565b60028601615510565b602090601f83116001146116b857928260a09360039361158597966000926116ad575b50508160011b9160001990851b1c19161760028201555b019161ffff60608201511683549063ffff0000608084015160101b169163ffffffff1916171783550151151564ff00000000825491151560201b169064ff000000001916179055565b6001600160a01b03166000908152600b6020526040902080549390600160401b85101561169757846115dd9160017f67857a7e83f99a32bd4dba6bed796c2a6a07c0de06ef7ef5985ab49ad56e77bd97018155614a0a565b81549060031b9060018060a01b038516821b9160018060a01b03901b191617905561168c670de0b6b3a764000060405160208101906001600160601b03198660601b16825242603482015260443560548201526054815261163d81614733565b519020069160018060a01b038416600052600a6020528260406000205561167e60405195869560018060a01b03168652608060208701526080860190614674565b908482036040860152614674565b9060608301520390a1005b634e487b7160e01b600052604160045260246000fd5b015190508b80611525565b906002840160005260206000209160005b601f198516811061171857508360039361158597969360019360a097601f19811610611700575b505050811b01600282015561153c565b015160001983871b60f8161c191690558b80806116f0565b919260206001819286850151815501940192016116c9565b0151905088806114ba565b9250600184016000526020600020906000935b601f1984168510611792576001945083601f19811610611779575b505050811b0160018201556114d2565b015160001960f88460031b161c19169055888080611769565b8181015183556020948501946001909301929091019061174e565b015190508e806113a1565b906002850160005260206000209160005b601f198516811061181c57509360018460039460a0946114049861ffff9b9a98601f19811610611804575b505050811b0160028501556113b8565b015160001983881b60f8161c191690558e80806117f4565b919260206001819286850151815501940192016117c9565b015190508a80611332565b9250600185016000526020600020906000935b601f1984168510611896576001945083601f1981161061187d575b505050811b01600183015561134a565b015160001960f88460031b161c191690558a808061186d565b81810151835560209485019460019093019290910190611852565b3461047557602080600319360112610475576001600160a01b0390816118d56146b4565b1680600052600882526118f083604060002054161515615df8565b600052600b8152604060002090604051808383829554938481520190600052836000209260005b858282106119df5750505061192e92500383614769565b6119388251615a99565b9060009060005b845181101561199a57856119538287615acb565b511680600052600e835260ff600360406000200154841c1615611980575b5061197b906154ab565b61193f565b836119939161100161197b949688615acb565b9290611971565b5050836119a682615a99565b9260005b8381106119bf576040518061091e8782614e45565b80836119ce6119da9385615acb565b51166110018288615acb565b6119aa565b85548916845260019586019588955093019201611917565b3461047557608036600319011261047557611a106146b4565b611a186146ca565b90606435906044356001600160401b03831161047557611a6b93611a43611a669436906004016147a5565b92611a56611a5184336150d3565b614ffa565b611a6183838361519b565b6153cc565b6150af565b005b3461047557611a7b366149f4565b90600052601460205260406000208054821015610475576020916104ab91614a0a565b34610475576020366003190112610475576001600160a01b0380611ac06146b4565b16600052600e6020526040600020908154169061091e604051611aea816106508160018701614b9f565b600360405193611b0885611b018160028501614b9f565b0386614769565b015460405194859461ffff9360ff8460201c1694808560101c1694169287614c35565b3461047557604036600319011261047557611b446146b4565b6024359060018060a01b03809116600052600b6020526040600020805483101561047557602092611b7491614a0a565b9190546040519260031b1c168152f35b3461047557604036600319011261047557611b9d6146b4565b6024359081151590818303610475576001600160a01b031691338314611c1a57611bec9033600052600560205260406000208460005260205260406000209060ff801983541691151516179055565b6040519081527f17307eab39ab6107e8899845ad3d59bd9653f200f220920489ca2b5937696c3160203392a3005b60405162461bcd60e51b815260206004820152601960248201527f4552433732313a20617070726f766520746f2063616c6c6572000000000000006044820152606490fd5b346104755760203660031901126104755760206001600160a01b0380611c836146b4565b166000526008825261091e6040600020611d9060405191611ca383614718565b848154168352611d8260405195611cc187610a418160018701614b9f565b878501968752611cd360028401614e89565b946040810195865260ff600860405195611cf487610a418160068501614b9f565b6060840196875260078101546080850152015416151560a0820152611d1d828251161515615df8565b511695519351611d748151611d668a84015191611d586060604087015196015197519960e06040519e8f9e8f908152015260e08d0190614674565b908b820360408d0152614674565b9089820360608b0152614674565b908782036080890152614674565b9085820360a0870152614674565b9083820360c0850152614674565b3461047557602036600319011261047557600435600081815260026020526040902054611dda906001600160a01b03161515615cd4565b615cd4565b6000526013602052604060002060405190611df4826146fc565b604051611e05816106508185614b9f565b825261091e60018060a01b039283600184015416926020820193845284600282015416946040830195865260405190611e4c82611e458160038701614b9f565b0383614769565b60608401918252604051611e67816106508160048801614b9f565b60808501908152600584015460a0860190815260068501549060c0870191825260405192611ea384611e9c8160078b01614b9f565b0385614769565b60e0880193845260405194611ec686611ebf8160088c01614b9f565b0387614769565b610100890195865280600a60405199611eed8b611ee68160098501614b9f565b038c614769565b8a6101208d01520154998a610140820152519b51169b5116955190519151925193519451956040519b8c9b8c614cc0565b3461047557611f2c366149f4565b90600052600d60205260406000208054821015610475576020916104ab91614a0a565b346104755760003660031901126104755760405160006001805490611f7382614b65565b80855291818116908115611ff35750600114611f9a575b61091e8461114b81860382614769565b600081815292507fb10e2d527612073b26eecdfd717e6a320cf44b4afac2b0732d9fcbe2b7fa0cf65b828410611fdb57505050810160200161114b82611f8a565b80546020858701810191909152909301928101611fc3565b60ff191660208087019190915292151560051b8501909201925061114b9150839050611f8a565b6147ec565b34610475576020366003190112610475576001600160a01b036120406146b4565b16600052601060205260406000206040518082602082945493848152019060005260206000209260005b8181106121f957505061207f92500382614769565b6120898151615d6a565b9060005b81518110156121eb57806120a46121e69284615acb565b5180600052601560205260086040600020612169604051916120c5836146e0565b6040516120d6816106508185614b9f565b835260018101546001600160a01b0390811660208501526002820154166040808501919091525161210e816106508160038601614b9f565b6060840152604051612127816106508160048601614b9f565b6080840152600581015460a0840152600681015460c0840152604051612154816106508160078601614b9f565b60e0840152611e456040518095819301614b9f565b8161010082015280519060018060a01b0360208201511660018060a01b0360408301511660608301519060808401519260c060a086015195015195604051986121b18a6146e0565b8952602089015260408801526060870152608086015260a085015260c084015260e08301526101008201526108fa8286615acb565b61208d565b6040518061091e85826148a7565b845483526001948501948694506020909301920161206a565b34610475576000366003190112610475576007546040516001600160a01b039091168152602090f35b34610475576101a0366003190112610475576122556146b4565b61225d6146ca565b6044356001600160401b0381116104755761227c9036906004016147a5565b916064356001600160401b0381116104755761229c9036906004016147a5565b916084356001600160401b038111610475576122bc9036906004016147a5565b60e4356001600160401b038111610475576122db9036906004016147a5565b90610104356001600160401b038111610475576122fc9036906004016147a5565b610144356001600160401b0381116104755761231c9036906004016147a5565b90610164356001600160401b0381116104755761233d9036906004016147a5565b926123496012546154ab565b97886012557f19457468657265756d205369676e6564204d6573736167653a0a33320000000060005261012435601c526123a861239561238d85603c6000206159bb565b9190916158a1565b6001600160a01b038a81169116146154d0565b6123b182615af0565b976040519a6123bf8c6146fc565b8b5260018060a01b03881660208c015260018060a01b031660408b015260608a0152608089015260a43560a089015260c43560c089015260e088015261010087015261012086015261018435610140860152836000526013602052604060002085518051906001600160401b038211611697578190612448826124428654614b65565b86615510565b602090601f831160011461298457600092612979575b50508160011b916000199060031b1c19161781555b60208601516001820180546001600160a01b039283166001600160a01b031991821617909155604088015160028401805491909316911617905560608601518051906001600160401b0382116116975781906124df826124d66003870154614b65565b60038701615510565b602090601f8311600114612907576000926128fc575b50508160011b916000199060031b1c19161760038201555b608086015180516001600160401b03811161169757806004840192612536826124428654614b65565b602090601f83116001146128965760009261288b575b50508160011b916000199060031b1c19161790555b60a0860151600582015560c0860151600682015560e086015180516001600160401b0381116116975780600784019261259e826124428654614b65565b602090601f83116001146128255760009261281a575b50508160011b916000199060031b1c19161790555b61010086015180516001600160401b038111611697578060088401926125f3826124428654614b65565b602090601f83116001146127b4576000926127a9575b50508160011b916000199060031b1c19161790555b6101208601519586516001600160401b03811161169757602097612652826126496009870154614b65565b60098701615510565b8890601f8311600114612730579282600a93610140936126a3989796600092612725575b50508160011b916000199060031b1c19161760098501555b015191015561269d8584615599565b846156fc565b60c435600052600c84526126bb836040600020615564565b60018060a01b0316600052600f83526126d8826040600020615564565b600052601482526126ed816040600020615564565b60405160a4358152817fe85dae35a93015f8e29d8ebd0315959bd4bbdf2117de59ee91250c0c681a1f9d8460c43593a3604051908152f35b015190508c80612676565b9060098501600052896000209160005b601f1985168110612792575083610140936126a398979693600193600a97601f19811610612779575b505050811b01600985015561268e565b015160001960f88460031b161c191690558c8080612769565b91928b600181928685015181550194019201612740565b015190508980612609565b6000858152602081209350601f198516905b81811061280257509084600195949392106127e9575b505050811b01905561261e565b015160001960f88460031b161c191690558980806127dc565b929360206001819287860151815501950193016127c6565b0151905089806125b4565b6000858152602081209350601f198516905b818110612873575090846001959493921061285a575b505050811b0190556125c9565b015160001960f88460031b161c1916905589808061284d565b92936020600181928786015181550195019301612837565b01519050898061254c565b6000858152602081209350601f198516905b8181106128e457509084600195949392106128cb575b505050811b019055612561565b015160001960f88460031b161c191690558980806128be565b929360206001819287860151815501950193016128a8565b0151905088806124f5565b9250600384016000526020600020906000935b601f198416851061295e576001945083601f19811610612945575b505050811b01600382015561250d565b015160001960f88460031b161c19169055888080612935565b8181015183556020948501946001909301929091019061291a565b01519050888061245e565b9250836000526020600020906000935b601f19841685106129d5576001945083601f198116106129bc575b505050811b018155612473565b015160001960f88460031b161c191690558880806129af565b81810151835560209485019460019093019290910190612994565b34610475576020366003190112610475576004356009548110156104755760096000527f6e1540171b6c0c960b71a7020d9f60077f6af931a8bbf590da0223dacf75c7af01546040516001600160a01b039091168152602090f35b346104755761010036600319011261047557612a656146b4565b6024356001600160401b03811161047557612a849036906004016147a5565b6044356001600160401b03811161047557612aa39036906004016147a5565b6064356001600160401b03811161047557612ac29036906004016147a5565b906084356001600160401b03811161047557612ae29036906004016147a5565b60a4356001600160401b03811161047557612b019036906004016147a5565b60c4356001600160401b03811161047557612b209036906004016147a5565b9160018060a01b0394858816600052600860205285604060002054166132465786511561320a5760648751116131d25760405194612b5d86614733565b855260208501526040840152606083015260405190612b7b82614718565b838616825260208201928584526040830152606082015260e4356080820152600160a08201528285166000526008602052604060002091838251166001600160601b0360a01b845416178355518051906001600160401b038211611697578190612bec826113136001880154614b65565b602090601f831160011461316057600092613155575b50508160011b916000199060031b1c19161760018301555b604081015180518051906001600160401b038211611697578190612c4e82612c456002890154614b65565b60028901615510565b602090601f83116001146130e3576000926130d8575b50508160011b916000199060031b1c19161760028401555b60208101518051906001600160401b038211611697578190612cae82612ca56003890154614b65565b60038901615510565b602090601f83116001146130665760009261305b575b50508160011b916000199060031b1c19161760038401555b60408101518051906001600160401b03821161169757612d0c82612d036004880154614b65565b60048801615510565b602090601f8311600114612fe857606093929160009183612fdd575b50508160011b916000199060031b1c19161760048501555b01518051906001600160401b038211611697578190612d6f82612d666005880154614b65565b60058801615510565b602090601f8311600114612f6b57600092612f60575b50508160011b916000199060031b1c19161760058301555b60608101518051906001600160401b03821161169757612dcd82612dc46006870154614b65565b60068701615510565b602090601f8311600114612ee757928260089360a093612e299796600092612edc575b50508160011b916000199060031b1c19161760068501555b608081015160078501550151151591019060ff801983541691151516179055565b60095490600160401b821015611697576001820180600955821015612ec6577f1878b98cdd20035dbb8cf5ab01bd1154cacee2b10b7852e62d60c69be1c89aa39160096000527f6e1540171b6c0c960b71a7020d9f60077f6af931a8bbf590da0223dacf75c7af018185166001600160601b0360a01b8254161790556040519360208552169280612ec160e435946020830190614674565b0390a3005b634e487b7160e01b600052603260045260246000fd5b015190508a80612df0565b906006850160005260206000209160005b601f1985168110612f4857508360a093612e29979693600193600897601f19811610612f2f575b505050811b016006850155612e08565b015160001960f88460031b161c191690558a8080612f1f565b91926020600181928685015181550194019201612ef8565b015190508780612d85565b9250600585016000526020600020906000935b601f1984168510612fc2576001945083601f19811610612fa9575b505050811b016005830155612d9d565b015160001960f88460031b161c19169055878080612f99565b81810151835560209485019460019093019290910190612f7e565b015190508980612d28565b906004860160005260206000209160005b601f1985168110613043575091839160019360609695601f1981161061302a575b505050811b016004850155612d40565b015160001960f88460031b161c1916905589808061301a565b91926020600181928685015181550194019201612ff9565b015190508880612cc4565b9250600386016000526020600020906000935b601f19841685106130bd576001945083601f198116106130a4575b505050811b016003840155612cdc565b015160001960f88460031b161c19169055888080613094565b81810151835560209485019460019093019290910190613079565b015190508880612c64565b9250600286016000526020600020906000935b601f198416851061313a576001945083601f19811610613121575b505050811b016002840155612c7c565b015160001960f88460031b161c19169055888080613111565b818101518355602094850194600190930192909101906130f6565b015190508780612c02565b9250600185016000526020600020906000935b601f19841685106131b7576001945083601f1981161061319e575b505050811b016001830155612c1a565b015160001960f88460031b161c1916905587808061318e565b81810151835560209485019460019093019290910190613173565b60405162461bcd60e51b815260206004820152601060248201526f4e616d6520697320746f6f206c6f6e6760801b6044820152606490fd5b60405162461bcd60e51b81526020600482015260146024820152734e616d652063616e6e6f7420626520656d70747960601b6044820152606490fd5b60405162461bcd60e51b815260206004820152601d60248201527f556e697665727369747920616c726561647920726567697374657265640000006044820152606490fd5b34610475576000366003190112610475576132a4614ef5565b600780546001600160a01b031981169091556000906001600160a01b03167f8be0079c531659141344cd1fd0a4f28419497f9722a3daafe3b4186f6b6457e08280a3005b34610475576020366003190112610475576001600160a01b036133096146b4565b1680156133285760005260036020526020604060002054604051908152f35b60405162461bcd60e51b815260206004820152602960248201527f4552433732313a2061646472657373207a65726f206973206e6f7420612076616044820152683634b21037bbb732b960b91b6064820152608490fd5b34610475576020366003190112610475576004356000818152600260205260409020546133b6906001600160a01b03161515615cd4565b60005260156020526040600020604051906133d0826146e0565b6040516133e1816106508185614b9f565b825261091e600860018060a01b038060018501541693602086019485528160028201541695604081019687526040519261342284611e9c8160038701614b9f565b6060820193845260405161343d816106508160048801614b9f565b6080830190815260058401549160a084019283528060068601549460c081019586526134956040519761347e896134778160078501614b9f565b038a614769565b60e08301988952613477604051809c819301614b9f565b88610100820152519951169951169451905191519251935194604051998a998a614dc1565b3461047557602080600319360112610475576134d46146b4565b906134dd615e3b565b5060018060a01b03809216600052600e815260ff600360406000206040519461350586614718565b815416855260405161351e816106508160018601614b9f565b84860152604051613536816106508160028601614b9f565b6040860152015461ffff80821660608601528160101c166080850152821c16151560a083015261091e604051928284938452830190614d5e565b3461047557602036600319011261047557600435600052601660205260406000206040518082602082945493848152019060005260206000209260005b8181106135ec5750506135c292500382614769565b6135cc8151615d6a565b9060005b81518110156121eb57806120a46135e79284615acb565b6135d0565b84548352600194850194869450602090930192016135ad565b34610475576000366003190112610475576020601254604051908152f35b346104755760203660031901126104755760043560005260136020526040600020604051613655816106508185614b9f565b61091e60018060a01b0392836001820154169360028201541690604051613683816106508160038601614b9f565b604051613697816106508160048701614b9f565b6005830154600684015490604051926136b784611e9c8160078a01614b9f565b604051946136cc86611ebf8160088b01614b9f565b600a604051976136e3896134778160098501614b9f565b0154976040519b8c9b8c614cc0565b346104755760403660031901126104755761370b6146b4565b60243560005260209060168252604060002091604051808483829654938481520190600052836000209260005b858282106138a95750505061374f92500384614769565b6137598351615a99565b6001600160a01b039290916000918416825b86518110156138715761377e8188615acb565b51806000526015845282876040600020600861010060405161379f816146e0565b6040516137b0816106508188614b9f565b8152846001850154168a82015261383e8560028601541694604083019586526040516137e3816106508160038601614b9f565b60608401526040516137fc816106508160048601614b9f565b6080840152600581015460a0840152600681015460c0840152604051613829816106508160078601614b9f565b60e08401526106266040518096819301614b9f565b0152511614613857575b50613852906154ab565b61376b565b8461386a91611001613852949789615acb565b9390613848565b50505061387d81615a99565b9160005b828110613896576040518061091e8682614c85565b806110416138a49284615acb565b613881565b8554845260019586019589955093019201613738565b346104755760203660031901126104755760206138dd600435614f99565b6040516001600160a01b039091168152f35b34610475576040366003190112610475576139086146b4565b6139106146ca565b60018060a01b03809216600052601160205281604060002091166000526020526040600020908154169061091e604051611aea816106508160018701614b9f565b346104755760203660031901126104755761091e6001600160a01b03806139766146b4565b166000526008602052613a0160406000209160405161399481614718565b81845416815260ff6008604051956139b387610a418160018501614b9f565b602084019687526139c660028201614e89565b60408501526040516139df816106508160068601614b9f565b606085015260078101546080850152015416151560a082015251161515615df8565b51604051918291602083526020830190614674565b3461047557611a6b611a66613a2a36614a22565b9060405192613a388461474e565b60008452611a56611a5184336150d3565b3461047557602036600319011261047557600435600052600c60205260406000206040518082602082945493848152019060005260206000209260005b818110613ac5575050613a9b92500382614769565b613aa58151615c37565b9060005b81518110156109105780610780613ac09284615acb565b613aa9565b8454835260019485019486945060209093019201613a86565b3461047557602036600319011261047557600435600052601460205260406000206040518082602082945493848152019060005260206000209260005b818110613b5a575050613b3092500382614769565b613b3a8151615c37565b9060005b81518110156109105780610780613b559284615acb565b613b3e565b8454835260019485019486945060209093019201613b1b565b3461047557611a6b613b8436614a22565b91613b92611a5184336150d3565b61519b565b3461047557613ba5366149f4565b90600052600c60205260406000208054821015610475576020916104ab91614a0a565b3461047557602080600319360112610475576001600160a01b03613bea6146b4565b16600052600f81526040600020906040518092839183825491828152019160005283600020936000905b828210613c555784613c2881860382614769565b613c328151615d20565b9060005b815181101561110457806110f56110ef613c509385615acb565b613c36565b855484526001958601958795509381019390910190613c14565b3461047557602036600319011261047557600435600052600d60205260406000206040518082602082945493848152019060005260206000209260005b818110613ceb575050613cc192500382614769565b613ccb8151615d6a565b9060005b81518110156121eb57806120a4613ce69284615acb565b613ccf565b8454835260019485019486945060209093019201613cac565b346104755761016036600319011261047557613d1e6146b4565b613d266146ca565b6044356001600160401b03811161047557613d459036906004016147a5565b916064356001600160401b03811161047557613d659036906004016147a5565b916084356001600160401b03811161047557613d859036906004016147a5565b60e4356001600160401b03811161047557613da49036906004016147a5565b90610104356001600160401b03811161047557613dc59036906004016147a5565b610144356001600160401b03811161047557613de59036906004016147a5565b91613df16012546154ab565b96876012557f19457468657265756d205369676e6564204d6573736167653a0a33320000000060005261012435601c52613e48613e3561238d85603c6000206159bb565b6001600160a01b038981169116146154d0565b613e5182615af0565b9660405199613e5f8b6146e0565b8a5260018060a01b03871660208b015260018060a01b031660408a01526060890152608088015260a43560a088015260c43560c088015260e087015261010086015283600052601560205260406000209480518051906001600160401b038211611697578190613ed982613ed38b54614b65565b8b615510565b602090601f83116001146143485760009261433d575b50508160011b916000199060031b1c19161786555b60208101516001870180546001600160a01b039283166001600160a01b031991821617909155604083015160028901805491909316911617905560608101518051906001600160401b038211611697578190613f7082613f6760038c0154614b65565b60038c01615510565b602090601f83116001146142cb576000926142c0575b50508160011b916000199060031b1c19161760038701555b608081015180516001600160401b03811161169757806004890192613fc7826124428654614b65565b602090601f831160011461425a5760009261424f575b50508160011b916000199060031b1c19161790555b60a0810151600587015560c0810151600687015560e081015180516001600160401b0381116116975760078801916140348261402e8554614b65565b85615510565b602090601f83116001146141e25761010094939291600091836141d7575b50508160011b916000199060031b1c19161790555b01519485516001600160401b038111611697576020966140978261408e6008860154614b65565b60088601615510565b8790601f83116001146141645791806008926140d7969594600092614159575b50508160011b916000199060031b1c1916179101555b61269d8584615599565b60c435600052600d84526140ef836040600020615564565b60018060a01b03166000526010835261410c826040600020615564565b60005260168252614121816040600020615564565b60405160a4358152817fe71a10caa49ec75214e8f8f92f9277372e3428a636291d66c99b5fcfbbbe82698460c43593a3604051908152f35b015190508a806140b7565b9060088401600052886000209160005b601f19851681106141c05750926008926001926140d797969583601f198116106141a7575b505050811b019101556140cd565b015160001960f88460031b161c191690558a8080614199565b91928a600181928685015181550194019201614174565b015190508a80614052565b90601f198316918460005260206000209260005b8181106142375750916001939185610100989796941061421e575b505050811b019055614067565b015160001960f88460031b161c191690558a8080614211565b929360206001819287860151815501950193016141f6565b015190508980613fdd565b6000858152602081209350601f198516905b8181106142a8575090846001959493921061428f575b505050811b019055613ff2565b015160001960f88460031b161c19169055898080614282565b9293602060018192878601518155019501930161426c565b015190508880613f86565b9250600389016000526020600020906000935b601f1984168510614322576001945083601f19811610614309575b505050811b016003870155613f9e565b015160001960f88460031b161c191690558880806142f9565b818101518355602094850194600190930192909101906142de565b015190508880613eef565b9250886000526020600020906000935b601f1984168510614399576001945083601f19811610614380575b505050811b018655613f04565b015160001960f88460031b161c19169055888080614373565b81810151835560209485019460019093019290910190614358565b34610475576040366003190112610475576143cd6146b4565b602435906001600160a01b0380806143e485614f99565b169216918083146144df578033149081156144ba575b501561444f57600083815260046020526040902080546001600160a01b0319168317905561442783614f99565b167f8c5be1e5ebec7d5bd14f71427d1e84f3dd0314c0f7b2291e5b200ac8c7c3b925600080a4005b60405162461bcd60e51b815260206004820152603d60248201527f4552433732313a20617070726f76652063616c6c6572206973206e6f7420746f60448201527f6b656e206f776e6572206f7220617070726f76656420666f7220616c6c0000006064820152608490fd5b9050600052600560205260406000203360005260205260ff60406000205416846143fa565b60405162461bcd60e51b815260206004820152602160248201527f4552433732313a20617070726f76616c20746f2063757272656e74206f776e656044820152603960f91b6064820152608490fd5b346104755760203660031901126104755760206138dd600435614fbc565b34610475576000366003190112610475576040516000805461456d81614b65565b80845290600190818116908115611ff357506001146145965761091e8461114b81860382614769565b600080805292507f290decd9548b62a8d60345a988386fc84ba6bc95484008f6362f93160ef3e5635b8284106145d757505050810160200161114b82611f8a565b805460208587018101919091529093019281016145bf565b34610475576020366003190112610475576004359063ffffffff60e01b821680920361047557602091632483248360e11b8114908115614631575b5015158152f35b6380ac58cd60e01b811491508115614663575b8115614652575b508361462a565b6301ffc9a760e01b1490508361464b565b635b5e139f60e01b81149150614644565b919082519283825260005b8481106146a0575050826000602080949584010152601f8019910116010190565b60208183018101518483018201520161467f565b600435906001600160a01b038216820361047557565b602435906001600160a01b038216820361047557565b61012081019081106001600160401b0382111761169757604052565b61016081019081106001600160401b0382111761169757604052565b60c081019081106001600160401b0382111761169757604052565b608081019081106001600160401b0382111761169757604052565b602081019081106001600160401b0382111761169757604052565b90601f801991011681019081106001600160401b0382111761169757604052565b6001600160401b03811161169757601f01601f191660200190565b81601f82011215610475578035906147bc8261478a565b926147ca6040519485614769565b8284526020838301011161047557816000926020809301838601378301015290565b34610475576080366003190112610475576004356001600160401b0381116104755761481c9036906004016147a5565b6001600160a01b0390606435828116908190036104755760209261489561489d93614861611dd5604435600052600260205260018060a01b0360406000205416151590565b7f19457468657265756d205369676e6564204d6573736167653a0a333200000000600052602435601c52603c6000206159bb565b9390936158a1565b6040519216148152f35b602080820190808352835180925260409283810182858560051b8401019601946000925b8584106148dc575050505050505090565b909192939495968580614981600193603f198682030188528b5180518252614959614946614917868401516101208089880152860190614674565b888060a01b03808c860151168c8701526060908186015116908601526080808501519086830390870152614674565b60a0808401519085830390860152614674565b9160c0808301519082015260e080830151908201526101008092015191818403910152614674565b9901940194019295949391906148cb565b602080820190808352835180925260408301928160408460051b8301019501936000915b8483106149c65750505050505090565b90919293949584806149e4600193603f198682030187528a51614674565b98019301930191949392906149b6565b6040906003190112610475576004359060243590565b8054821015612ec65760005260206000200190600090565b6060906003190112610475576001600160a01b0390600435828116810361047557916024359081168103610475579060443590565b602080820190808352835180925260409283810182858560051b8401019601946000925b858410614a8c575050505050505090565b909192939495968580600192603f198582030187528a519081518152614b49614b35614b0d614afa614acb87870151610160808a890152870190614674565b898060a01b03808d890151168d8801526060908189015116908701526080808801519087830390880152614674565b60a0808701519086830390870152614674565b60c0808601519085015260e08086015190850152610100808601519085830390860152614674565b610120808501519084830390850152614674565b9161014080910151910152990194019401929594939190614a7b565b90600182811c92168015614b95575b6020831014614b7f57565b634e487b7160e01b600052602260045260246000fd5b91607f1691614b74565b9060009291805491614bb083614b65565b918282526001938481169081600014614c125750600114614bd2575b50505050565b90919394506000526020928360002092846000945b838610614bfe575050505001019038808080614bcc565b805485870183015294019385908201614be7565b9294505050602093945060ff191683830152151560051b01019038808080614bcc565b94969592614c5e60a09593614c6c93600180891b0316885260c0602089015260c0880190614674565b908682036040880152614674565b9561ffff80921660608601521660808401521515910152565b6020908160408183019282815285518094520193019160005b828110614cac575050505090565b835185529381019392810192600101614c9e565b9b9a9996908c6101409a96614d15614d4a9996614d3b98614d599d97614cf1614d2397610160808952880190614674565b6001600160a01b039182166020880152921660408601528482036060860152614674565b916080818403910152614674565b9260a08d015260c08c01528a820360e08c0152614674565b908882036101008a0152614674565b90868203610120880152614674565b930152565b9060018060a01b03825116815260a080614d9c614d8a602086015160c0602087015260c0860190614674565b60408601518582036040870152614674565b9361ffff80606083015116606086015260808201511660808501520151151591015290565b9793614e42999793614e0d91614e1b94614de9614e339a99958d610120908181520190614674565b6001600160a01b0391821660208e0152921660408c01528a820360608c0152614674565b9088820360808a0152614674565b9260a087015260c086015284820360e0860152614674565b91610100818403910152614674565b90565b6020908160408183019282815285518094520193019160005b828110614e6c575050505090565b83516001600160a01b031685529381019392810192600101614e5e565b9060036060604093614ef1855191614ea083614733565b61062683978051614eb5816106508187614b9f565b85528051614eca816106508160018801614b9f565b60208601528051614ee2816106508160028801614b9f565b81860152518096819301614b9f565b0152565b6007546001600160a01b03163303614f0957565b606460405162461bcd60e51b815260206004820152602060248201527f4f776e61626c653a2063616c6c6572206973206e6f7420746865206f776e65726044820152fd5b15614f5457565b60405162461bcd60e51b815260206004820152601860248201527f4552433732313a20696e76616c696420746f6b656e20494400000000000000006044820152606490fd5b6000908152600260205260409020546001600160a01b0316614e42811515614f4d565b600081815260026020526040902054614fdf906001600160a01b03161515614f4d565b6000908152600460205260409020546001600160a01b031690565b1561500157565b60405162461bcd60e51b815260206004820152602d60248201527f4552433732313a2063616c6c6572206973206e6f7420746f6b656e206f776e6560448201526c1c881bdc88185c1c1c9bdd9959609a1b6064820152608490fd5b60809060208152603260208201527f4552433732313a207472616e7366657220746f206e6f6e20455243373231526560408201527131b2b4bb32b91034b6b83632b6b2b73a32b960711b60608201520190565b156150b657565b60405162461bcd60e51b8152806150cf6004820161505c565b0390fd5b906001600160a01b0380806150e784614f99565b1693169183831493841561511a575b508315615104575b50505090565b61511091929350614fbc565b16143880806150fe565b909350600052600560205260406000208260005260205260ff6040600020541692386150f6565b1561514857565b60405162461bcd60e51b815260206004820152602560248201527f4552433732313a207472616e736665722066726f6d20696e636f72726563742060448201526437bbb732b960d91b6064820152608490fd5b906151c3916151a984614f99565b6001600160a01b0393918416928492909183168414615141565b1691821561525b57816151e0916151d986614f99565b1614615141565b7fddf252ad1be2c89b69c2b068fc378daa952ba7f163c4a11628f55a4df523b3ef60008481526004602052604081206001600160601b0360a01b9081815416905583825260036020526040822060001981540190558482526040822060018154019055858252600260205284604083209182541617905580a4565b60405162461bcd60e51b8152602060048201526024808201527f4552433732313a207472616e7366657220746f20746865207a65726f206164646044820152637265737360e01b6064820152608490fd5b9192600092909190803b156153c2576152fa946040518092630a85bd0160e11b9485835233600484015287602484015260448301526080606483015281878160209a8b966084830190614674565b03926001600160a01b03165af184918161537e575b5061536d575050503d600014615365573d6153298161478a565b906153376040519283614769565b81528091833d92013e5b805191826153625760405162461bcd60e51b8152806150cf6004820161505c565b01fd5b506060615341565b6001600160e01b0319161492509050565b9091508581813d83116153bb575b6153968183614769565b810103126153b757516001600160e01b0319811681036153b757903861530f565b8480fd5b503d61538c565b5050915050600190565b9293600093909291803b1561544c579484916154269660405180948193630a85bd0160e11b9788845233600485015260018060a01b0380921660248501526044840152608060648401528260209b8c976084830190614674565b0393165af184918161537e575061536d575050503d600014615365573d6153298161478a565b505050915050600190565b60008181526002602052604090205461547a906001600160a01b03161515614f4d565b6000526006602052610650615499604060002060405192838092614b9f565b60006040516154a78161474e565b5290565b60001981146154ba5760010190565b634e487b7160e01b600052601160045260246000fd5b156154d757565b60405162461bcd60e51b8152602060048201526011602482015270496e76616c6964207369676e617475726560781b6044820152606490fd5b90601f811161551e57505050565b600091825260208220906020601f850160051c8301941061555a575b601f0160051c01915b82811061554f57505050565b818155600101615543565b909250829061553a565b8054600160401b8110156116975761558191600182018155614a0a565b819291549060031b91821b91600019901b1916179055565b6040516155a58161474e565b6000808252926001600160a01b03831692831561566c5781611a669461566a966155ed6155e784600052600260205260018060a01b0360406000205416151590565b156156b0565b600083815260026020526040902054615610906001600160a01b031615156155e7565b81815260036020526040812060018154019055828152600260205260408120826001600160601b0360a01b8254161790557fddf252ad1be2c89b69c2b068fc378daa952ba7f163c4a11628f55a4df523b3ef8180a46152ac565b565b606460405162461bcd60e51b815260206004820152602060248201527f4552433732313a206d696e7420746f20746865207a65726f20616464726573736044820152fd5b156156b757565b60405162461bcd60e51b815260206004820152601c60248201527f4552433732313a20746f6b656e20616c7265616479206d696e746564000000006044820152606490fd5b6000818152600260205260409020549192916001600160a01b031615615845576000908082526020916006835260408120908551906001600160401b0382116158315761574d8261402e8554614b65565b8490601f83116001146157ad57907ff8e1a15aba9398e019f0b49df1a4fde98ee17ae345cb5f6b5e2c27f5033e8ce79697836157a2575b50508160011b916000199060031b1c19161790555b604051908152a1565b015190503880615784565b9196601f198816848452868420935b81811061581a57509160019391897ff8e1a15aba9398e019f0b49df1a4fde98ee17ae345cb5f6b5e2c27f5033e8ce7999a9410615801575b505050811b019055615799565b015160001960f88460031b161c191690553880806157f4565b9293876001819287860151815501950193016157bc565b634e487b7160e01b81526041600452602490fd5b60405162461bcd60e51b815260206004820152602e60248201527f45524337323155524953746f726167653a2055524920736574206f66206e6f6e60448201526d32bc34b9ba32b73a103a37b5b2b760911b6064820152608490fd5b60058110156159a557806158b25750565b600181036158ff5760405162461bcd60e51b815260206004820152601860248201527f45434453413a20696e76616c6964207369676e617475726500000000000000006044820152606490fd5b6002810361594c5760405162461bcd60e51b815260206004820152601f60248201527f45434453413a20696e76616c6964207369676e6174757265206c656e677468006044820152606490fd5b60031461595557565b60405162461bcd60e51b815260206004820152602260248201527f45434453413a20696e76616c6964207369676e6174757265202773272076616c604482015261756560f01b6064820152608490fd5b634e487b7160e01b600052602160045260246000fd5b9060418151146000146159e9576159e5916020820151906060604084015193015160001a906159f3565b9091565b5050600090600290565b9291907f7fffffffffffffffffffffffffffffff5d576e7357a4501ddfe92f46681b20a08311615a765791608094939160ff602094604051948552168484015260408301526060820152600093849182805260015afa15615a695781516001600160a01b03811615615a63579190565b50600190565b50604051903d90823e3d90fd5b50505050600090600390565b6001600160401b0381116116975760051b60200190565b90615aa382615a82565b615ab06040519182614769565b8281528092615ac1601f1991615a82565b0190602036910137565b8051821015612ec65760209160051b010190565b908151811015612ec6570160200190565b600480825110615bfd5760405191604083018381106001600160401b03821117615be8576040528183526020368185013760005b828110615bb75750509060009182915b818310615b415750505090565b909192600a90818102918183041490151715615b8d57615b618483615adf565b5160f81c602f19908082810111615ba257820101809111615b8d57615b8690936154ab565b9190615b34565b601183634e487b7160e01b6000525260246000fd5b601185634e487b7160e01b6000525260246000fd5b615be3906001600160f81b0319615bce8285615adf565b511660001a615bdd8287615adf565b536154ab565b615b24565b604183634e487b7160e01b6000525260246000fd5b60649060206040519162461bcd60e51b83528201526013602482015272125b9d985b1a590819185d1948199bdc9b585d606a1b6044820152fd5b90615c4182615a82565b604090615c5082519182614769565b8381528093615c61601f1991615a82565b019160005b838110615c735750505050565b6020908251615c81816146fc565b600081526060839080828401526000868401526000818401528060808401528060a0840152600060c0840152600060e0840152806101008401526101208301526000610140830152828601015201615c66565b15615cdb57565b60405162461bcd60e51b815260206004820152601a60248201527f436572746966696361746520646f6573206e6f742065786973740000000000006044820152606490fd5b90615d2a82615a82565b615d376040519182614769565b8281528092615d48601f1991615a82565b019060005b828110615d5957505050565b806060602080938501015201615d4d565b90615d7482615a82565b604090615d8382519182614769565b8381528093615d94601f1991615a82565b019160005b838110615da65750505050565b6020908251615db4816146e0565b600081526060839080828401526000868401526000818401528060808401528060a0840152600060c0840152600060e0840152610100830152828601015201615d99565b15615dff57565b60405162461bcd60e51b8152602060048201526014602482015273155b9a5d995c9cda5d1e481b9bdd08199bdd5b9960621b6044820152606490fd5b60405190615e4882614718565b600060a0838281526060602082015260606040820152826060820152826080820152015256fea26469706673582212206cd88ea4f0c716d5e6ea1e69699931b4472eec06257fc654bb54ea9b016d48de64736f6c63430008130033",
  "immutableReferences": {},
  "source": "// SPDX-License-Identifier: MIT\r\npragma solidity ^0.8.19;\r\n\r\nimport \"@openzeppelin/contracts/token/ERC721/extensions/ERC721URIStorage.sol\";\r\nimport \"@openzeppelin/contracts/access/Ownable.sol\";\r\nimport \"@openzeppelin/contracts/utils/cryptography/ECDSA.sol\"; // For cryptographic functions\r\nimport \"./Certificates.sol\";\r\n\r\ncontract Degrees is ERC721URIStorage, Ownable,Certificates{\r\n    using ECDSA for bytes32; // Helper library for cryptographic functions\r\n\r\n    struct Degree {\r\n        string studentName;\r\n        address studentAddress; // Added\r\n        address universityAddress; // Added\r\n        string specialization;\r\n        string dateOfIssue;\r\n        bytes32 studentPublicKey;\r\n        bytes32 universityPublicKey;\r\n        bytes signature;\r\n        string issuedBy; // Added\r\n    }\r\n\r\n    struct DegreeInfo {\r\n        uint256 degreeId;\r\n        string studentName;\r\n        address studentAddress; // Added\r\n        address universityAddress; // Added\r\n        string specialization;\r\n        string dateOfIssue;\r\n        bytes32 studentPublicKey;\r\n        bytes32 universityPublicKey;\r\n        string issuedBy; // Added\r\n    }\r\n\r\n    mapping(uint256 => Degree) public degres; \r\n    mapping(uint256 => uint256[]) public degreesByYear; // Year -> Certificate IDs\r\n    \r\n    \r\n    event DegreeIssued(uint256 indexed degreeId, bytes32 indexed universityPublicKey, bytes32 studentPublicKey);\r\n\r\n    function issueCertificate(\r\n        address user,\r\n        address _studentAddress,\r\n        string memory _studentName,\r\n        string memory _specialization,\r\n        string memory _dateOfIssue,\r\n        bytes32 _studentPublicKey,\r\n        bytes32 _universityPublicKey,\r\n        string memory _tokenURI,\r\n        bytes memory _signature,\r\n        bytes32 messageHash,\r\n        string memory _issuedBy\r\n    ) public returns (uint256) {\r\n        certificateCounter++;\r\n        uint256 degreeId = certificateCounter;\r\n    \r\n        // Recreate the message hash\r\n        bytes32 ethHash = messageHash.toEthSignedMessageHash();\r\n    \r\n        // Verify the signature\r\n        address signer = ethHash.recover(_signature);\r\n        \r\n        require(signer == user, \"Invalid signature\");\r\n    \r\n        // Extract the year from the date of issue\r\n        uint256 year = extractYear(_dateOfIssue);\r\n    \r\n        // Create the degree\r\n        degres[degreeId] = Degree({\r\n            studentName: _studentName,\r\n            studentAddress: _studentAddress,\r\n            universityAddress: user,\r\n            specialization: _specialization,\r\n            dateOfIssue: _dateOfIssue,\r\n            studentPublicKey: _studentPublicKey,\r\n            universityPublicKey: _universityPublicKey,\r\n            signature: _signature,\r\n            issuedBy: _issuedBy\r\n        });\r\n    \r\n        _safeMint(_studentAddress, degreeId);\r\n        _setTokenURI(degreeId, _tokenURI);\r\n    \r\n        universityDegree[_universityPublicKey].push(degreeId);\r\n        studentDegree[_studentAddress].push(degreeId);\r\n        degreesByYear[year].push(degreeId);\r\n\r\n        // Emit the CertificateIssued event\r\n        emit DegreeIssued(degreeId, _universityPublicKey, _studentPublicKey);\r\n        return degreeId;\r\n    }\r\n\r\n\r\n    function getDegreeByUniversityAndYear(\r\n        address _uniadd,\r\n        uint256 _year\r\n    ) public view returns (uint256[] memory) {\r\n        // Get all degree IDs for the specified year\r\n        uint256[] memory degreeIdsForYear = degreesByYear[_year];\r\n    \r\n        // Filter degrees issued by the specified university\r\n        uint256[] memory universityDegreeForYear = new uint256[](degreeIdsForYear.length);\r\n        uint256 count = 0;\r\n    \r\n        for (uint256 i = 0; i < degreeIdsForYear.length; i++) {\r\n            uint256 degreeId = degreeIdsForYear[i];\r\n            Degree memory degree = degres[degreeId];\r\n    \r\n            if (degree.universityAddress == _uniadd) {\r\n                universityDegreeForYear[count] = degreeId;\r\n                count++;\r\n            }\r\n        }\r\n    \r\n        // Resize the array to remove unused slots\r\n        uint256[] memory result = new uint256[](count);\r\n        for (uint256 i = 0; i < count; i++) {\r\n            result[i] = universityDegreeForYear[i];\r\n        }\r\n    \r\n        return result;\r\n    }\r\n\r\n    function getDegreesByYear(uint256 year) public view returns (DegreeInfo[] memory) {\r\n        uint256[] memory degreeIds = degreesByYear[year];\r\n        DegreeInfo[] memory degreeDetails = new DegreeInfo[](degreeIds.length);\r\n    \r\n        for (uint256 i = 0; i < degreeIds.length; i++) {\r\n            uint256 degreeId = degreeIds[i];\r\n            Degree memory cert = degres[degreeId];\r\n    \r\n            degreeDetails[i] = DegreeInfo({\r\n                degreeId: degreeId,\r\n                studentName: cert.studentName,\r\n                studentAddress: cert.studentAddress,\r\n                universityAddress: cert.universityAddress,\r\n                specialization: cert.specialization,\r\n                dateOfIssue: cert.dateOfIssue,\r\n                studentPublicKey: cert.studentPublicKey,\r\n                universityPublicKey: cert.universityPublicKey,\r\n                issuedBy: cert.issuedBy\r\n            });\r\n        }\r\n    \r\n        return degreeDetails;\r\n    }\r\n\r\n    function verifyDegree(\r\n        bytes memory _signature,\r\n        bytes32 messageHash,\r\n        uint256 _degreeId,\r\n        address user\r\n    ) public view returns (bool) {\r\n        require(_exists(_degreeId), \"Certificate does not exist\");\r\n        bytes32 ethHash = messageHash.toEthSignedMessageHash();\r\n        address signer = ethHash.recover(_signature);\r\n        return signer == user;\r\n    }\r\n\r\n    function getDegreeById(uint256 degreeId) public view returns (\r\n        string memory studentName,\r\n        address studentAddress, // Added\r\n        address universityAddress, // Added\r\n        string memory specialization,\r\n        string memory dateOfIssue,\r\n        bytes32 studentPublicKey,\r\n        bytes32 universityPublicKey,\r\n        bytes memory signature,\r\n        string memory issuedBys\r\n    ) {\r\n        require(_exists(degreeId), \"Certificate does not exist\");\r\n    \r\n        Degree memory cert = degres[degreeId];\r\n    \r\n        return (\r\n            cert.studentName,\r\n            cert.studentAddress, // Added\r\n            cert.universityAddress, // Added\r\n            cert.specialization,\r\n            cert.dateOfIssue,\r\n            cert.studentPublicKey,\r\n            cert.universityPublicKey,\r\n            cert.signature,\r\n            cert.issuedBy\r\n        );\r\n    }\r\n\r\n\r\n    function getDegreeByStudent(address studentAddress) public view returns (DegreeInfo[] memory) {\r\n        uint256[] memory degreeIds = studentDegree[studentAddress];\r\n        DegreeInfo[] memory degreeDetails = new DegreeInfo[](degreeIds.length);\r\n    \r\n        for (uint256 i = 0; i < degreeIds.length; i++) {\r\n            uint256 degreeId = degreeIds[i];\r\n            Degree memory cert = degres[degreeId];\r\n    \r\n            degreeDetails[i] = DegreeInfo({\r\n                degreeId: degreeId,\r\n                studentName: cert.studentName,\r\n                studentAddress: cert.studentAddress,\r\n                universityAddress: cert.universityAddress,\r\n                specialization: cert.specialization,\r\n                dateOfIssue: cert.dateOfIssue,\r\n                studentPublicKey: cert.studentPublicKey,\r\n                universityPublicKey: cert.universityPublicKey,\r\n                issuedBy: cert.issuedBy\r\n            });\r\n        }\r\n    \r\n        return degreeDetails;\r\n    }\r\n\r\n    function getdegreeTokenURIsByAddress(address user) public view returns (string[] memory) {\r\n       uint256[] memory degreeIds = studentDegree[user];\r\n       string[] memory tokenURIs = new string[](degreeIds.length);\r\n   \r\n       for (uint256 i = 0; i < degreeIds.length; i++) {\r\n           tokenURIs[i] = tokenURI(degreeIds[i]);\r\n       }\r\n   \r\n       return tokenURIs;\r\n    }\r\n\r\n    function getDegreesByUniversity(bytes32 _universityPublicKey) public view returns (DegreeInfo[] memory) {\r\n        uint256[] memory degreeIds = universityDegree[_universityPublicKey];\r\n        DegreeInfo[] memory degreeDetails = new DegreeInfo[](degreeIds.length);\r\n    \r\n        for (uint256 i = 0; i < degreeIds.length; i++) {\r\n            uint256 degreeId = degreeIds[i];\r\n            Degree memory cert = degres[degreeId];\r\n    \r\n            degreeDetails[i] = DegreeInfo({\r\n                degreeId: degreeId,\r\n                studentName: cert.studentName,\r\n                studentAddress: cert.studentAddress,\r\n                universityAddress: cert.universityAddress,\r\n                specialization: cert.specialization,\r\n                dateOfIssue: cert.dateOfIssue,\r\n                studentPublicKey: cert.studentPublicKey,\r\n                universityPublicKey: cert.universityPublicKey,\r\n                issuedBy: cert.issuedBy\r\n            });\r\n        }\r\n    \r\n        return degreeDetails;\r\n    }\r\n\r\n}\r\n",
  "sourcePath": "D:\\coding\\Hackathon\\c\\contracts\\Degree.sol",
  "compiler": {
    "name": "solc",
    "version": "0.8.19+commit.7dd6d404.Emscripten.clang"
  },
  "schemaVersion": "3.4.10",
  "updatedAt": "2025-09-11T18:20:05.836Z",
  "networkType": "ethereum",
  "devdoc": {
    "events": {
      "Approval(address,address,uint256)": {
        "details": "Emitted when `owner` enables `approved` to manage the `tokenId` token."
      },
      "ApprovalForAll(address,address,bool)": {
        "details": "Emitted when `owner` enables or disables (`approved`) `operator` to manage all of its assets."
      },
      "BatchMetadataUpdate(uint256,uint256)": {
        "details": "This event emits when the metadata of a range of tokens is changed. So that the third-party platforms such as NFT market could timely update the images and related attributes of the NFTs."
      },
      "MetadataUpdate(uint256)": {
        "details": "This event emits when the metadata of a token is changed. So that the third-party platforms such as NFT market could timely update the images and related attributes of the NFT."
      },
      "Transfer(address,address,uint256)": {
        "details": "Emitted when `tokenId` token is transferred from `from` to `to`."
      }
    },
    "kind": "dev",
    "methods": {
      "approve(address,uint256)": {
        "details": "See {IERC721-approve}."
      },
      "balanceOf(address)": {
        "details": "See {IERC721-balanceOf}."
      },
      "getApproved(uint256)": {
        "details": "See {IERC721-getApproved}."
      },
      "isApprovedForAll(address,address)": {
        "details": "See {IERC721-isApprovedForAll}."
      },
      "name()": {
        "details": "See {IERC721Metadata-name}."
      },
      "owner()": {
        "details": "Returns the address of the current owner."
      },
      "ownerOf(uint256)": {
        "details": "See {IERC721-ownerOf}."
      },
      "renounceOwnership()": {
        "details": "Leaves the contract without owner. It will not be possible to call `onlyOwner` functions. Can only be called by the current owner. NOTE: Renouncing ownership will leave the contract without an owner, thereby disabling any functionality that is only available to the owner."
      },
      "safeTransferFrom(address,address,uint256)": {
        "details": "See {IERC721-safeTransferFrom}."
      },
      "safeTransferFrom(address,address,uint256,bytes)": {
        "details": "See {IERC721-safeTransferFrom}."
      },
      "setApprovalForAll(address,bool)": {
        "details": "See {IERC721-setApprovalForAll}."
      },
      "supportsInterface(bytes4)": {
        "details": "See {IERC165-supportsInterface}"
      },
      "symbol()": {
        "details": "See {IERC721Metadata-symbol}."
      },
      "tokenURI(uint256)": {
        "details": "See {IERC721Metadata-tokenURI}."
      },
      "transferFrom(address,address,uint256)": {
        "details": "See {IERC721-transferFrom}."
      },
      "transferOwnership(address)": {
        "details": "Transfers ownership of the contract to a new account (`newOwner`). Can only be called by the current owner."
      }
    },
    "version": 1
  },
  "userdoc": {
    "kind": "user",
    "methods": {},
    "version": 1
  }
}