{
  "contractName": "StudentRegistry",
  "abi": [
    {
      "anonymous": false,
      "inputs": [
        {
          "indexed": true,
          "internalType": "address",
          "name": "studentAddress",
          "type": "address"
        },
        {
          "indexed": false,
          "internalType": "uint256",
          "name": "approvalId",
          "type": "uint256"
        },
        {
          "indexed": false,
          "internalType": "bool",
          "name": "registered",
          "type": "bool"
        }
      ],
      "name": "StudentApproved",
      "type": "event"
    },
    {
      "anonymous": false,
      "inputs": [
        {
          "indexed": false,
          "internalType": "address",
          "name": "studentPublicKey",
          "type": "address"
        },
        {
          "indexed": false,
          "internalType": "string",
          "name": "name",
          "type": "string"
        },
        {
          "indexed": false,
          "internalType": "string",
          "name": "course",
          "type": "string"
        },
        {
          "indexed": false,
          "internalType": "uint256",
          "name": "approvalId",
          "type": "uint256"
        }
      ],
      "name": "StudentRegistered",
      "type": "event"
    },
    {
      "anonymous": false,
      "inputs": [
        {
          "indexed": true,
          "internalType": "bytes32",
          "name": "publicKey",
          "type": "bytes32"
        },
        {
          "indexed": true,
          "internalType": "address",
          "name": "universityAddress",
          "type": "address"
        },
        {
          "indexed": false,
          "internalType": "string",
          "name": "name",
          "type": "string"
        }
      ],
      "name": "UniversityRegistered",
      "type": "event"
    },
    {
      "inputs": [],
      "name": "getAllUniversityAddrs",
      "outputs": [
        {
          "internalType": "address[]",
          "name": "",
          "type": "address[]"
        }
      ],
      "stateMutability": "view",
      "type": "function"
    },
    {
      "inputs": [
        {
          "internalType": "address",
          "name": "user",
          "type": "address"
        }
      ],
      "name": "getUniversityByAdd",
      "outputs": [
        {
          "internalType": "address",
          "name": "universityAddress",
          "type": "address"
        },
        {
          "internalType": "string",
          "name": "name",
          "type": "string"
        },
        {
          "internalType": "string",
          "name": "country",
          "type": "string"
        },
        {
          "internalType": "string",
          "name": "state",
          "type": "string"
        },
        {
          "internalType": "string",
          "name": "city",
          "type": "string"
        },
        {
          "internalType": "string",
          "name": "pincode",
          "type": "string"
        },
        {
          "internalType": "string",
          "name": "studentDomain",
          "type": "string"
        }
      ],
      "stateMutability": "view",
      "type": "function"
    },
    {
      "inputs": [
        {
          "internalType": "address",
          "name": "user",
          "type": "address"
        }
      ],
      "name": "getUniversityNameByAdd",
      "outputs": [
        {
          "internalType": "string",
          "name": "name",
          "type": "string"
        }
      ],
      "stateMutability": "view",
      "type": "function"
    },
    {
      "inputs": [
        {
          "internalType": "address",
          "name": "user",
          "type": "address"
        },
        {
          "internalType": "string",
          "name": "_name",
          "type": "string"
        },
        {
          "internalType": "string",
          "name": "_country",
          "type": "string"
        },
        {
          "internalType": "string",
          "name": "_state",
          "type": "string"
        },
        {
          "internalType": "string",
          "name": "_city",
          "type": "string"
        },
        {
          "internalType": "string",
          "name": "_pincode",
          "type": "string"
        },
        {
          "internalType": "string",
          "name": "_studentDomain",
          "type": "string"
        },
        {
          "internalType": "bytes32",
          "name": "_publicKey",
          "type": "bytes32"
        }
      ],
      "name": "registerUniversity",
      "outputs": [],
      "stateMutability": "nonpayable",
      "type": "function"
    },
    {
      "inputs": [
        {
          "internalType": "address",
          "name": "",
          "type": "address"
        }
      ],
      "name": "studentApprovalIds",
      "outputs": [
        {
          "internalType": "uint256",
          "name": "",
          "type": "uint256"
        }
      ],
      "stateMutability": "view",
      "type": "function"
    },
    {
      "inputs": [
        {
          "internalType": "address",
          "name": "",
          "type": "address"
        },
        {
          "internalType": "uint256",
          "name": "",
          "type": "uint256"
        }
      ],
      "name": "studentCertificates",
      "outputs": [
        {
          "internalType": "uint256",
          "name": "",
          "type": "uint256"
        }
      ],
      "stateMutability": "view",
      "type": "function"
    },
    {
      "inputs": [
        {
          "internalType": "address",
          "name": "",
          "type": "address"
        },
        {
          "internalType": "uint256",
          "name": "",
          "type": "uint256"
        }
      ],
      "name": "studentDegree",
      "outputs": [
        {
          "internalType": "uint256",
          "name": "",
          "type": "uint256"
        }
      ],
      "stateMutability": "view",
      "type": "function"
    },
    {
      "inputs": [
        {
          "internalType": "address",
          "name": "",
          "type": "address"
        }
      ],
      "name": "students",
      "outputs": [
        {
          "internalType": "address",
          "name": "studentPublicKey",
          "type": "address"
        },
        {
          "internalType": "string",
          "name": "name",
          "type": "string"
        },
        {
          "internalType": "string",
          "name": "course",
          "type": "string"
        },
        {
          "internalType": "uint16",
          "name": "yearOfJoining",
          "type": "uint16"
        },
        {
          "internalType": "uint16",
          "name": "yearOfPassing",
          "type": "uint16"
        },
        {
          "internalType": "bool",
          "name": "registered",
          "type": "bool"
        }
      ],
      "stateMutability": "view",
      "type": "function"
    },
    {
      "inputs": [
        {
          "internalType": "address",
          "name": "",
          "type": "address"
        }
      ],
      "name": "universities",
      "outputs": [
        {
          "internalType": "address",
          "name": "universityAddress",
          "type": "address"
        },
        {
          "internalType": "string",
          "name": "name",
          "type": "string"
        },
        {
          "components": [
            {
              "internalType": "string",
              "name": "country",
              "type": "string"
            },
            {
              "internalType": "string",
              "name": "state",
              "type": "string"
            },
            {
              "internalType": "string",
              "name": "city",
              "type": "string"
            },
            {
              "internalType": "string",
              "name": "pincode",
              "type": "string"
            }
          ],
          "internalType": "struct UniversityRegistryy.Location",
          "name": "location",
          "type": "tuple"
        },
        {
          "internalType": "string",
          "name": "studentDomain",
          "type": "string"
        },
        {
          "internalType": "bytes32",
          "name": "publicKey",
          "type": "bytes32"
        },
        {
          "internalType": "bool",
          "name": "res",
          "type": "bool"
        }
      ],
      "stateMutability": "view",
      "type": "function"
    },
    {
      "inputs": [
        {
          "internalType": "bytes32",
          "name": "",
          "type": "bytes32"
        },
        {
          "internalType": "uint256",
          "name": "",
          "type": "uint256"
        }
      ],
      "name": "universityCertificates",
      "outputs": [
        {
          "internalType": "uint256",
          "name": "",
          "type": "uint256"
        }
      ],
      "stateMutability": "view",
      "type": "function"
    },
    {
      "inputs": [
        {
          "internalType": "bytes32",
          "name": "",
          "type": "bytes32"
        },
        {
          "internalType": "uint256",
          "name": "",
          "type": "uint256"
        }
      ],
      "name": "universityDegree",
      "outputs": [
        {
          "internalType": "uint256",
          "name": "",
          "type": "uint256"
        }
      ],
      "stateMutability": "view",
      "type": "function"
    },
    {
      "inputs": [
        {
          "internalType": "uint256",
          "name": "",
          "type": "uint256"
        }
      ],
      "name": "universityPublicKeys",
      "outputs": [
        {
          "internalType": "address",
          "name": "",
          "type": "address"
        }
      ],
      "stateMutability": "view",
      "type": "function"
    },
    {
      "inputs": [
        {
          "internalType": "address",
          "name": "",
          "type": "address"
        },
        {
          "internalType": "uint256",
          "name": "",
          "type": "uint256"
        }
      ],
      "name": "universityStudentList",
      "outputs": [
        {
          "internalType": "address",
          "name": "",
          "type": "address"
        }
      ],
      "stateMutability": "view",
      "type": "function"
    },
    {
      "inputs": [
        {
          "internalType": "address",
          "name": "",
          "type": "address"
        },
        {
          "internalType": "address",
          "name": "",
          "type": "address"
        }
      ],
      "name": "universityStudents",
      "outputs": [
        {
          "internalType": "address",
          "name": "studentPublicKey",
          "type": "address"
        },
        {
          "internalType": "string",
          "name": "name",
          "type": "string"
        },
        {
          "internalType": "string",
          "name": "course",
          "type": "string"
        },
        {
          "internalType": "uint16",
          "name": "yearOfJoining",
          "type": "uint16"
        },
        {
          "internalType": "uint16",
          "name": "yearOfPassing",
          "type": "uint16"
        },
        {
          "internalType": "bool",
          "name": "registered",
          "type": "bool"
        }
      ],
      "stateMutability": "view",
      "type": "function"
    },
    {
      "inputs": [
        {
          "internalType": "address",
          "name": "user",
          "type": "address"
        },
        {
          "internalType": "address",
          "name": "univadd",
          "type": "address"
        },
        {
          "internalType": "bytes32",
          "name": "_publicKey",
          "type": "bytes32"
        },
        {
          "internalType": "string",
          "name": "_name",
          "type": "string"
        },
        {
          "internalType": "string",
          "name": "_course",
          "type": "string"
        },
        {
          "internalType": "uint16",
          "name": "_yearOfJoining",
          "type": "uint16"
        },
        {
          "internalType": "uint16",
          "name": "_yearOfPassing",
          "type": "uint16"
        }
      ],
      "name": "registerStudent",
      "outputs": [],
      "stateMutability": "nonpayable",
      "type": "function"
    },
    {
      "inputs": [
        {
          "internalType": "address",
          "name": "user",
          "type": "address"
        }
      ],
      "name": "isregister",
      "outputs": [
        {
          "internalType": "bool",
          "name": "",
          "type": "bool"
        }
      ],
      "stateMutability": "view",
      "type": "function"
    },
    {
      "inputs": [
        {
          "internalType": "address",
          "name": "_universityAddress",
          "type": "address"
        }
      ],
      "name": "getAllStudentsInUniversity",
      "outputs": [
        {
          "components": [
            {
              "internalType": "address",
              "name": "studentPublicKey",
              "type": "address"
            },
            {
              "internalType": "string",
              "name": "name",
              "type": "string"
            },
            {
              "internalType": "string",
              "name": "course",
              "type": "string"
            },
            {
              "internalType": "uint16",
              "name": "yearOfJoining",
              "type": "uint16"
            },
            {
              "internalType": "uint16",
              "name": "yearOfPassing",
              "type": "uint16"
            },
            {
              "internalType": "bool",
              "name": "registered",
              "type": "bool"
            }
          ],
          "internalType": "struct StudentRegistry.Student[]",
          "name": "",
          "type": "tuple[]"
        }
      ],
      "stateMutability": "view",
      "type": "function"
    },
    {
      "inputs": [
        {
          "internalType": "address",
          "name": "user",
          "type": "address"
        }
      ],
      "name": "getStudent",
      "outputs": [
        {
          "components": [
            {
              "internalType": "address",
              "name": "studentPublicKey",
              "type": "address"
            },
            {
              "internalType": "string",
              "name": "name",
              "type": "string"
            },
            {
              "internalType": "string",
              "name": "course",
              "type": "string"
            },
            {
              "internalType": "uint16",
              "name": "yearOfJoining",
              "type": "uint16"
            },
            {
              "internalType": "uint16",
              "name": "yearOfPassing",
              "type": "uint16"
            },
            {
              "internalType": "bool",
              "name": "registered",
              "type": "bool"
            }
          ],
          "internalType": "struct StudentRegistry.Student",
          "name": "",
          "type": "tuple"
        }
      ],
      "stateMutability": "view",
      "type": "function"
    },
    {
      "inputs": [
        {
          "internalType": "address",
          "name": "_university",
          "type": "address"
        },
        {
          "internalType": "address",
          "name": "_student",
          "type": "address"
        }
      ],
      "name": "getStudentuni",
      "outputs": [
        {
          "internalType": "address",
          "name": "",
          "type": "address"
        }
      ],
      "stateMutability": "view",
      "type": "function"
    },
    {
      "inputs": [
        {
          "internalType": "address",
          "name": "user",
          "type": "address"
        }
      ],
      "name": "getApprovalId",
      "outputs": [
        {
          "internalType": "uint256",
          "name": "",
          "type": "uint256"
        }
      ],
      "stateMutability": "view",
      "type": "function"
    },
    {
      "inputs": [
        {
          "internalType": "address",
          "name": "studentAddress",
          "type": "address"
        },
        {
          "internalType": "uint256",
          "name": "approvalId",
          "type": "uint256"
        },
        {
          "internalType": "address",
          "name": "univadd",
          "type": "address"
        }
      ],
      "name": "approveStudentRegistration",
      "outputs": [],
      "stateMutability": "nonpayable",
      "type": "function"
    },
    {
      "inputs": [
        {
          "internalType": "address",
          "name": "_universityAddress",
          "type": "address"
        }
      ],
      "name": "getNotRegisteredStudents",
      "outputs": [
        {
          "internalType": "address[]",
          "name": "",
          "type": "address[]"
        }
      ],
      "stateMutability": "view",
      "type": "function"
    }
  ],
  "bytecode": "0x6080806040523461001657612561908161001c8239f35b600080fdfe608080604052600436101561001357600080fd5b60003560e01c908163148dcd3014612091575080631bb2f1111461206057806349393ba714611fab57806351766af914611f515780636b7b44d714611eab5780637ddddd1a146114a65780638248079c1461144b5780639861a3e21461141a5780639e5d744d146112eb578063a51e2dbe14611292578063a6c807a91461121c578063b926dc3e146110cf578063ba606dae146108d9578063c033c6bf1461089f578063c3934f0e14610855578063d5459733146105d7578063de7646341461052e578063e509d6cf1461049b578063e6955bb814610443578063f099556014610343578063f563f33f146102e35763feff68121461011157600080fd5b346102de5760603660031901126102de5761012a6120c7565b6001600160a01b03604435818116926024359290918490036102de57836000526020916000835260ff600860406000200154161561028b5716928360005260028252826040600020540361025057836000526006825260ff600360406000200154831c1661020b579160016040927fd287853cda8eb90f3697f47f8948414b47fe30f1f1bb0b37a46e9431fc536cf894866000526006825260038560002001906401000000009064ff0000000019928284825416179055600052600983528560002088600052835260038660002001918254161790558351928352820152a2005b60405162461bcd60e51b815260048101839052601d60248201527f53747564656e7420697320616c726561647920726567697374657265640000006044820152606490fd5b60405162461bcd60e51b8152600481018390526013602482015272125b9d985b1a5908185c1c1c9bdd985b081251606a1b6044820152606490fd5b60405162461bcd60e51b815260048101849052602560248201527f43616c6c6572206973206e6f742061207265676973746572656420756e697665604482015264727369747960d81b6064820152608490fd5b600080fd5b346102de5760203660031901126102de576001600160a01b03610321816103086120c7565b1691826000526006602052604060002054161515612433565b6000526006602052602060ff600360406000200154821c166040519015158152f35b346102de5760203660031901126102de576001600160a01b03806103656120c7565b166000526000602052604060002090815416610383600183016121f2565b91610390600282016123e5565b61043261039f600684016121f2565b61042460ff6008600787015496015416936103cc604051988998895260c060208a015260c0890190612121565b878103604089015260606104136104016103ef8551608086526080860190612121565b60208601518582036020870152612121565b60408501518482036040860152612121565b920151906060818403910152612121565b908582036060870152612121565b916080840152151560a08301520390f35b346102de5760403660031901126102de5761045c6120c7565b6001600160a01b03166000908152600860205260409020805460243591908210156102de5760209161048d91612109565b90546040519160031b1c8152f35b346102de5760003660031901126102de5760405180600191825492838252602080920193816000527fb10e2d527612073b26eecdfd717e6a320cf44b4afac2b0732d9fcbe2b7fa0cf6926000905b8282106105105761050c86610500818a03826121d1565b604051918291826123a1565b0390f35b84546001600160a01b031687529586019593830193908301906104e9565b346102de5760403660031901126102de5760206105496120c7565b6105516120dd565b60018060a01b038092166000526009835281604060002091166000528252604060002060ff6003604051926105858461219b565b848154168452610597600182016121f2565b868501526105a7600282016121f2565b6040850152015461ffff80821660608501528160101c166080840152841c16151560a08201525116604051908152f35b346102de576020806003193601126102de576001600160a01b0390816105fb6120c7565b16806000526000825261061683604060002054161515612433565b600052600391828252604060002091604051808483829654938481520190600052836000209260005b8582821061083d57505050610656925003846121d1565b60009160005b84518110156106ae5781610670828761249b565b51166000526006835260ff8660406000200154841c16610699575b61069490612476565b61065c565b926106a661069491612476565b93905061068b565b5084926106ba816124af565b906106c860405192836121d1565b8082526106d7601f19916124af565b018360005b8281106108275750505060009160005b86518110156107c95781610700828961249b565b5116600052600680865260ff90818860406000200154881c1661072e575b505061072990612476565b6106ec565b946107c191839685610743610729968d61249b565b51166000528852604060002090896040519261075e8461219b565b878154168452610770600182016121f2565b8b850152610780600282016121f2565b6040850152015461ffff80821660608501528160101c166080840152891c16151560a08201526107b0828761249b565b526107bb818661249b565b50612476565b93908861071e565b604080518681528451818801819052600092600582901b8301810191878a01918a9085015b8287106107fb5785850386f35b909192938280610817600193603f198a820301865288516122e8565b96019201960195929190926107ee565b61082f6124c6565b8282860101520184906106dc565b8554881684526001958601958995509301920161063f565b346102de5760403660031901126102de5761086e6120c7565b6001600160a01b03166000908152600760205260409020805460243591908210156102de5760209161048d91612109565b346102de5760203660031901126102de576001600160a01b036108c06120c7565b1660005260026020526020604060002054604051908152f35b346102de5760e03660031901126102de576108f26120c7565b6108fa6120dd565b906064356001600160401b0381116102de5761091a90369060040161234b565b906084356001600160401b0381116102de5761093a90369060040161234b565b9260a43561ffff811681036102de5760c43561ffff811681036102de5760018060a01b038316600052600060205261097c60ff60086040600020015416612433565b6040516109888161219b565b6001600160a01b03858116808352602080840189815260408086018c905261ffff888116606088015287166080870152600060a0870181905293845260069092529120835181546001600160a01b0319169316929092178255518051919291906001600160401b038211610d81578190610a056001860154612161565b601f811161107c575b50602090601f831160011461100a57600092610fff575b50508160011b916000199060031b1c19161760018301555b60408101518051906001600160401b038211610d8157610a606002850154612161565b601f8111610fb8575b50602090601f8311600114610f3c57610af4938361ffff97969460039460a094600092610f31575b50508160011b9160001990861b1c19161760028501555b86606082015116838501549063ffff0000608084015160101b169163ffffffff19161717838501550151151591019064ff00000000825491151560201b169064ff000000001916179055565b8160405193610b028561219b565b6001600160a01b0387811680875260208088018b81526040808a018e9052959094166060890152959094166080870152600060a08701819052878216815260098652838120948152939094529120835181546001600160a01b0319169316929092178255518051906001600160401b038211610d81578190610b876001850154612161565b601f8111610ede575b50602090601f8311600114610e6c57600092610e61575b50508160011b916000199060031b1c19161760018201555b60408201518051906001600160401b038211610d8157610be26002840154612161565b601f8111610e1a575b50602090601f8311600114610da257928260a093600393610c6f9796600092610d97575b50508160011b9160001990851b1c19161760028201555b019161ffff60608201511683549063ffff0000608084015160101b169163ffffffff1916171783550151151564ff00000000825491151560201b169064ff000000001916179055565b6001600160a01b0316600090815260036020526040902080549390600160401b851015610d815784610cc79160017f67857a7e83f99a32bd4dba6bed796c2a6a07c0de06ef7ef5985ab49ad56e77bd97018155612109565b81549060031b9060018060a01b038516821b9160018060a01b03901b1916179055610d76670de0b6b3a764000060405160208101906001600160601b03198660601b168252426034820152604435605482015260548152610d27816121b6565b519020069160018060a01b038416600052600260205282604060002055610d6860405195869560018060a01b03168652608060208701526080860190612121565b908482036040860152612121565b9060608301520390a1005b634e487b7160e01b600052604160045260246000fd5b015190508b80610c0f565b906002840160005260206000209160005b601f1985168110610e02575083600393610c6f97969360019360a097601f19811610610dea575b505050811b016002820155610c26565b015160001983871b60f8161c191690558b8080610dda565b91926020600181928685015181550194019201610db3565b600284016000526020600020601f840160051c810160208510610e5a575b601f830160051c82018110610e4e575050610beb565b60008155600101610e38565b5080610e38565b015190508880610ba7565b9250600184016000526020600020906000935b601f1984168510610ec3576001945083601f19811610610eaa575b505050811b016001820155610bbf565b015160001960f88460031b161c19169055888080610e9a565b81810151835560209485019460019093019290910190610e7f565b909150600184016000526020600020601f840160051c810160208510610f2a575b90849392915b601f830160051c82018110610f1b575050610b90565b60008155859450600101610f05565b5080610eff565b015190508e80610a91565b906002850160005260206000209160005b601f1985168110610fa057509360018460039460a094610af49861ffff9b9a98601f19811610610f88575b505050811b016002850155610aa8565b015160001983881b60f8161c191690558e8080610f78565b91926020600181928685015181550194019201610f4d565b600285016000526020600020601f840160051c810160208510610ff8575b601f830160051c82018110610fec575050610a69565b60008155600101610fd6565b5080610fd6565b015190508a80610a25565b9250600185016000526020600020906000935b601f1984168510611061576001945083601f19811610611048575b505050811b016001830155610a3d565b015160001960f88460031b161c191690558a8080611038565b8181015183556020948501946001909301929091019061101d565b909150600185016000526020600020601f840160051c8101602085106110c8575b90849392915b601f830160051c820181106110b9575050610a0e565b600081558594506001016110a3565b508061109d565b346102de576020806003193601126102de576001600160a01b0390816110f36120c7565b16806000526000825261110e83604060002054161515612433565b6000526003808252604060002091604051808483829654938481520190600052836000209260005b858282106112045750505061114d925003846121d1565b61115783516124f9565b9160009160005b85518110156111be5786611172828861249b565b5116806000526006835260ff8460406000200154841c161561119e575b5061119990612476565b61115e565b846111b7916111b161119994978961249b565b52612476565b939061118f565b505050836111cb826124f9565b9260005b8381106111e4576040518061050c87826123a1565b80836111f36111ff938561249b565b51166111b1828861249b565b6111cf565b85548a16845260019586019589955093019201611136565b346102de5760203660031901126102de576001600160a01b038061123e6120c7565b1660005260066020526040600020908154169061050c611260600183016121f2565b600361126e600285016121f2565b93015460405194859461ffff9360ff8460201c1694808560101c1694169287612298565b346102de5760403660031901126102de576112ab6120c7565b6024359060018060a01b038091166000526003602052604060002080548310156102de576020926112db91612109565b90549060031b1c16604051908152f35b346102de5760203660031901126102de5760206001600160a01b038061130f6120c7565b166000526000825261050c604060002061140c6040519161132f8361219b565b8481541683526113fe611344600183016121f2565b95878501968752611357600284016123e5565b946040810195865260ff600861136f600687016121f2565b956060840196875260078101546080850152015416151560a0820152611399828251161515612433565b5116955193516113f081516113e28a840151916113d46060604087015196015197519960e06040519e8f9e8f908152015260e08d0190612121565b908b820360408d0152612121565b9089820360608b0152612121565b908782036080890152612121565b9085820360a0870152612121565b9083820360c0850152612121565b346102de57611428366120f3565b906000526005602052604060002080548210156102de5760209161048d91612109565b346102de5760203660031901126102de576004356001548110156102de5760016000527fb10e2d527612073b26eecdfd717e6a320cf44b4afac2b0732d9fcbe2b7fa0cf601546040516001600160a01b039091168152602090f35b346102de576101003660031901126102de576114c06120c7565b6024356001600160401b0381116102de576114df90369060040161234b565b6044356001600160401b0381116102de576114fe90369060040161234b565b6064356001600160401b0381116102de5761151d90369060040161234b565b906084356001600160401b0381116102de5761153d90369060040161234b565b9060a4356001600160401b0381116102de5761155d90369060040161234b565b60c4356001600160401b0381116102de5761157c90369060040161234b565b9260018060a01b039485881660005260006020528560406000205416611e6657865115611e2a576064875111611df257604051936115b9856121b6565b8452602084015260408301526060820152604051916115d78361219b565b838616835260208301918583526040840152606083015260e4356080830152600160a08301528285166000526000602052604060002090838351166001600160601b0360a01b835416178255518051906001600160401b038211610d815781906116446001850154612161565b601f8111611d9f575b50602090601f8311600114611d2d57600092611d22575b50508160011b916000199060031b1c19161760018201555b604082015180518051906001600160401b038211610d815781906116a36002860154612161565b601f8111611ccf575b50602090601f8311600114611c5d57600092611c52575b50508160011b916000199060031b1c19161760028301555b60208101518051906001600160401b038211610d815781906117006003860154612161565b601f8111611bff575b50602090601f8311600114611b8d57600092611b82575b50508160011b916000199060031b1c19161760038301555b60408101518051906001600160401b038211610d815761175b6004850154612161565b601f8111611b3b575b50602090601f8311600114611ac857606093929160009183611abd575b50508160011b916000199060031b1c19161760048401555b01518051906001600160401b038211610d815781906117bb6005850154612161565b601f8111611a6a575b50602090601f83116001146119f8576000926119ed575b50508160011b916000199060031b1c19161760058201555b60608201518051906001600160401b038211610d81576118166006840154612161565b601f81116119a6575b50602090601f831160011461193157918060a09492600894600092611926575b50508160011b916000199060031b1c19161760068201555b6080840151600782015501910151151560ff8019835416911617905560015490600160401b821015610d81576001820180600155821015611910577f1878b98cdd20035dbb8cf5ab01bd1154cacee2b10b7852e62d60c69be1c89aa39160016000527fb10e2d527612073b26eecdfd717e6a320cf44b4afac2b0732d9fcbe2b7fa0cf6018185166001600160601b0360a01b825416179055604051936020855216928061190b60e435946020830190612121565b0390a3005b634e487b7160e01b600052603260045260246000fd5b01519050898061183f565b906006840160005260206000209160005b601f198516811061198e57509260a0949260019260089583601f19811610611975575b505050811b016006820155611857565b015160001960f88460031b161c19169055898080611965565b91926020600181928685015181550194019201611942565b600684016000526020600020601f840160051c8101602085106119e6575b601f830160051c820181106119da57505061181f565b600081556001016119c4565b50806119c4565b0151905087806117db565b9250600584016000526020600020906000935b601f1984168510611a4f576001945083601f19811610611a36575b505050811b0160058201556117f3565b015160001960f88460031b161c19169055878080611a26565b81810151835560209485019460019093019290910190611a0b565b909150600584016000526020600020601f840160051c810160208510611ab6575b90849392915b601f830160051c82018110611aa75750506117c4565b60008155859450600101611a91565b5080611a8b565b015190508980611781565b906004850160005260206000209160005b601f1985168110611b23575091839160019360609695601f19811610611b0a575b505050811b016004840155611799565b015160001960f88460031b161c19169055898080611afa565b91926020600181928685015181550194019201611ad9565b600485016000526020600020601f840160051c810160208510611b7b575b601f830160051c82018110611b6f575050611764565b60008155600101611b59565b5080611b59565b015190508880611720565b9250600385016000526020600020906000935b601f1984168510611be4576001945083601f19811610611bcb575b505050811b016003830155611738565b015160001960f88460031b161c19169055888080611bbb565b81810151835560209485019460019093019290910190611ba0565b909150600385016000526020600020601f840160051c810160208510611c4b575b90849392915b601f830160051c82018110611c3c575050611709565b60008155859450600101611c26565b5080611c20565b0151905088806116c3565b9250600285016000526020600020906000935b601f1984168510611cb4576001945083601f19811610611c9b575b505050811b0160028301556116db565b015160001960f88460031b161c19169055888080611c8b565b81810151835560209485019460019093019290910190611c70565b909150600285016000526020600020601f840160051c810160208510611d1b575b90849392915b601f830160051c82018110611d0c5750506116ac565b60008155859450600101611cf6565b5080611cf0565b015190508780611664565b9250600184016000526020600020906000935b601f1984168510611d84576001945083601f19811610611d6b575b505050811b01600182015561167c565b015160001960f88460031b161c19169055878080611d5b565b81810151835560209485019460019093019290910190611d40565b909150600184016000526020600020601f840160051c810160208510611deb575b90849392915b601f830160051c82018110611ddc57505061164d565b60008155859450600101611dc6565b5080611dc0565b60405162461bcd60e51b815260206004820152601060248201526f4e616d6520697320746f6f206c6f6e6760801b6044820152606490fd5b60405162461bcd60e51b81526020600482015260146024820152734e616d652063616e6e6f7420626520656d70747960601b6044820152606490fd5b60405162461bcd60e51b815260206004820152601d60248201527f556e697665727369747920616c726561647920726567697374657265640000006044820152606490fd5b346102de576020806003193601126102de57611ec56120c7565b90611ece6124c6565b5060018060a01b038092166000526006815260ff6003604060002060405194611ef68661219b565b8154168552611f07600182016121f2565b84860152611f17600282016121f2565b6040860152015461ffff80821660608601528160101c166080850152821c16151560a083015261050c6040519282849384528301906122e8565b346102de5760403660031901126102de57611f6a6120c7565b611f726120dd565b60018060a01b03809216600052600960205281604060002091166000526020526040600020908154169061050c611260600183016121f2565b346102de5760203660031901126102de5761050c6001600160a01b0380611fd06120c7565b16600052600060205261204b604060002091604051611fee8161219b565b81845416815260ff6008612004600187016121f2565b9560208401968752612018600282016123e5565b6040850152612029600682016121f2565b606085015260078101546080850152015416151560a082015251161515612433565b51604051918291602083526020830190612121565b346102de5761206e366120f3565b906000526004602052604060002080548210156102de5760209161048d91612109565b346102de5760203660031901126102de576020906001600160a01b036120b56120c7565b16600052600282526040600020548152f35b600435906001600160a01b03821682036102de57565b602435906001600160a01b03821682036102de57565b60409060031901126102de576004359060243590565b80548210156119105760005260206000200190600090565b919082519283825260005b84811061214d575050826000602080949584010152601f8019910116010190565b60208183018101518483018201520161212c565b90600182811c92168015612191575b602083101461217b57565b634e487b7160e01b600052602260045260246000fd5b91607f1691612170565b60c081019081106001600160401b03821117610d8157604052565b608081019081106001600160401b03821117610d8157604052565b90601f801991011681019081106001600160401b03821117610d8157604052565b906040519182600082549261220684612161565b9081845260019485811690816000146122755750600114612232575b5050612230925003836121d1565b565b9093915060005260209081600020936000915b81831061225d57505061223093508201013880612222565b85548884018501529485019487945091830191612245565b91505061223094506020925060ff191682840152151560051b8201013880612222565b949695926122c160a095936122cf93600180891b0316885260c0602089015260c0880190612121565b908682036040880152612121565b9561ffff80921660608601521660808401521515910152565b9060018060a01b03825116815260a080612326612314602086015160c0602087015260c0860190612121565b60408601518582036040870152612121565b9361ffff80606083015116606086015260808201511660808501520151151591015290565b81601f820112156102de578035906001600160401b038211610d81576040519261237f601f8401601f1916602001856121d1565b828452602083830101116102de57816000926020809301838601378301015290565b6020908160408183019282815285518094520193019160005b8281106123c8575050505090565b83516001600160a01b0316855293810193928101926001016123ba565b906040516123f2816121b6565b606061242e60038395612404816121f2565b8552612412600182016121f2565b6020860152612423600282016121f2565b6040860152016121f2565b910152565b1561243a57565b60405162461bcd60e51b8152602060048201526014602482015273155b9a5d995c9cda5d1e481b9bdd08199bdd5b9960621b6044820152606490fd5b60001981146124855760010190565b634e487b7160e01b600052601160045260246000fd5b80518210156119105760209160051b010190565b6001600160401b038111610d815760051b60200190565b604051906124d38261219b565b600060a08382815260606020820152606060408201528260608201528260808201520152565b90612503826124af565b61251060405191826121d1565b8281528092612521601f19916124af565b019060203691013756fea264697066735822122064ac2b4c9ac8b92a869d1eff55653422f6e55d08403c052c585b8af6873c97a964736f6c63430008130033",
  "immutableReferences": {},
  "source": "// SPDX-License-Identifier: MIT\r\npragma solidity ^0.8.19;\r\n\r\nimport \"@openzeppelin/contracts/utils/cryptography/ECDSA.sol\"; // For cryptographic functions\r\nimport \"./Universityy.sol\";\r\n\r\n\r\ncontract StudentRegistry is UniversityRegistryy{\r\n    using ECDSA for bytes32; // Helper library for cryptographic functions\r\n\r\n    struct Student {\r\n        address studentPublicKey;\r\n        string name;\r\n        string course;\r\n        uint16 yearOfJoining;\r\n        uint16 yearOfPassing;\r\n        bool registered;\r\n    }\r\n\r\n    mapping(address => Student) public students;     \r\n    mapping(address => uint256[]) public studentCertificates;\r\n    mapping(address => uint256[]) public studentDegree;\r\n    mapping(address => mapping(address => Student)) public universityStudents;\r\n\r\n    event StudentRegistered(address studentPublicKey, string name,string course,uint256 approvalId);\r\n\r\n    function registerStudent(\r\n        address user,\r\n        address univadd,\r\n        bytes32 _publicKey,\r\n        string memory _name,\r\n        string memory _course,\r\n        uint16 _yearOfJoining,\r\n        uint16 _yearOfPassing\r\n    ) public {\r\n        require(universities[univadd].res, \"University not found\");\r\n        students[user] = Student(user, _name, _course, _yearOfJoining, _yearOfPassing, false);\r\n        universityStudents[univadd][user] = Student(user, _name, _course, _yearOfJoining, _yearOfPassing, false);\r\n    \r\n        universityStudentList[univadd].push(user);\r\n    \r\n        bytes32 hash = keccak256(abi.encodePacked(user, block.timestamp, _publicKey));\r\n\r\n        uint approvalId = uint256(hash) % (10 ** 18); // Convert to uint\r\n\r\n        studentApprovalIds[user] = approvalId;\r\n\r\n        emit StudentRegistered(user, _name, _course, approvalId);\r\n    }\r\n\r\n    function isregister(address user) public view returns(bool){\r\n        require(students[user].studentPublicKey != address(0), \"University not found\");\r\n        return (students[user].registered);\r\n    }\r\n\r\n    function getAllStudentsInUniversity(address _universityAddress) public view returns (Student[] memory) {\r\n        // Ensure the university is registered\r\n        require(universities[_universityAddress].universityAddress != address(0), \"University not found\");\r\n    \r\n        // Get the list of student addresses for the university\r\n        address[] memory studentAddresses = universityStudentList[_universityAddress];\r\n    \r\n        // Count the number of registered students\r\n        uint256 registeredCount = 0;\r\n        for (uint256 i = 0; i < studentAddresses.length; i++) {\r\n            if (students[studentAddresses[i]].registered) {\r\n                registeredCount++;\r\n            }\r\n        }\r\n    \r\n        // Create an array to store the registered students\r\n        Student[] memory registeredStudents = new Student[](registeredCount);\r\n        uint256 index = 0;\r\n    \r\n        // Populate the array with registered student details\r\n        for (uint256 i = 0; i < studentAddresses.length; i++) {\r\n            if (students[studentAddresses[i]].registered) {\r\n                registeredStudents[index] = students[studentAddresses[i]];\r\n                index++;\r\n            }\r\n        }\r\n    \r\n        return registeredStudents;\r\n    }\r\n\r\n    function getStudent(address user) public view returns (Student memory) {\r\n        return students[user];\r\n    }\r\n\r\n    function getStudentuni(address _university, address _student) public view returns (address) {\r\n        Student memory student = universityStudents[_university][_student];\r\n        return student.studentPublicKey;\r\n    }\r\n\r\n\r\n    function getApprovalId(address user) public view returns (uint256) {\r\n        return studentApprovalIds[user];\r\n    }\r\n\r\n    function approveStudentRegistration(address studentAddress, uint256 approvalId, address univadd) public {\r\n        // Ensure the caller is a registered university\r\n        require(universities[univadd].res, \"Caller is not a registered university\");\r\n    \r\n        // Ensure the approval ID matches\r\n        require(studentApprovalIds[studentAddress] == approvalId, \"Invalid approval ID\");\r\n    \r\n        // Ensure the student is not already approved\r\n        require(!students[studentAddress].registered, \"Student is already registered\");\r\n    \r\n        // Approve the student\r\n        students[studentAddress].registered = true;\r\n        universityStudents[univadd][studentAddress].registered = true;\r\n    \r\n        // Emit the approval event\r\n        emit StudentApproved(studentAddress, approvalId, true);\r\n    }\r\n\r\n    function getNotRegisteredStudents(address _universityAddress) public view returns (address[] memory) {\r\n        require(universities[_universityAddress].universityAddress != address(0), \"University not found\");\r\n    \r\n        address[] memory studentAddresses = universityStudentList[_universityAddress];\r\n    \r\n        address[] memory notRegisteredStudents = new address[](studentAddresses.length);\r\n        uint256 count = 0;\r\n    \r\n        for (uint256 i = 0; i < studentAddresses.length; i++) {\r\n            address studentAddress = studentAddresses[i];\r\n    \r\n            if (!students[studentAddress].registered) {\r\n                notRegisteredStudents[count] = studentAddress;\r\n                count++;\r\n            }\r\n        }\r\n    \r\n        address[] memory result = new address[](count);\r\n        for (uint256 i = 0; i < count; i++) {\r\n            result[i] = notRegisteredStudents[i];\r\n        }\r\n    \r\n        return result;\r\n    }\r\n}",
  "sourcePath": "D:\\coding\\Hackathon\\c\\contracts\\Studentregs.sol",
  "compiler": {
    "name": "solc",
    "version": "0.8.19+commit.7dd6d404.Emscripten.clang"
  },
  "schemaVersion": "3.4.10",
  "updatedAt": "2025-09-11T18:20:05.143Z",
  "devdoc": {
    "kind": "dev",
    "methods": {},
    "version": 1
  },
  "userdoc": {
    "kind": "user",
    "methods": {},
    "version": 1
  }
}