{
  "contractName": "UniversityRegistryy",
  "abi": [
    {
      "anonymous": false,
      "inputs": [
        {
          "indexed": true,
          "internalType": "address",
          "name": "studentAddress",
          "type": "address"
        },
        {
          "indexed": false,
          "internalType": "uint256",
          "name": "approvalId",
          "type": "uint256"
        },
        {
          "indexed": false,
          "internalType": "bool",
          "name": "registered",
          "type": "bool"
        }
      ],
      "name": "StudentApproved",
      "type": "event"
    },
    {
      "anonymous": false,
      "inputs": [
        {
          "indexed": true,
          "internalType": "bytes32",
          "name": "publicKey",
          "type": "bytes32"
        },
        {
          "indexed": true,
          "internalType": "address",
          "name": "universityAddress",
          "type": "address"
        },
        {
          "indexed": false,
          "internalType": "string",
          "name": "name",
          "type": "string"
        }
      ],
      "name": "UniversityRegistered",
      "type": "event"
    },
    {
      "inputs": [
        {
          "internalType": "address",
          "name": "",
          "type": "address"
        }
      ],
      "name": "studentApprovalIds",
      "outputs": [
        {
          "internalType": "uint256",
          "name": "",
          "type": "uint256"
        }
      ],
      "stateMutability": "view",
      "type": "function"
    },
    {
      "inputs": [
        {
          "internalType": "address",
          "name": "",
          "type": "address"
        }
      ],
      "name": "universities",
      "outputs": [
        {
          "internalType": "address",
          "name": "universityAddress",
          "type": "address"
        },
        {
          "internalType": "string",
          "name": "name",
          "type": "string"
        },
        {
          "components": [
            {
              "internalType": "string",
              "name": "country",
              "type": "string"
            },
            {
              "internalType": "string",
              "name": "state",
              "type": "string"
            },
            {
              "internalType": "string",
              "name": "city",
              "type": "string"
            },
            {
              "internalType": "string",
              "name": "pincode",
              "type": "string"
            }
          ],
          "internalType": "struct UniversityRegistryy.Location",
          "name": "location",
          "type": "tuple"
        },
        {
          "internalType": "string",
          "name": "studentDomain",
          "type": "string"
        },
        {
          "internalType": "bytes32",
          "name": "publicKey",
          "type": "bytes32"
        },
        {
          "internalType": "bool",
          "name": "res",
          "type": "bool"
        }
      ],
      "stateMutability": "view",
      "type": "function"
    },
    {
      "inputs": [
        {
          "internalType": "bytes32",
          "name": "",
          "type": "bytes32"
        },
        {
          "internalType": "uint256",
          "name": "",
          "type": "uint256"
        }
      ],
      "name": "universityCertificates",
      "outputs": [
        {
          "internalType": "uint256",
          "name": "",
          "type": "uint256"
        }
      ],
      "stateMutability": "view",
      "type": "function"
    },
    {
      "inputs": [
        {
          "internalType": "bytes32",
          "name": "",
          "type": "bytes32"
        },
        {
          "internalType": "uint256",
          "name": "",
          "type": "uint256"
        }
      ],
      "name": "universityDegree",
      "outputs": [
        {
          "internalType": "uint256",
          "name": "",
          "type": "uint256"
        }
      ],
      "stateMutability": "view",
      "type": "function"
    },
    {
      "inputs": [
        {
          "internalType": "uint256",
          "name": "",
          "type": "uint256"
        }
      ],
      "name": "universityPublicKeys",
      "outputs": [
        {
          "internalType": "address",
          "name": "",
          "type": "address"
        }
      ],
      "stateMutability": "view",
      "type": "function"
    },
    {
      "inputs": [
        {
          "internalType": "address",
          "name": "",
          "type": "address"
        },
        {
          "internalType": "uint256",
          "name": "",
          "type": "uint256"
        }
      ],
      "name": "universityStudentList",
      "outputs": [
        {
          "internalType": "address",
          "name": "",
          "type": "address"
        }
      ],
      "stateMutability": "view",
      "type": "function"
    },
    {
      "inputs": [
        {
          "internalType": "address",
          "name": "user",
          "type": "address"
        },
        {
          "internalType": "string",
          "name": "_name",
          "type": "string"
        },
        {
          "internalType": "string",
          "name": "_country",
          "type": "string"
        },
        {
          "internalType": "string",
          "name": "_state",
          "type": "string"
        },
        {
          "internalType": "string",
          "name": "_city",
          "type": "string"
        },
        {
          "internalType": "string",
          "name": "_pincode",
          "type": "string"
        },
        {
          "internalType": "string",
          "name": "_studentDomain",
          "type": "string"
        },
        {
          "internalType": "bytes32",
          "name": "_publicKey",
          "type": "bytes32"
        }
      ],
      "name": "registerUniversity",
      "outputs": [],
      "stateMutability": "nonpayable",
      "type": "function"
    },
    {
      "inputs": [
        {
          "internalType": "address",
          "name": "user",
          "type": "address"
        }
      ],
      "name": "getUniversityByAdd",
      "outputs": [
        {
          "internalType": "address",
          "name": "universityAddress",
          "type": "address"
        },
        {
          "internalType": "string",
          "name": "name",
          "type": "string"
        },
        {
          "internalType": "string",
          "name": "country",
          "type": "string"
        },
        {
          "internalType": "string",
          "name": "state",
          "type": "string"
        },
        {
          "internalType": "string",
          "name": "city",
          "type": "string"
        },
        {
          "internalType": "string",
          "name": "pincode",
          "type": "string"
        },
        {
          "internalType": "string",
          "name": "studentDomain",
          "type": "string"
        }
      ],
      "stateMutability": "view",
      "type": "function"
    },
    {
      "inputs": [
        {
          "internalType": "address",
          "name": "user",
          "type": "address"
        }
      ],
      "name": "getUniversityNameByAdd",
      "outputs": [
        {
          "internalType": "string",
          "name": "name",
          "type": "string"
        }
      ],
      "stateMutability": "view",
      "type": "function"
    },
    {
      "inputs": [],
      "name": "getAllUniversityAddrs",
      "outputs": [
        {
          "internalType": "address[]",
          "name": "",
          "type": "address[]"
        }
      ],
      "stateMutability": "view",
      "type": "function"
    }
  ],
  "bytecode": "0x608080604052346100165761129e908161001c8239f35b600080fdfe6080604052600436101561001257600080fd5b60003560e01c80631bb2f11114610f4857806349393ba714610e935780637ddddd1a146104965780638248079c146104545780639861a3e2146104155780639e5d744d146102e2578063a51e2dbe14610289578063c033c6bf1461024f578063e509d6cf1461018f5763f09955601461008a57600080fd5b3461018a57602036600319011261018a576001600160a01b03806100ac610ff4565b1660005260006020526040600020908154166100ca60018301611131565b916100d7600282016111d7565b6101796100e660068401611131565b61016b60ff600860078701549601541693610113604051988998895260c060208a015260c089019061100a565b8781036040890152606061015a610148610136855160808652608086019061100a565b6020860151858203602087015261100a565b6040850151848203604086015261100a565b92015190606081840391015261100a565b90858203606087015261100a565b916080840152151560a08301520390f35b600080fd5b3461018a57600036600319011261018a5760405180600180549283815260208091018094836000527fb10e2d527612073b26eecdfd717e6a320cf44b4afac2b0732d9fcbe2b7fa0cf69060005b81811061023357505050836101f2910384611080565b60405192818401908285525180915260408401949160005b8281106102175785870386f35b83516001600160a01b031687529581019592810192840161020a565b82546001600160a01b03168452928401929185019185016101dc565b3461018a57602036600319011261018a576001600160a01b03610270610ff4565b1660005260026020526020604060002054604051908152f35b3461018a57604036600319011261018a576102a2610ff4565b6024359060018060a01b0380911660005260036020526040600020805483101561018a576020926102d291610fdc565b90549060031b1c16604051908152f35b3461018a57602036600319011261018a5760206001600160a01b0380610306610ff4565b16600052600082526104116040600020610403604051916103268361104a565b8481541683526103f561033b60018301611131565b9587850196875261034e600284016111d7565b946040810195865260ff600861036660068701611131565b956060840196875260078101546080850152015416151560a0820152610390828251161515611225565b5116955193516103e781516103d98a840151916103cb6060604087015196015197519960e06040519e8f9e8f908152015260e08d019061100a565b908b820360408d015261100a565b9089820360608b015261100a565b90878203608089015261100a565b9085820360a087015261100a565b9083820360c085015261100a565b0390f35b3461018a5761042336610f79565b9060005260056020526040600020805482101561018a5760209161044691610fdc565b90546040519160031b1c8152f35b3461018a57602036600319011261018a5760043560015481101561018a5761047d602091610f8f565b905460405160039290921b1c6001600160a01b03168152f35b3461018a5761010036600319011261018a576104b0610ff4565b6024356001600160401b03811161018a576104cf9036906004016110a1565b6044356001600160401b03811161018a576104ee9036906004016110a1565b6064356001600160401b03811161018a5761050d9036906004016110a1565b906084356001600160401b03811161018a5761052d9036906004016110a1565b60a4356001600160401b03811161018a5761054c9036906004016110a1565b9060c4356001600160401b03811161018a5761056c9036906004016110a1565b6001600160a01b0387811660009081526020819052604090205491959116610e4e57855115610e12576064865111610dda57604051936105ab85611065565b8452602084015260408301526060820152604051916105c98361104a565b6001600160a01b038581168085526020808601878152604080880196909652606087019490945260e4356080870152600160a0870152600091825281905292909220835181546001600160a01b0319169316929092178255518051906001600160401b0382116108f857819061064260018501546110f7565b601f8111610d87575b50602090601f8311600114610d1557600092610d0a575b50508160011b916000199060031b1c19161760018201555b604082015180518051906001600160401b0382116108f85781906106a160028601546110f7565b601f8111610cb7575b50602090601f8311600114610c4557600092610c3a575b50508160011b916000199060031b1c19161760028301555b60208101518051906001600160401b0382116108f85781906106fe60038601546110f7565b601f8111610be7575b50602090601f8311600114610b7557600092610b6a575b50508160011b916000199060031b1c19161760038301555b60408101518051906001600160401b0382116108f85761075960048501546110f7565b601f8111610b23575b50602090601f8311600114610ab057606093929160009183610aa5575b50508160011b916000199060031b1c19161760048401555b01518051906001600160401b0382116108f85781906107b960058501546110f7565b601f8111610a52575b50602090601f83116001146109e0576000926109d5575b50508160011b916000199060031b1c19161760058201555b60608201518051906001600160401b0382116108f85761081460068401546110f7565b601f811161098e575b50602090601f831160011461091957918060a0949260089460009261090e575b50508160011b916000199060031b1c19161760068201555b6080840151600782015501910151151560ff80198354169116179055600154680100000000000000008110156108f8578060016108959201600155610f8f565b81546001600160a01b0394851660039290921b82811b95901b1916939093179055604051602080825260e435927f1878b98cdd20035dbb8cf5ab01bd1154cacee2b10b7852e62d60c69be1c89aa3929182916108f39183019061100a565b0390a3005b634e487b7160e01b600052604160045260246000fd5b01519050888061083d565b906006840160005260206000209160005b601f198516811061097657509260a0949260019260089583601f1981161061095d575b505050811b016006820155610855565b015160001960f88460031b161c1916905588808061094d565b9192602060018192868501518155019401920161092a565b600684016000526020600020601f840160051c8101602085106109ce575b601f830160051c820181106109c257505061081d565b600081556001016109ac565b50806109ac565b0151905086806107d9565b9250600584016000526020600020906000935b601f1984168510610a37576001945083601f19811610610a1e575b505050811b0160058201556107f1565b015160001960f88460031b161c19169055868080610a0e565b818101518355602094850194600190930192909101906109f3565b909150600584016000526020600020601f840160051c810160208510610a9e575b90849392915b601f830160051c82018110610a8f5750506107c2565b60008155859450600101610a79565b5080610a73565b01519050888061077f565b906004850160005260206000209160005b601f1985168110610b0b575091839160019360609695601f19811610610af2575b505050811b016004840155610797565b015160001960f88460031b161c19169055888080610ae2565b91926020600181928685015181550194019201610ac1565b600485016000526020600020601f840160051c810160208510610b63575b601f830160051c82018110610b57575050610762565b60008155600101610b41565b5080610b41565b01519050878061071e565b9250600385016000526020600020906000935b601f1984168510610bcc576001945083601f19811610610bb3575b505050811b016003830155610736565b015160001960f88460031b161c19169055878080610ba3565b81810151835560209485019460019093019290910190610b88565b909150600385016000526020600020601f840160051c810160208510610c33575b90849392915b601f830160051c82018110610c24575050610707565b60008155859450600101610c0e565b5080610c08565b0151905087806106c1565b9250600285016000526020600020906000935b601f1984168510610c9c576001945083601f19811610610c83575b505050811b0160028301556106d9565b015160001960f88460031b161c19169055878080610c73565b81810151835560209485019460019093019290910190610c58565b909150600285016000526020600020601f840160051c810160208510610d03575b90849392915b601f830160051c82018110610cf45750506106aa565b60008155859450600101610cde565b5080610cd8565b015190508680610662565b9250600184016000526020600020906000935b601f1984168510610d6c576001945083601f19811610610d53575b505050811b01600182015561067a565b015160001960f88460031b161c19169055868080610d43565b81810151835560209485019460019093019290910190610d28565b909150600184016000526020600020601f840160051c810160208510610dd3575b90849392915b601f830160051c82018110610dc457505061064b565b60008155859450600101610dae565b5080610da8565b60405162461bcd60e51b815260206004820152601060248201526f4e616d6520697320746f6f206c6f6e6760801b6044820152606490fd5b60405162461bcd60e51b81526020600482015260146024820152734e616d652063616e6e6f7420626520656d70747960601b6044820152606490fd5b60405162461bcd60e51b815260206004820152601d60248201527f556e697665727369747920616c726561647920726567697374657265640000006044820152606490fd5b3461018a57602036600319011261018a576104116001600160a01b0380610eb8610ff4565b166000526000602052610f33604060002091604051610ed68161104a565b81845416815260ff6008610eec60018701611131565b9560208401968752610f00600282016111d7565b6040850152610f1160068201611131565b606085015260078101546080850152015416151560a082015251161515611225565b5160405191829160208352602083019061100a565b3461018a57610f5636610f79565b9060005260046020526040600020805482101561018a5760209161044691610fdc565b604090600319011261018a576004359060243590565b600154811015610fc65760016000527fb10e2d527612073b26eecdfd717e6a320cf44b4afac2b0732d9fcbe2b7fa0cf60190600090565b634e487b7160e01b600052603260045260246000fd5b8054821015610fc65760005260206000200190600090565b600435906001600160a01b038216820361018a57565b919082519283825260005b848110611036575050826000602080949584010152601f8019910116010190565b602081830181015184830182015201611015565b60c081019081106001600160401b038211176108f857604052565b608081019081106001600160401b038211176108f857604052565b90601f801991011681019081106001600160401b038211176108f857604052565b81601f8201121561018a578035906001600160401b0382116108f857604051926110d5601f8401601f191660200185611080565b8284526020838301011161018a57816000926020809301838601378301015290565b90600182811c92168015611127575b602083101461111157565b634e487b7160e01b600052602260045260246000fd5b91607f1691611106565b9060405191826000825492611145846110f7565b9081845260019485811690816000146111b45750600114611171575b505061116f92500383611080565b565b9093915060005260209081600020936000915b81831061119c57505061116f93508201013880611161565b85548884018501529485019487945091830191611184565b91505061116f94506020925060ff191682840152151560051b8201013880611161565b906040516111e481611065565b6060611220600383956111f681611131565b855261120460018201611131565b602086015261121560028201611131565b604086015201611131565b910152565b1561122c57565b60405162461bcd60e51b8152602060048201526014602482015273155b9a5d995c9cda5d1e481b9bdd08199bdd5b9960621b6044820152606490fdfea264697066735822122021b973c380a6698580a1a19b93b0170489c9f0e75f621e28c7631afce8c7204464736f6c63430008130033",
  "immutableReferences": {},
  "source": "// SPDX-License-Identifier: MIT\r\npragma solidity ^0.8.19;\r\n\r\nimport \"@openzeppelin/contracts/utils/cryptography/ECDSA.sol\"; // For cryptographic functions\r\n\r\ncontract UniversityRegistryy{\r\n    using ECDSA for bytes32; // Helper library for cryptographic functions\r\n\r\n    struct Location {\r\n        string country;\r\n        string state;\r\n        string city;\r\n        string pincode;\r\n    }\r\n\r\n    struct University {\r\n        address universityAddress;\r\n        string name;\r\n        Location location;\r\n        string studentDomain;\r\n        bytes32 publicKey;\r\n        bool res;\r\n    }\r\n\r\n    mapping(address => University) public universities;\r\n    address[] public universityPublicKeys;\r\n    mapping(address => uint256) public studentApprovalIds;\r\n    mapping(address => address[]) public universityStudentList; // University address -> List of student addresses\r\n    mapping(bytes32 => uint256[]) public universityCertificates; // University public key -> certificate IDs\r\n    mapping(bytes32 => uint256[]) public universityDegree; // University public key -> certificate IDs\r\n\r\n\r\n    event UniversityRegistered(bytes32 indexed publicKey, address indexed universityAddress, string name);\r\n    event StudentApproved(address indexed studentAddress,uint256 approvalId,bool registered);\r\n\r\n\r\n    function registerUniversity(\r\n        address user,\r\n        string memory _name,\r\n        string memory _country,\r\n        string memory _state,\r\n        string memory _city,\r\n        string memory _pincode,\r\n        string memory _studentDomain,\r\n        bytes32 _publicKey\r\n    ) public {\r\n        require(universities[user].universityAddress == address(0), \"University already registered\");\r\n        require(bytes(_name).length > 0, \"Name cannot be empty\");\r\n        require(bytes(_name).length <= 100, \"Name is too long\");\r\n    \r\n    \r\n        universities[user] = University({\r\n            universityAddress: user,\r\n            name: _name,\r\n            location: Location(_country, _state, _city, _pincode),\r\n            studentDomain: _studentDomain,\r\n            publicKey: _publicKey,\r\n            res:true\r\n        });\r\n    \r\n        universityPublicKeys.push(user);\r\n        emit UniversityRegistered(_publicKey, user, _name);\r\n    }\r\n\r\n    function getUniversityByAdd(address user) public view returns (\r\n        address universityAddress,\r\n        string memory name,\r\n        string memory country,\r\n        string memory state,\r\n        string memory city,\r\n        string memory pincode,\r\n        string memory studentDomain\r\n    ) {\r\n        University memory university = universities[user];\r\n        require(university.universityAddress != address(0), \"University not found\");\r\n\r\n        return (\r\n            university.universityAddress,\r\n            university.name,\r\n            university.location.country,\r\n            university.location.state,\r\n            university.location.city,\r\n            university.location.pincode,\r\n            university.studentDomain\r\n        );\r\n    }\r\n\r\n    function getUniversityNameByAdd(address user) public view returns (\r\n        string memory name\r\n    ) {\r\n        University memory university = universities[user];\r\n        require(university.universityAddress != address(0), \"University not found\");\r\n        return university.name;\r\n    }\r\n\r\n    function getAllUniversityAddrs() public view returns (address[] memory) {\r\n        return universityPublicKeys;\r\n    }\r\n\r\n\r\n}",
  "sourcePath": "D:\\coding\\Hackathon\\c\\contracts\\Universityy.sol",
  "compiler": {
    "name": "solc",
    "version": "0.8.19+commit.7dd6d404.Emscripten.clang"
  },
  "schemaVersion": "3.4.10",
  "updatedAt": "2025-09-11T18:20:05.152Z",
  "devdoc": {
    "kind": "dev",
    "methods": {},
    "version": 1
  },
  "userdoc": {
    "kind": "user",
    "methods": {},
    "version": 1
  }
}